:020000040800F2
:1000000078070020E1020008E9020008EB0200087E
:10001000ED020008EF020008F102000800000000F5
:10002000000000000000000000000000F3020008D3
:10003000F502000800000000F7020008692300082C
:10004000FB020008FB020008FB020008FB0200089C
:10005000FB020008FB020008FB020008FB0200088C
:10006000FB020008FB020008FB020008FB0200087C
:10007000FB020008FB020008FB020008FB0200086C
:10008000FB020008FB020008FB0200080000000061
:10009000000000000000000000000000FB0200085B
:1000A000FB020008FB020008FB020008FB0200083C
:1000B000FB020008FB020008FB020008FB0200082C
:1000C000FB020008FB020008FB020008FB0200081C
:1000D000FB020008FB020008FB0200080000000011
:1000E000FB020008FB020008FB0200080000000001
:1000F000000000000000000000000000FB020008FB
:1001000000000000FB020008FB020008FB020008E0
:1001100000000000000000000000000000000000DF
:10012000FB020008FB020008FB020008FB020008BB
:10013000FB020008000000000000000000000000BA
:10014000000000000000000000000000FB020008AA
:10015000FB020008FB020008FB020008FB0200088B
:10016000FB020008FB020008000000000000000085
:10017000000000000000000000000000000000007F
:1001800000000000FB02000800000000000000006A
:10019000FB02000800F002F800F092F80AA090E8D4
:1001A000000C82448344AAF10107DA4501D100F032
:1001B00087F8AFF2090EBAE80F0013F0010F18BF6D
:1001C000FB1A43F001031847943C0000B43C0000C4
:1001D000103A24BF78C878C1FAD8520724BF30C873
:1001E00030C144BF04680C60704700000023002445
:1001F00000250026103A28BF78C1FBD8520728BF37
:1002000030C148BF0B6070476E2900F0A58170298E
:1002100000F0E782662903F00485652903F0018573
:10022000672903F0FE84612903F0FD8403681B0A3B
:1002300028BF41F08001692900F05281642900F053
:100240004F81752900F04C816F2900F07582782963
:1002500000F0B382E92900F00F82E42900F00C825B
:10026000F52900F00982EF2900F07282F82900F0E8
:10027000B2820368DB0928BF41F08001632900F0E6
:10028000E587732900F0EA87E32900F0F587F32971
:1002900000F0FA87002070471FB503F0B0FC01F0B2
:1002A00049F804000020002103F05CF9401C606064
:1002B0000020002103F040F9E0601FBD10B510BD23
:1002C00001F00AF81146FFF7E7FF02F061F901F0CB
:1002D000E7F803B4FFF7F2FF03BC01F02FF90000C9
:1002E0000948804709480047FEE7FEE7FEE7FEE7CA
:1002F000FEE7FEE7FEE7FEE7FEE7FEE70448054906
:10030000054A064B70470000A1240008950100082B
:10031000780100207807002078030020780300206F
:100320000FB41CB5084B06AA7B446946009005989B
:1003300000F02BF904460020694600F039F9204608
:100340001CBC5DF814FB00008502000010B5431CC6
:1003500002E010F8011B71B18107FAD14FF00132B0
:1003600002C88C1A8C4314EAC211F9D0C01A0A06CA
:1003700003D0C01E10BDC01A10BD0A0401D0801EDB
:1003800010BD0902FCD0401E10BD032A40F230808F
:1003900010F0030C00F0158011F8013BBCF1020FC6
:1003A000624498BF11F801CB00F8013B38BF11F847
:1003B000013BA2F1040298BF00F801CB38BF00F85E
:1003C000013B11F0030300F0DB82083AC0F0088023
:1003D00051F8043B083A51F804CBA0E80810F5E7BF
:1003E000121D5CBF51F8043B40F8043BAFF30080A2
:1003F000D20724BF11F8013B11F801CB48BF11F817
:10040000012B24BF00F8013B00F801CB48BF00F8E6
:10041000012B704770477047704770B50446856977
:100420000068C10601D5302600E02026C00707D0AD
:1004300070BDD4E9012130469047206A401C2062FB
:100440006D1EF6D570BD70B5044685690078C0078D
:1004500007D170BDD4E9012120209047206A401CBB
:1004600020626D1EF6D570BD09684A0501D540B2FF
:100470007047C905FCD500B2704709684A0501D527
:10048000C0B27047C905FCD580B2704770B50C4644
:100490000546012A05D02878800600D5EA690023A0
:1004A00002E0012305E05B1C934202D2E05C0028DD
:1004B000F9D1A869E618C01AA861286A1844286208
:1004C0002846FFF7AAFF04E0D5E9012114F8010B43
:1004D0009047B442F8D32846FFF7B5FF70BD00003F
:1004E0002DE9F0410646002410687529314616A50D
:1004F00010D0FFF7B9FF002802DA404213A507E049
:1005000031688A0701D512A502E0490704D511A573
:10051000012401E0FFF7B1FF00210A2206F12407C0
:1005200009E0B0FBF2FCB0FBF2F302FB1C00303040
:1005300078541846491C0028F3D123462A463046F1
:10054000BDE8F04100F093BA000000002D0000006B
:100550002B0000002000000011680268006A5305AB
:1005600001D508700AE0D30501D5088006E013061E
:1005700003D5C217C1E9000200E0086001207047FE
:1005800001694A1C02610878704700B58FB0CDE957
:1005900001310021059105497944CDE90310114647
:1005A000684600F029F90FB000BD0000E5FFFFFF2D
:1005B0000A6802F8010B0A60704700002DE9FF5F2E
:1005C00015468A460446DFF8AC80F8440027D8E98F
:1005D00000103E46CDE9001010E03AF816106A46C9
:1005E00002A800F055FE411C07D02178890603D5EA
:1005F000E269391891420DD80744761C20788006AC
:1006000002D5E069B84205DDAE42E6DB3AF81600F5
:100610000028E2D1A069C01BA0612046FFF7FDFEC3
:10062000D8E90010CDE90010002017E03AF81810C2
:100630006A4602A800F02CFEB0F1FF3F81460BD0C5
:1006400000250DF1080B05E0D4E901211BF8050098
:1006500090476D1C4D45F7D308F10100B04280462C
:10066000E4DB206A384420622046FFF7ECFEBDE858
:10067000FF9F00005E3600002DE9F0418046D21D4C
:1006800022F007020025D2E90002F52915A614D0B0
:10069000011E72F1000106DA0023D0EB030063EBC8
:1006A000020211A608E0D8F800108B0701D50FA6AA
:1006B00002E0490701D50EA601251146002408F1E4
:1006C000240704E000F08EF930323A55641C50EAF9
:1006D0000102F7D12B46324621464046BDE8F041A3
:1006E00000F0C5B9000000002D0000002B00000044
:1006F0002000000030B4002100F1240408E002F0E2
:100700000705D208303542EA4372DB086554491CBC
:1007100052EA0305F3D10468002310A2250708D587
:1007200004F020040C4304D0C46901230CA2641E0D
:10073000C46130BC00F09BB910B504462146106876
:10074000FFF79BFE02462046BDE810400023D1E79C
:10075000D21D22F00701D1E90023CBE70000000001
:1007600030000000F0B40D460188090502D5214C87
:100770007C4402E01F4C7C440E34002100F124062E
:1007800008E002F00F071209E75D42EA03721B0955
:100790007754491C52EA0307F3D102780023120769
:1007A00004D5702D06D009B1022311342246F0BCC5
:1007B00000F05DB901231034F8E770B504460D462A
:1007C00021461068FFF759FE024629462046BDE83B
:1007D00070400023C6E7D21D22F00703D3E90023AF
:1007E000C0E70368126843F0200303600823C36175
:1007F0000023B7E7C03400002DE9F05F89460446C6
:100800004FF0000ADFF874B1FB44C0F820A0204686
:10081000E1688847002874D0252806D0D4E9012152
:100820009047206A401C2062F1E700265F46204680
:10083000E16888472028054607DB312D05D2781965
:1008400010F8200C08B10643F1E7B00701D526F0F7
:100850000406C4F81CA00027C4F818A02A2D09D04B
:10086000284602F061FE38B304EB8708303DC8F833
:10087000185019E059F8041B204604EB87029161D7
:10088000E1688847012F054618D1E069002820DA81
:1008900026F020061DE0D8F8180000EB800005EBDC
:1008A00040003038C8F818002046E16888470546FF
:1008B00002F03AFE0028EED1012F0AD02E2D08D1E9
:1008C0002046E16888477F1C0546022F46F0200637
:1008D000C4DBA069002803DA404246F00106A061AB
:1008E000F00701D026F010066C2D0BD0682D09D032
:1008F0004C2D39D06A2D35D0742D35D07A2D33D08A
:1009000016E038E0E1682F4620468847B8420546A1
:1009100009D16C2F26D04FF48060E1680643204651
:100920008847054604E06C2F1AD04FF480700643C8
:100930000DB3A5F14100192802D8203546F4006610
:100940004A462946204626604E46FFF75DFC80B1A8
:1009500001280BD0F61D26F0070000F1080956E724
:100960004020E4E78020D8E70020D6E706F104091C
:100970004DE7284652E7206ABDE8F09F503400005A
:1009800010B5203AC0F00B80B1E81850A0E818501C
:10099000B1E81850A0E81850203ABFF4F5AF5FEA6C
:1009A000027C24BFB1E81850A0E8185044BF18C911
:1009B00018C0BDE810405FEA827C24BF51F8043BB8
:1009C00040F8043B08BF7047D20728BF31F8023B0C
:1009D00048BF11F8012B28BF20F8023B48BF00F8A0
:1009E000012B704730B5B0F10A0271F100034FEAF4
:1009F000900E4EEA817EB0EB0E0061EB91014FEA62
:100A0000101E4EEA017E10EB0E0041EB11114FEA71
:100A1000102E4EEA016E10EB0E0041EB11214FEA51
:100A2000104E4EEA014E10EB0E0041EB1141401802
:100A300041F100014FEAD00040EA41704FEAD10194
:100A40004FEA810444EA907410EB800544EB010402
:100A50006D1944EB0404521BA3414FF0000348BF3F
:100A60000A3200D530BD401C41F1000130BD2DE9F6
:100A7000F0470D4699469246044600F12408016865
:100A8000880604D5E06921F01001216000E0012012
:100A9000A84201DD471B00E00027A1697A1902EB9B
:100AA0000900081AA0612078C00602D42046FFF78A
:100AB000B4FC002608E0D4E901211AF806009047AA
:100AC000206A401C761C20624E45F4DB2078C0066C
:100AD0000AD52046FFF7A1FC06E0D4E90121302029
:100AE0009047206A401C2062381EA7F10107F4DC01
:100AF00007E0D4E9012118F805009047206A401C5E
:100B00002062281EA5F10105F3DC2046FFF79BFCBF
:100B10002078000602D50220BDE8F0870120FBE71F
:100B20002DE9FF4F0C461E464FF0FF378BB0D2E940
:100B30000001DDF860800A908A46C1F30A5505B9C4
:100B40003D46002108464FF00000BAF1000F00F4C6
:100B5000400005DA00EB80004FF4400101EA50004C
:100B60004FEA9059B9F1010F00DDB9460A9850EAF1
:100B70004A000ED044F61050A5F2FF3545432F141D
:100B8000B8F1000F1ED07542291E1EDDC9F100020A
:100B90001CE0B8F1010F4FF0000001D0302103E05C
:100BA000F24305E02154401CB042FBDB30460022FA
:100BB000002121540B99C1F80880C1E900200FB031
:100BC000BDE8F08FBD1B6D1CDEE74A4600DA6942C6
:100BD00006A800F0F3FB06AB93E8070003AB83E83D
:100BE000070050460A9902F0BEF88DE80700A0F50C
:100BF00000501F3800900398002D0ADD42F21F01BB
:100C00004A460844002303A90390684602F028FBE3
:100C100009E0A0F500504A461F38002303A90390BD
:100C2000684602F032FB8DE807000004000C03D098
:100C30004FF0FF30410800E01046B8F1000F03D03C
:100C40000022009215461EE0751E05D4FFF7CAFE6D
:100C5000303262556D1EF9D5B3460122084302D0E9
:100C600000227F1C04E02078302801D100227F1E62
:100C7000002A099784D01DE0112D07DAFFF7B2FE94
:100C8000303262556D1C50EA0102F5D1084302D0A2
:100C90000098C8B10EE00021681E05E0235C625C8C
:100CA00063542254401E491C8142F7DBAB46A81B0B
:100CB000401E0990002004F80B000B98099AC0F818
:100CC0000880C0E9002B7AE711264FF0000857E7AB
:100CD0002DE9F04F88460446D21D22F0070191B05D
:100CE000D1E90001CDE90A0102F006FC02460B98A9
:100CF000C00F01D02D2007E02068810701D52B20EF
:100D000002E0202101EAC000032A099001D0072A4D
:100D100005DB03464146204600F010FB0BE120783E
:100D2000800601D5E06900E00620B8F1650F814634
:100D300006D0B8F1660F18D0B8F1670F70D131E066
:100D40000020B9F1110F009001DB112301E009F13E
:100D500001030AAA01A90CA8FFF7E2FEDDE90C7065
:100D6000002609F10105834647E001204B4600902B
:100D70004FF000470AAA01A90CA8FFF7D1FEDDE950
:100D80000DB00C995D46002610B909F101000D184F
:100D9000B9EB050003D4C0F1FF3609F10105A5EB5D
:100DA00009002BE0B9F1010F01DA4FF00109002031
:100DB000B9F1110F0090484601DD112300E0034610
:100DC0000AAA01A90CA8FFF7ABFEDDE90C704D469D
:100DD00000268346207800070AD4AB4500DA5D463A
:100DE00001A8012D04DD411911F8011C302907D09B
:100DF0004F4502DA17F1040F04DA012082460FE0B2
:100E00006D1EEEE7002F02DCED1B3E4403E0781C74
:100E1000A84200DD7D1CB81B00F1010A4FF000471D
:100E20002078000703D4AA4501DB4FF0FF3A0021E8
:100E3000B7F1004F0DF143088DF8431024D0022084
:100E40002B23002F01DA7F422D230A21021EA0F15D
:100E5000010000DC5FB197FBF1FC97FBF1F201FBB5
:100E60001C7C17460CF1300C08F801CDEEE7A8F118
:100E7000010003702188090501D5452100E06521A5
:100E8000A0F1010800F8011C09980FA9A1EB0807BF
:100E9000FF1D00B10120411901EBEA70A16938443E
:100EA000081A401EA0612078C00602D42046FFF731
:100EB000B4FA099828B1D4E901219047206A401C6E
:100EC00020622078C00622D52046FFF7A6FA1EE051
:100ED000002E04DBB34502DD01A8805D00E0302078
:100EE000D4E901219047206A401C2062761CAAF1B7
:100EF00001005FEA000A0AD100F01CFAC06801682C
:100F0000405CD4E901219047206A401C2062281EE1
:100F1000A5F10105DCDC07E0D4E9012118F8010B9B
:100F20009047206A401C2062381EA7F10107F3DCBD
:100F30002046FFF788FA032011B041E62DE9F04F73
:100F400004460D46D21D22F0070089B0D0E9009773
:100F50004846394602F0D0FA0246F80F01D02D2358
:100F600007E02068810701D52B2302E0202101EA58
:100F7000C0038DF820300BB1012000E00020032ACF
:100F8000824601D0072A04DB2946204600F0D6F924
:100F90003FE12078800601D40D2500E0E569C7F324
:100FA0000A560D2D49DA00214FEA175B08464FF02B
:100FB0000000002F00F4400007DA00EB80004FF43F
:100FC000400100EBD07001EA60008115012901DDCC
:100FD0004FF0FF3100224FEA850CBCF1180F06D309
:100FE0001346ACF118004FF08052C24003E04FF4BA
:100FF000801323FA0CF30CF10C0CBCF1200F04D37A
:10100000ACF1200C09FA0CF001E007FA0CF0002911
:101010004FF0004801DD18B90FE00ED140450CD368
:1010200019EB02095F4121B9404502D19F4329EAEA
:101030000209BBEB175F00D0761C2088000502D5A3
:101040007B48784402E07A487844193808AA30236B
:1010500002F80A30037C0AF10101002E0AF1020AAB
:1010600053546A4602DC4FF0300101E04FF0310189
:101070004FF001088DF8001002D0A6F2FF3603E011
:1010800059EA470100D06B4E002D02DC2178090798
:1010900004D54FF002082E218DF80110C44600211E
:1010A0000BE0C7F303433F01C35C491C6D1E02F80C
:1010B0000830052908F1010801DA002DF1DC0021D2
:1010C0000CE000EB1973491C1B786D1E082902F80F
:1010D00008304FEA091908F1010801DA002DF0DCA7
:1010E00021688B0602D516E0A8F10108E04505DD70
:1010F00002EB080313F8013C302BF5D0B8F1000FD8
:1011000009DD02EB080313F8013C2E2B03D109077C
:1011100001D4A8F10108002D05DD3E2102F80810D8
:101120006D1E08F10108407C002E02F8080008F14D
:10113000010804DA2D20764202F8080002E02B2094
:1011400002F808000A214FF47A70864208F101087B
:101150000BDB96FBF0F3303302F8083096FBF0F32C
:1011600008F1010800FB136601E0642E0CDB64202B
:1011700096FBF0F3303302F8083096FBF0F308F1F9
:10118000010800FB136601E00A2E06DB96FBF1F076
:10119000303002F8080008F1010896FBF1F001FB7D
:1011A0001060303002F80800A16908F1010808EB6E
:1011B000050202EB0A00081AA0612078C00602D4DA
:1011C0002046FFF72AF9216A08AE01EB0A002062E7
:1011D00004E0D4E9012116F8010B9047BAF1010AA5
:1011E000F7D22078C00602D52046FFF716F96E46E2
:1011F00009E016F8010B3E280FD0D4E901219047F1
:10120000206A401C2062B8F10108F2D22046FFF7A4
:101210001AF909B00320BDE8F08F206A2844206243
:1012200003E0D4E90121302090476D1EEBD3F8E7AD
:101230003A2C000002FCFFFF10B5436913B1AFF375
:10124000008001E0FFF722F9012010BD127800F1C3
:1012500024010A7000224A700122EDE711684FF064
:10126000FF32E9E710B5436913B1AFF3008001E045
:10127000FFF7A4F9012010BD128800F12401828437
:101280000022C2840122EDE711684FF0FF32E9E746
:101290002DE9F04116460C46054600F043F8036878
:1012A00093F80101012807D0FF2C12D8185D80B1F6
:1012B00001202C70BDE8F081D3F8070132462146A9
:1012C00003F20713C7182846BC46BDE8F0410023C7
:1012D00060474FF0FF30EDE7754600F0EBF8AE46A3
:1012E00005006946534620F00700854618B020B532
:1012F000FFF704F8BDE820404FF000064FF000076C
:101300004FF000084FF0000BAC46ACE8C009ACE869
:10131000C009ACE8C009ACE8C00921F007018D465E
:101320007047000010B500F005F8001D10BD00BFAB
:101330003522000000487047A00000202DE9F04150
:101340001F46044603260168072A01F4006004DBF7
:1013500008B116A505E016A503E008B115A500E043
:1013600015A521F010002060A069C01EA0610FB17A
:10137000401EA0612046FFF750F84FB1D4E901218B
:1013800038469047206A401C2062C01C206206E05C
:10139000206AFAE7D4E9012115F8010B9047761E7F
:1013A000F8D22046FFF74FF8BDE8F0814E414E00DD
:1013B0006E616E00494E4600696E66002DE9F04789
:1013C000814616468AB0354878440DC88DE80D0030
:1013D00032487844801C03AC0DC884E80D0041F607
:1013E0009B300844372190FBF1F290FBF1F5A5F119
:1013F000800501FB12041B3C02D56442012000E081
:101400000020DFF898A080460027FA44AAF1BE0A1F
:101410000EE0E0070AD03246684607EB4701012399
:101420000AEB810101F031FF8DE8070064107F1C99
:10143000002CEED1194F7F44AE3F19E0E80715D0DC
:1014400007EB04100DF1180A90E80E008AE80E0070
:10145000C068F04201D1981908903246012306A9CC
:1014600003A801F012FF03AB83E807006D10641CB2
:10147000002DE3D14FF0010332466946B8F1000F69
:1014800003A802D001F0ECFE01E001F0FEFEC9E984
:101490000001C9F808200AB0BDE8F087442900001F
:1014A00010B50446AFF300802046BDE81040FEF7BB
:1014B00010BF0000004870478000002000000000BE
:1014C00030B44FF0013C50F8042B51F8043BCCFAF7
:1014D00052F4D51A20D1FCB950F8042B51F8043B32
:1014E000CCFA52F4D51A17D1B4B950F8042B51F8EC
:1014F000043BCCFA52F4D51A0ED16CB950F8042B37
:1015000051F8043BCCFA52F4D51A05D1002CDAD0AC
:1015100030BC4FF00000704729BAB1FA81F111F0E8
:101520001801D1F120008440F2D1CA40CB4012F022
:10153000FF0213F0FF0330BCD01A70470149182096
:10154000ABBEFEE7260002007047000080B584B005
:10155000039000F0FFF90290039801900198013088
:1015600048B1FFE740F24800C2F20000017801985C
:1015700008440190FFE7FFE700F0ECF90299401AF8
:101580000199884201D2FFE7F6E704B080BD000070
:101590008BB00A9009910020079006900590089062
:1015A000FFE708980F2800F2A281FFE708990120C1
:1015B00088400790099800680799084006900698A7
:1015C0000799884240F08E81FFE70998406800F053
:1015D0000300012807D0FFE70998406800F00300E6
:1015E00002282FD1FFE70A988068059008984100EB
:1015F000032000FA01F10598884305900998C06816
:101600000899490000FA01F10598084305900598EA
:101610000A9988600A98406805900899012000FAA4
:1016200001F105988843059009984068C0F30010BF
:10163000089900FA01F105980843059005980A9960
:101640004860FFE70998406800F00300032818D0BD
:10165000FFE70A98C068059008984100032000FA47
:1016600001F1059888430590099880680899490018
:1016700000FA01F105980843059005980A99C86099
:10168000FFE70998406800F00300022826D1FFE731
:101690000A9808996FF0030202EA51010844006AAF
:1016A0000590089800F0070081000F2000FA01F172
:1016B00005988843059009980069089901F0070189
:1016C000890000FA01F105980843059005980A99E8
:1016D000089B02EA530211440862FFE70A98006877
:1016E000059008984100032000FA01F1059888430D
:1016F00005900998406800F003000899490000FA35
:1017000001F105980843059005980A990860099821
:1017100080798007002800F0E480FFE7FFE70020E1
:10172000049043F64400C4F20200016841F4804191
:101730000160006800F4804004900498FFE7089876
:1017400020F0030043F60801C4F20101405805905F
:10175000089800F0030081000F2000FA01F10598BD
:10176000884305900A980021C4F20201884203D1FF
:10177000FFE70020039034E00A9840F20041C4F2F1
:101780000201884203D1FFE70120029026E00A9877
:1017900040F60001C4F20201884203D1FFE70220B3
:1017A000019018E00A9840F60041C4F20201884214
:1017B00003D1FFE7032000900AE00A9941F20002FA
:1017C000C4F202020720914208BF04200090FFE704
:1017D00000980190FFE701980290FFE702980390BC
:1017E000FFE70398C0B2089901F00301890000FAED
:1017F00001F10598084305900598089921F0030127
:1018000043F60802C4F20102885043F60840C4F2CD
:10181000010000680590069905988843059009988D
:101820008079C006002805D5FFE70699059808438A
:101830000590FFE7059843F60841C4F201010860EE
:1018400043F60C40C4F20100006805900699059823
:1018500088430590099880798006002805D5FFE720
:101860000699059808430590FFE7059843F60C4153
:10187000C4F20101086043F60440C4F201000068AC
:101880000590069905988843059009988079800706
:10189000002805D5FFE70699059808430590FFE75E
:1018A000059843F60441C4F20101086043F6004084
:1018B000C4F20100006805900699059888430590D8
:1018C00009988079C00728B1FFE706990598084371
:1018D0000590FFE7059843F60041C4F20101086056
:1018E000FFE7FFE7FFE708980130089059E60BB0E3
:1018F0007047000082B00190ADF8021001980069B5
:10190000BDF80210084204D0FFE701208DF8010065
:1019100003E000208DF80100FFE79DF8010002B010
:101920007047000082B00190ADF802108DF80120E0
:101930009DF8010028B1FFE7BDF802000199886118
:1019400005E0BDF80200000401998861FFE702B0DC
:101950007047000040F27010C2F20000006870474B
:1019600040F24800C2F20000027840F27011C2F268
:1019700000010868104408607047000080B543F615
:101980000041C4F20201086840F400700860086871
:1019900040F480600860032000F05CF80F2000F045
:1019A00005F800F03BF8002080BD000080B582B053
:1019B000009040F20000C2F20000006840F24801CE
:1019C000C2F200010A784FF47A71B1FBF2F1B0FB78
:1019D000F1F000F047F820B1FFE701208DF8070093
:1019E00018E000980F280DD8FFE700994FF0FF305E
:1019F000002200F015F8009840F24C01C2F20001FC
:101A0000086003E001208DF8070003E000208DF856
:101A10000700FFE79DF8070002B080BD7047000097
:101A200080B586B08DF817000491039200200290D3
:101A300000F066FD02909DF917000190029804994C
:101A4000039A00F031FC0146019800F061FD06B0F8
:101A500080BD000080B582B00190019800F07AFD51
:101A600002B080BD80B582B00190019800F052FCB8
:101A700002B080BD80B58AB08DF827009DF82700A0
:101A8000F0B9FFE740F2E001C2F2000108914869B5
:101A9000498D00220792FFF745FF079A0899886948
:101AA000898DFFF73FFF079A0899C869C98DFFF72D
:101AB00039FF08990869098D0122FFF733FF6BE0B0
:101AC0009DF8270001281ED1FFE740F2E001C2F295
:101AD000000106910869098D00220592FFF722FF97
:101AE000059A06998869898DFFF71CFF059A069962
:101AF000C869C98DFFF716FF06994869498D01220B
:101B0000FFF710FF47E09DF8270002281ED1FFE7EE
:101B100040F2E001C2F2000104910869098D00223F
:101B20000392FFF7FFFE039A04994869498DFFF776
:101B3000F9FE039A0499C869C98DFFF7F3FE049969
:101B40008869898D0122FFF7EDFE23E09DF82700CB
:101B500003281ED1FFE740F2E001C2F2000102912A
:101B60000869098D00220192FFF7DCFE019A0299B3
:101B70004869498DFFF7D6FE019A02998869898DD7
:101B8000FFF7D0FE0299C869C98D0122FFF7CAFE8E
:101B9000FFE7FFE7FFE7FFE70AB080BD81B0002065
:101BA0008DF803008DF80300FFE79DF803000F2870
:101BB00053DCFFE740F2E000C2F20000008D9DF828
:101BC0000310C840C00740B1FFE79DF8030040F292
:101BD0001511C2F200010870FFE740F2E000C2F206
:101BE0000000408D9DF80310C840C00740B1FFE7DA
:101BF0009DF8030040F21511C2F200014870FFE7A2
:101C000040F2E000C2F20000808D9DF80310C84051
:101C1000C00740B1FFE79DF8030040F21511C2F282
:101C200000018870FFE740F2E000C2F20000C08DC2
:101C30009DF80310C840C00740B1FFE79DF80300BE
:101C400040F21511C2F20001C870FFE7FFE79DF8EE
:101C5000030001308DF80300A7E701B070470000D2
:101C600081B08DF803009DF8031040F20400C2F229
:101C7000000050F8210001B070470000B0B584B0FA
:101C80000390039C20686268A368D4F80CC0D4F861
:101C900010E0656940F2E001C2F2000101914D617E
:101CA000C1F810E0C1F80CC08B604A600860A06900
:101CB000E269236AD4F824C0D4F828E0E46ACC624C
:101CC000C1F828E0C1F824C00B62CA618861FFF73F
:101CD00065FF019940F21510C2F20000037801225D
:101CE000029202FA03FED1F810C0DCF8043043EA95
:101CF0000E03CCF80430437802FA03FED1F814C086
:101D0000DCF8043043EA0E03CCF80430837802FA9E
:101D100003FED1F818C0DCF8043043EA0E03CCF817
:101D20000430C07802FA00FCCB69586840EA0C0025
:101D300058600869098DFFF7F5FD0199029A486915
:101D4000498DFFF7EFFD0199029A8869898DFFF7A8
:101D5000E9FD0199029AC869C98DFFF7E3FD04B056
:101D6000B0BD000080B582B001900020FFF782FE78
:101D700040F2E001C2F2000100910868098CFFF70F
:101D8000B9FD0099002818BF0120019A1070486819
:101D9000498CFFF7AFFD0099002818BF0120019A78
:101DA00010718868898CFFF7A5FD0099002818BF7D
:101DB0000120019A1072C868C98CFFF79BFD0028AA
:101DC00018BF0120019908730120FFF753FE009905
:101DD0000868098CFFF78EFD0099002818BF0120C4
:101DE000019A50704868498CFFF784FD00990028DB
:101DF00018BF0120019A50718868898CFFF77AFD1D
:101E00000099002818BF0120019A5072C868C98C37
:101E1000FFF770FD002818BF0120019948730220C8
:101E2000FFF728FE00990868098CFFF763FD009909
:101E3000002818BF0120019A90704868498CFFF76C
:101E400059FD0099002818BF0120019A90718868F7
:101E5000898CFFF74FFD0099002818BF0120019AD7
:101E60009072C868C98CFFF745FD002818BF012093
:101E7000019988730320FFF7FDFD00990868098C1C
:101E8000FFF738FD0099002818BF0120019AD07093
:101E90004868498CFFF72EFD0099002818BF0120E3
:101EA000019AD0718868898CFFF724FD0099002879
:101EB00018BF0120019AD072C868C98CFFF71AFDBB
:101EC000002818BF01200199C87302B080BD00002E
:101ED00080B5012000F004F8052000F0A5F880BDD1
:101EE00080B582B08DF807000020C4F202004FF4E4
:101EF00000710022FFF716FD9DF80700000900F0B1
:101F000009F89DF8070000F00F0000F003F802B098
:101F100080BD000080B586B08DF817009DF81700D1
:101F200000F008020020C4F202004FF48071FFF7B5
:101F3000F9FC9DF8170000F0040240F20040C4F2E2
:101F4000020001904FF48061FFF7ECFC01989DF8CE
:101F5000171001F002021021FFF7E4FC01989DF830
:101F6000171001F001022021FFF7DCFC40F6000011
:101F7000C4F202000290802103910122FFF7D2FCFB
:101F80003220049000F05AF8029803990022FFF7DB
:101F9000C9FC049800F052F806B080BD80B582B04C
:101FA0008DF807008DF8061044F20000C5F21440C9
:101FB00000909DF80600022804DBFFE700208DF862
:101FC0000600FFE79DF8070040F21011C2F2000181
:101FD000C8709DF8060008719DF807009DF806205E
:101FE0006946895C084440F08000C0B2FFF778FF82
:101FF00002B080BD80B582B08DF807000020C4F229
:1020000002004FF400710122FFF78CFC9DF80700DD
:102010000009FFF77FFF9DF8070000F00F00FFF7B2
:1020200079FF02B080BD000080B582B08DF8070056
:102030009DF80700FFF78AFA02B080BD80B584B032
:10204000ADF80E004EF21400CEF200000068013030
:1020500044F6D351C1F26201A0FB01108009029045
:10206000FFF778FC4FF47A7148434EF21801CEF234
:1020700000010968029AB1FBF2F1401A00F57A708A
:102080000190FFE7FFF766FC4FF47A7148434EF288
:102090001801CEF200010968029AB1FBF2F1401A70
:1020A0000199401A00F57A70BDF80E10884201D2ED
:1020B000FFE7E7E704B080BD80B540F21010C2F240
:1020C0000000017841F004010170007840F0080040
:1020D000FFF706FF80BD000080B58CB0012008909E
:1020E00002200A90002009904FF400700790002011
:1020F000C4F20200059007A90691FFF749FA069974
:102100008020079040F60000C4F20200FFF740FA7A
:102110000598069908220792FFF73AFA06992020B7
:10212000079040F20040C4F202000490FFF730FA3A
:102130000498069910220792FFF72AFA0498069944
:102140004FF480620792FFF723FA059806994FF43F
:1021500080720792FFF71CFAFFE7FFF7FBFBC72827
:1021600004D8FFE70120FFF75FFFF6E740F2101108
:10217000C2F2000102910020C870087148704878CE
:1021800040F00800487003200090FFF7C3FE0520D0
:102190000390FFF749FF0098FFF7BCFE0398FFF795
:1021A00043FF0098FFF7B6FE0398FFF73DFF0220BC
:1021B0000190FFF7AFFE0398FFF736FF02984078D3
:1021C00040F02000FFF78CFE029904200870FFF712
:1021D00073FFFFF77DFE019902988170807840F0CF
:1021E0000400FFF77DFE0398FFF71EFF0CB080BDD3
:1021F00080B582B08DF807008DF8061000929DF82A
:1022000007009DF80610FFF7C9FEFFE70098007869
:10221000002846D0FFE740F21010C2F20000C0785C
:1022200010280EDBFFE740F21011C2F2000100207F
:10223000C870087901300871C8780979FFF7AEFED7
:10224000FFE7009800780A280CD1FFE740F2101150
:10225000C2F20001087901300871C8780979FFF7E6
:102260009DFE1AE0009800780D2809D1FFE740F2A2
:102270001010C2F2000001790020FFF78FFE0BE082
:1022800000980078FFF7B6FE40F21011C2F200018C
:10229000C8780130C870FFE7FFE700980130009070
:1022A000B4E702B080BD000088B0079006910592A7
:1022B000079800F0070004900498C0F10700052873
:1022C00003D3FFE70420019004E00498C0F1070065
:1022D0000190FFE70198039004980430062803D882
:1022E000FFE70020009003E0049803380090FFE728
:1022F0000098029006980399012202FA01F101392F
:102300000840029B984005999A40013A11400843C1
:1023100008B0704780B582B0009000980138B0F1E5
:10232000807F03D3FFE70120019019E00098013876
:102330004EF21401CEF2000108604FF0FF300F2181
:1023400000F0E6F84EF21801CEF20001002008601D
:102350004EF21002CEF20002072111600190FFE759
:10236000019802B080BD000080B5FFF7F9FA80BD8A
:1023700086B0002105910491022003900291019002
:1023800043F60800C4F20200006800F00C0005905B
:102390000598009040B1FFE7009804280ED0FFE7B1
:1023A0000098082814D059E040F20001C2F2000160
:1023B00042F20040C0F2F400086059E040F200012F
:1023C000C2F2000147F64000C0F27D1008604FE005
:1023D00043F60400C4F202000168C1F38051029187
:1023E000006800F03F000190029888B1FFE7019972
:1023F00047F64000C0F27D10B0FBF1F043F6040157
:10240000C4F202010968C1F388114843049010E046
:10241000019942F20040C0F2F400B0FBF1F043F643
:102420000401C4F202010968C1F388114843049011
:10243000FFE743F60400C4F20200006800F44031F4
:10244000022000EBD130039004980399B0FBF1F027
:1024500040F20001C2F20001086009E040F2000110
:10246000C2F2000142F20040C0F2F4000860FFE74F
:1024700043F60800C4F202000068C0B2010943F646
:102480005A50C0F60000405C0590059A40F20001E9
:10249000C2F200010868D040086006B07047000032
:1024A0004EF68851CEF20001086840F470000860D2
:1024B0007047000083B00290019100200090FFE778
:1024C00000980199884218D2FFE7FFE744F20040E4
:1024D000C4F2000000680006002801D4FFE7F5E719
:1024E00002980099405C44F20441C4F20001086083
:1024F000FFE7009801300090E2E703B0704700006A
:102500004EF60C50CEF200000068C0F30220704777
:1025100082B08DF8070000919DF9070000280AD4C9
:10252000FFE7009800019DF907104EF20042CEF23D
:10253000000288540BE0009800019DF8071001F09C
:102540000F014EF61452CEF200028854FFE702B09B
:102550007047000083B00290029800F007000090DE
:102560004EF60C51CEF200010868019001984FF62A
:10257000FF02104001900198009A40EA02200022D8
:10258000C0F2FA52104301900198086003B07047FE
:1025900070B5D6B021A81A9000205590FFF7E8FE3C
:1025A000FFF7ECF9FFE70020549043F63000C4F247
:1025B0000200016841F001010160006800F00100C3
:1025C00054905498FFE7FFE70020539043F6300003
:1025D000C4F20200016841F002010160006800F0ED
:1025E000020053905398FFE7FFE70020529043F614
:1025F0003000C4F20200016841F00401016000688B
:1026000000F0040052905298FFE7012518954D956F
:10261000002017904E9002204F900026C4F2020630
:102620000D964DA90E913046FEF7B2FF0E994FF46C
:1026300080444D943046FEF7ABFF0E994FF40040B6
:1026400014904D903046FEF7A3FF0E994FF4806032
:102650000F904D903046FEF79BFF0E991798102271
:1026600010924D924E954F903046FEF791FF0E9985
:10267000202011904D903046FEF78AFF0E994020A1
:1026800012904D903046FEF783FF0E9980201390F4
:102690004D903046FEF77CFF179843F64402C4F293
:1026A0000202116841F480711160316841F00C013F
:1026B000316042F23401C4F201010D6042F22C019A
:1026C000C4F20101086042F20801C4F20101086885
:1026D00040F001000860306840F020003060306851
:1026E00040F0800030602021C4F20201086840F40C
:1026F000E0600860086840F4E040086043F640018C
:10270000C4F20201086840F40030086044F20C4151
:10271000C4F20001086840F40050086044F2084226
:10272000C4F2000240F283601060086840F00800C4
:102730000860086840F00400086043F62851C0F6BD
:1027400000010DF581703222FDF71FFEFFF7C4FC7A
:10275000179943F68652C0F600020846FFF748FD77
:102760004FF47A70FEF7F2FEDDF83CC0109B119A30
:1027700012991398DDF850E03496359636963796D0
:10278000389639963A963B96ADF8F050ADF8F2404F
:10279000ADF8F4E0ADF8F6C0ADF8F830ADF8FA20D9
:1027A000ADF8FC10ADF8FE0034A8FFF767FA40F270
:1027B0006800C2F2000015900268436880686946AC
:1027C000086040F23910C2F20000169043F6FD5145
:1027D000C0F60001FDF7A4FD1598C26803694069C1
:1027E0006946086040F24910C2F20000199043F6B1
:1027F0000C61C0F60001FDF793FD169A1799084683
:10280000FFF7F6FC17981899199AFFF7F1FCFFE704
:1028100040F26010C2F200000068002866D1FFE7B5
:1028200030A8FFF79FFA00208DF8BF00FFE79DF862
:10283000BF000F2859DCFFE79DF8BF1030A8405CAF
:10284000C00700284AD0FFE79DF8BF00FFF708FA4D
:10285000012842DBFFE79DF8BF00FFF701FA0628D9
:102860003BDCFFE7FFF734FB9DF8BF00FFF7F8F90B
:10287000013840F26C11C2F2000108609DF8BF00FF
:10288000FFF7EEF9014640F25000C2F2000000EB03
:10289000810050F8041C40F24400C2F200000160C4
:1028A000026840F21910C2F200000C9043F61B615E
:1028B000C0F60001FDF734FD0C9A00210846FFF731
:1028C00097FC40F26011C2F2000108680130086014
:1028D0004FF4FA70FEF73AFEFFE7FFE7FFE79DF8D7
:1028E000BF0001308DF8BF00A1E791E7FFF7F0FAD4
:1028F00043F69E52C0F6000200210846FFF778FC1E
:10290000FFE740F26010C2F200000068012840F0CA
:10291000DB80FFE742F20801C4F20101086840F0E1
:1029200080400860FFE742F20000C4F20100006846
:102930008007002801D4FFE7F5E742F24C00C4F21B
:10294000010000686FF31F302E904CF2AE30C4F2DD
:1029500014002D902D9801F0E1F841EC100B9FED43
:10296000E61B53EC112B51EC100B00F0EBFE41EC8D
:10297000100B51EC100B9FEDE20B53EC102B00F001
:1029800039FE41EC100B51EC100B00F001FE01463A
:102990001A982C9190ED0D0AB8EE400A90ED0C2A91
:1029A00090ED0B1A20EE020A30EE010A80ED0A0AC1
:1029B00090ED0A0ABDEEC00A10EE102A43F63B6104
:1029C000C0F6000126A8FDF7ABFC1A9940F25C1096
:1029D000C2F2000090ED000ABDEEC00A10EE100A2F
:1029E00091ED0A0ABDEEC00A10EE101A884209D015
:1029F000FFE743F67552C0F6000200200121FFF701
:102A0000F7FBFFE700200B90012126AAFFF7F0FB60
:102A10002B9840F25C11C2F20001086030A8FFF769
:102A2000A1F90B988DF89700FFE79DF897000F2804
:102A300049DCFFE79DF8971030A8405CC007D8B389
:102A4000FFE79DF89700FFF70BF90A2833DBFFE754
:102A5000FFF73EFA1A9890ED0A0ABDEEC00A40F25E
:102A60006810C2F2000080ED000A026840F24910CE
:102A7000C2F200000A9043F63B61C0F60001FDF788
:102A80004FFC43F68F52C0F6000200210991084620
:102A9000FFF7AEFB09980A9A0121FFF7A9FB40F264
:102AA0006011C2F200010868013008604FF4FA704A
:102AB000FEF74CFDFFE7FFE7FFE79DF897000130C9
:102AC0008DF89700B1E71CE7FFF702FA43F6BA5218
:102AD000C0F6000200210846FFF78AFBFFE740F23C
:102AE0006010C2F200000068022840F0C880FFE7D2
:102AF00042F20801C4F20101086840F08040086019
:102B0000FFE742F20000C4F20100006880070028DD
:102B100001D4FFE7F5E71A9842F24C01C4F2010133
:102B200009686FF31F31249144F6CB41C3F67A61F3
:102B3000239190ED020AB9EE001A20EE010AB7EED9
:102B4000001A30EE010A80ED010A90ED030AB8EE9A
:102B5000400A90ED022A90ED011A20EE020A30EEB2
:102B6000010A80ED000A90ED000ABDEEC00A10EEE9
:102B7000102A43F64861C0F600011CA8FDF7D0FBFF
:102B80001A9940F25C10C2F2000090ED000ABDEE0E
:102B9000C00A10EE100A91ED000ABDEEC00A10EE58
:102BA000101A884209D0FFE743F67552C0F60002BA
:102BB00000200121FFF71CFBFFE700200890012106
:102BC0001CAAFFF715FB219840F25C11C2F200012C
:102BD000086030A8FFF7C6F808988DF86F00FFE787
:102BE0009DF86F000F2849DCFFE79DF86F1030A8B3
:102BF000405CC007D8B3FFE79DF86F00FFF730F8DF
:102C00000A2833DBFFE7FFF763F91A9890ED000A13
:102C1000BDEEC00A40F26410C2F2000080ED000A6E
:102C2000026840F24910C2F20000079043F6486182
:102C3000C0F60001FDF774FB43F6AB52C0F600028C
:102C4000002106910846FFF7D3FA0698079A01215A
:102C5000FFF7CEFA40F26011C2F2000108680130BD
:102C600008604FF4FA70FEF771FCFFE7FFE7FFE73B
:102C70009DF86F0001308DF86F00B1E72FE7FFF787
:102C800027F940F24400C2F20000026840F2391015
:102C9000C2F20000039043F63261C0F60001FDF776
:102CA0003FFB40F26810C2F20000026840F264107C
:102CB000C2F20000036840F24910C2F20000059021
:102CC00043F64E61C0F60001FDF72AFB039A00218E
:102CD00004910846FFF78CFA0498059A0121FFF742
:102CE00087FA40F26010C2F20000006803282DD17C
:102CF0000AE000BF00BF00BF00000000000010C0DD
:102D00000000000000407F4040F26C10C2F2000062
:102D1000026840F26810C2F20000036840F26410DA
:102D2000C2F2000000686946086043F66A51C0F6C6
:102D300000010DF581700290FDF7F2FA0298FDF79F
:102D400005FB01460298FFF7B5FBFFE7FFE740F2FE
:102D50006010C2F200000068032801D1FFE7F6E727
:102D6000002056B070BD5FEA400C08BF91F0000F24
:102D70004FEA8C234FEAC12243EA51514FEA1C50DB
:102D800018BF00F5F0404FEA300018BF41F0004195
:102D90005FEA6C5C00F02980BCF1FF3F08BF40F0A7
:102DA00080407047130C06BF12044FF0100C4FF018
:102DB000000C130E04BF12020CF1080C130F04BF19
:102DC00012010CF1040C930F04BF92000CF1020CE1
:102DD000D30F04BF52000CF1010C11464FF000025A
:102DE000A0F11F00A0EB0C00704711F0004F08BFCE
:102DF000704731F000413FF4D5AF0B0C06BF09041A
:102E00004FF0100C4FF0000C0B0E04BF09020CF138
:102E1000080C0B0F04BF09010CF1040C8B0F04BF4D
:102E200089000CF1020CCB0F04BF49000CF1010C1E
:102E3000CCF1200322FA03F341EA030102FA0CF277
:102E4000A0EB0C0000F101007047000023F07F4769
:102E500020F07F4C80EA030000F00040ACEB070359
:102E600003F57C5303F1FF032DE9804909B44FEAD0
:102E7000144324EA03484FEA154B25EA0B4E0FF2A0
:102E8000042606EB13273E7803FB0667C7F5000709
:102E900007FB06F64FEAD64606F102064FEA54371C
:102EA00007FB066CCCF1005C4FEA1C472CEA074C90
:102EB0000CFB06F507FB06F404EB15464FEA9616E5
:102EC00049085FEA320234BF00204FF000404FEA69
:102ED000D13706FB07FC4FEA1C4C0CFB0BF7D21B4F
:102EE00003FB0CF761EB07010CFB0EF7B0EB07409F
:102EF00072EB17420CFB08F734BFA2EB0742B2EBB0
:102F0000074261EB17414FEA0C444FEA910706FB79
:102F100007FC4FEA1C4C0CFB0BF7B0EBC74072EB05
:102F2000573203FB0CF734BFA2EBC742B2EBC742E8
:102F300061EB57310CFB0EF7B0EBC70072EB577229
:102F40000CFB08F734BFA2EBC702B2EBC70261EB80
:102F500057714FEA816141EA92114FEA826242EA77
:102F600090124FEA806004EBCC04039F4FEAD13704
:102F700006FB07FC4FEA1C4C0CFB0BF7D21B03FBB8
:102F80000CF761EB07010CFB0EF7B0EB074072EB9F
:102F900017420CFB08F734BFA2EB0742B2EB074223
:102FA00061EB17414FEA8C5504EB9C244FEA9107E3
:102FB00006FB07FC4FEA1C4C0CFB0BF7B0EBC740C1
:102FC00072EB573203FB0CF734BFA2EBC742B2EBF4
:102FD000C74261EB57310CFB0EF7B0EBC70072EB49
:102FE00057720CFB08F734BFA2EBC702B2EBC70263
:102FF00061EB57714FEA816141EA92114FEA8262B7
:1030000042EA90124FEA806015EB4C2544F100042F
:103010004FEAD13706FB07FC4FEA1C4C0CFB0BF7C1
:10302000D21B03FB0CF761EB07010CFB0EF7B0EBB7
:10303000074072EB17420CFB08F734BFA2EB0742C4
:10304000B2EB074261EB17414FEA813141EA92410D
:103050004FEA823242EA90424FEA80304FEA0C76E1
:1030600015EB1C1544F1000448EA03434EEA0B48F3
:103070004FF0000EB2EB080C71EB030724BF624661
:1030800039464EEB0E0E4FF0000B001852414941ED
:103090004BEB0B0BB2EB080C71EB03077BF1000B56
:1030A00024BF624639464EEB0E0E4FF0000B00185F
:1030B000524149414BEB0B0BB2EB080C71EB030790
:1030C0007BF1000B24BF624639464EEB0E0E51EAEF
:1030D000020718BF46F0010616EB0E7655F1000206
:1030E00054F1000103D5BDE88901BDE80088BDE8C1
:1030F0008901BDE80048B619524141EB0101A3F135
:103100000103704780807F7E7D7C7B7A797877763B
:1031100076757473727171706F6E6E6D6C6C6B6AB4
:103120006A69686867666665646463636261616052
:10313000605F5F5E5E5D5D5C5C5B5B5A5A595958CF
:103140005857575656555555545453535252525139
:10315000515050504F4F4F4E4E4D4D4D4C4C4C4B8F
:103160004B4B4A4A4A4949494848484747474746D6
:103170004646454545444444444343434342424212
:10318000424141419C46002B30D477002BD04FEA7E
:1031900037071CB503B44FF010004FF01001BAF11F
:1031A000000F06D0BCF1000FDCBF40F0080040F07B
:1031B00008014FF000000FBCBDE810400BF1010BFF
:1031C000BBF1010F08BF5FEA170722BF12F101022E
:1031D00011F101014FF0004143F1000300F0004004
:1031E00043EA00007047F9D35708D0E746EA06469D
:1031F0004FEA164613F1400F1FDD13F1200FDFBF1A
:1032000016430A46002120335B42BED0C3F120079B
:1032100046EA06464FEA164602FA07F746EA070666
:1032200022FA03F2C3F1200701FA07F742EA070284
:1032300021FA03F14FF00003A7E746EA020646EA47
:1032400006464FEA164646EA0106BCBF46EA06466F
:10325000360C4FF000034FF000024FF0000194E7EE
:103260002DE9804C70B49A46934691E8380007C81F
:1032700031EA400C48BF34EA430C03D5FFF7E6FDC2
:10328000FFF780FFF0BCBDE8008C2DE9804C70B4E6
:103290009A46934691E8380007C810F0804F08BF5F
:1032A00013F0804F03D100F005F8FFF76BFFF0BC7F
:1032B000BDE8008C20F07F4723F07F4C80EA0300BC
:1032C00000F0004007EB0C03A3F57C53A3F1FE03D1
:1032D00092F0000F00F0B38095F0000F00F07780BF
:1032E0002DE901494FEA114021EA00484FEA14460E
:1032F00024EA064700FB06FC08FB06F607FB08F875
:1033000018EB06484CEB164C00FB07F718EB074888
:103310004CEB17404FEA124B22EA0B4E4FEA154690
:1033200025EA06470BFB06FC0EFB06F607FB0EFE26
:103330001EEB064E4CEB164C0BFB07F71EEB074E35
:103340004CEB174B18EB0B0840F1000018EB0E0B81
:1033500058EB000840F100008F1A4FF000014FF0C9
:1033600000063CBFC943661B14BFB5EB040C00212B
:103370003CBFC943F61B4FEA174427EA04454FEA0E
:103380001C472CEA074C04FB076205FB07F70CFB04
:1033900005F616EB074642EB174204FB0CFC16EB56
:1033A0000C4642EB1C421BEB060658EB0202414165
:1033B0004EEA8E0E46EA9E0601D5BDE80189B61991
:1033C000524141EB0101A3F10103BDE801894FEA3C
:1033D000144524EA05464FEA114721EA074C05FB4C
:1033E00007F406FB07F70CFB06F111EB074144EB72
:1033F000174405FB0CFC11EB0C4144EB1C444FEA59
:10340000124722EA074C05FB07F206FB07F70CFB05
:1034100006F616EB074642EB174205FB0CFC16EBD3
:103420000C4642EB1C456A1854F1000148BF704736
:10343000B619524141EB0101A3F10103704795F028
:10344000000F37D04FEA114221EA02464FEA1447F3
:1034500024EA074C02FB07F106FB07F70CFB06F416
:1034600014EB074441EB174102FB0CFC14EB0C443A
:1034700041EB1C414FEA154725EA074C02FB07F5D3
:1034800006FB07F70CFB06F616EB074645EB174560
:1034900002FB0CFC16EB0C4645EB1C42121951F1D9
:1034A000000148BF7047B619524141EB0101A3F139
:1034B000010370474FEA144524EA05464FEA1147D5
:1034C00021EA074C05FB07F106FB07F70CFB06F2A8
:1034D00012EB074241EB174105FB0CFC12EB0C42CF
:1034E00051EB1C414FF0000648BF7047921841EB6A
:1034F0000101A3F10103704703B401984100009852
:1035000050EAC12018BF04204A0D18BF40F0010046
:1035100040F2FF72B2EB515F08BF40F00200012899
:1035200008BF052002B0704730380A2801D20120B8
:10353000704700207047000010B500290AD00878B5
:10354000002807D005487844FDF7BAFF002801D0CD
:10355000002010BD0248784410BD0000360900006C
:103560002E09000010B500290AD00878002807D0DD
:1035700005487844FDF7A4FF002801D0002010BDC5
:103580000248784410BD0000260900001E09000012
:1035900021F0004201F00043A2F16052B2F5801F19
:1035A00028BFD2F17F6C0BD95FEA001C43EAC2024C
:1035B00042EB507018BF704728BF20F001007047E1
:1035C000B2F5801FBCBF184670474FEA410C1CF58E
:1035D000001F02D2084600F01FBB70B500F05CF976
:1035E00000000089FFF7F6BF4FF00040A0F5800013
:1035F0007047000010B591EA030F48BF83F0004305
:1036000000F1A681841A71EB030C05D2121943EB69
:103610000C03001B61EB0C014FEA1154A4EB135C8B
:10362000DFF81CE11EEA430F18BF9EEA445F00F07A
:10363000748021EA045123EA0E0343F48013DCF181
:10364000200E32D322FA0CFE10EB0E0023FA0CFEF1
:1036500041EB0E01CCF1200E03FA0EFE10EB0E0032
:10366000CCF1200E51F10001B1F5801F32D201EBF7
:10367000045112FA0EF2BDE8104058BF7047401CCA
:1036800038BF5FEA420218BF7047002814BF20F01D
:10369000010041F100014FEA410313F5001F38BF5B
:1036A0007047A1F1C04100F045B9012A43EB030284
:1036B000ACF1200CDCF11F0E32BF4FF0000E23FAEC
:1036C0000CF310EB030041EB0451B4EB115FD0D0CD
:1036D000A1EB045101F58011490801EB04515FEAA7
:1036E00030000ED350F1000038BF12FA0EFE08D1A0
:1036F000BDE81040C9E7401C38BF5FEA4202CAD1AA
:10370000C3E7BDE810404FEA410313F5001F38BF7F
:103710007047A1F1C04100F00DB99EEA445F08D0A6
:1037200011EA5E0FBDE8104004BF01F00041002027
:103730007047BDE8104070B500F0AEF864FBBE3EC7
:103740000000E0FF70B5DFF848C11CEA111E1EBF83
:103750001CEA13159EEA0C0F95EA0C0F00F06F801F
:1037600081EA03044EEAD47EAE4421EA4C1123EAF6
:103770004C1341F4801143F48013AEF17F7EA1FB22
:10378000024CA0FB0365361955EB0C05A1FB034C5D
:103790004CF10003A0FB021C16EB0C06654153F133
:1037A0000003094218BF46F0010613F4007F0BD155
:1037B0004FEA03314FEA053041EA155140EA16500D
:1037C00034036FF003020AE04FEAC3214FEAC52039
:1037D00041EA555140EA5650F4026FF0020202EB02
:1037E0002E4201EB025585EACE710AD05FEA440C05
:1037F00018BF24F0004450F1000041F1000120EA1C
:10380000D47040F2FE7C624500D270BDA84214BF65
:103810004FF080444FF04044002E08BF0024BEF11A
:10382000806FA8BFA1F1C041BDE8704080F28280E6
:1038300001F1C04101F000414FF0000070470CEA77
:1038400013159EEA0C0F18BF95EA0C0F06D081EAFB
:10385000030E4FF000000EF0004170BD00F01CF8A8
:103860008900013E00F007B800F009B84FEA430CA8
:103870005FEA5C5C08D081EA030100F05BB84FEAC4
:10388000410C5FEA5C5CF6D102494FF000007047E2
:103890000000FF070000F87F0EF1020E2EF0030E6D
:1038A0005EF8046B364205D4012A43EB030515F597
:1038B000001F12D8012841EB010C1CF5001F0CD889
:1038C0000ED14FEAD17C0CEB4C0C0CF1020C15F52F
:1038D000001F08BF4CEBD37C04E04FF0080C01E064
:1038E0004FEAD37C0CEB4C0526FA05F606F00706EA
:1038F000B6F1040C06D20EEB860CBDE870404CF01D
:10390000010C6047DFE80CF0090B02024FF00041A8
:10391000A1F500214FF0000070BD194610460128A6
:1039200051EB010418BFD4F5001484BF002001F04E
:10393000004170BD0808A0F500114FEA3101704741
:1039400010B591EA030F48BF83F000433FF55AAE2C
:10395000841A71EB030C07D28CF0004C121943EB64
:103960000C03001B61EB0C014FEA1154A4EB135C38
:10397000DFF8A4E11EEA430F18BF9EEA445F00F09F
:10398000B48021EA045123EA6E035242C3EB6E0372
:1039900038BF5B1EDCF1200E25D322FA0CFE10EBA3
:1039A0000E0043FA0CFE41EB0E01CCF1200E03FA9F
:1039B0000EFE10EB0E00CCF1200E51F1000129D4C7
:1039C00001EB045112FA0EF2BDE8104058BF7047E7
:1039D000401C1CBFB2F1004F704700280CBF491CAF
:1039E00020F00100704712EB020E43EB030218BFF8
:1039F0004FF0010E4EEA4202ACF1200CDCF11E0E3B
:103A000056D943FA0CFE10EB0E00CCF11E0E51F10C
:103A1000FF31D5D50EF1010E12FA0EFE404141EBF9
:103A2000010101EB445C5FEA5C5C10D901EB0451DD
:103A300010EBDE7038BFBEF1004FBDE8104018BF7C
:103A4000704700280CBF491C20F00100704734D299
:103A50004FEAD42C24F4006411F500111BD0B1FA04
:103A600081F20B3AA41AA41ED2F12003914030FA3D
:103A700003F31943904001EBCC7101EB0451002C8E
:103A8000BDE81040A8BF704701F1C04101F00041FE
:103A90004FF000007047B0FA80F310FA03F102D142
:103AA000BDE810407047E41A173C4805C90AE2E730
:103AB00001EB0451BDE81040704749104FEA300057
:103AC00001EB0451BDE8104002E04FF000017047E7
:103AD0004A0008BF0042F8D0B2F5001F28BF704767
:103AE00001F000414FF0000070479EEA445F07D0AC
:103AF00011EA5E0FBDE8104004BF002100207047AE
:103B0000BDE8104070B5FFF7C7FE00BF40DFF63ECE
:103B1000104683F0004170470000E0FF43004FEA89
:103B2000D30C4FEA3C0C43401FBF40070CF16051DF
:103B300013F0FE4F70471CF0006F03D10CF00041F2
:103B4000002070470CF0004343EA507040EACC007C
:103B500010B500F00EF800BF000000924FEA00011F
:103B6000FFF7E8BE4FF00041A1F500214FF0000043
:103B700070470EF1020E2EF0030E5EF8044B244245
:103B800004D44FEA4102B2F17F4F11D84FEA40030B
:103B9000B3F17F4F0CD80ED14FEAD07C0CEB4C0C1C
:103BA0000CF1020CB2F17F4F08BF4CEBD17C04E06A
:103BB0004FF0080C01E04FEAD17C0CEB4C0324FAE7
:103BC00003F404F00704B4F1040C06D20EEB840CE9
:103BD000BDE810404CF0010C6047DFE80CF007082E
:103BE00002024FF00040A0F5800010BD08464200E0
:103BF00018BFD2F1807288BF00F0004010BDF1EE16
:103C0000100A4FF6FF71C0F2C03120EA010040F007
:103C10004070E1EE100A7047FF2141EAD050C00524
:103C20007047FDF755B8FDF789B9000000000000A6
:103C300000000000303132333435363738394142F4
:103C400043444546403058003031323334353637FE
:103C500038396162636465664030780004000008AA
:103C600000000000000000020001000010303132AE
:103C7000333435363738396162636465667870008D
:103C80003031323334353637383941424344454692
:103C90005850000002400000000000A0000000009A
:103CA00005400000000000C8000000000C400000BB
:103CB0000000409C00000000194000000020BCBE35
:103CC0000000000034400000BFC91B8E000000044B
:103CD000B5400000504BCFD06607E2CF0100000096
:103CE0006C4100003E8251AADFEEA73401000000C3
:103CF000D9420000DCB5A0E23A301F97FFFFFFFF7A
:103D0000B4450000FD25A0C8E9A3C14FFFFFFFFF98
:103D1000FF3F00000000008000000000FF3F0000A7
:103D20000000008000000000546573740D0A090053
:103D30000000000000000000000000000000000083
:103D40000000000000000000000000000000000073
:103D50000000000000000000000000000000000063
:103D600000000102030406070809256420256420D9
:103D700025640D0A00202020202020202020202043
:103D8000202020202000393832343231323800539C
:103D9000656C65637465642054696D653A005365AC
:103DA0006C6563742054696D653A0053656C656396
:103DB00074656420467265713A0053656C6563747E
:103DC00020467265713A00547269616E676C6500D5
:103DD00053717561726500536177546F6F74680039
:103DE000747269004162736F6C7574652053696EFB
:103DF0000073696E00537465700073710031202583
:103E0000732032202573203320257300342025733E
:103E1000203520257320362025730053656C65639B
:103E2000746564207761766520666F726D3A20252F
:103E30007300573A257300616273002564206D7327
:103E40000073740073617700256420487A00543A47
:103E500025646D732C463A2564487A00A83F000813
:103E60000000002080000000D00100082840000869
:103E700080000020F8060000EC0100081C00000093
:103E800043000000F8FFFFFF0C0000000E000000E0
:103E90000F0000002E000000100100004300000091
:103EA000F8FFFFFF0040404040404040404041415B
:103EB00041414140404040404040404040404040FF
:103EC0004040404040050202020202020202020299
:103ED0000202020202202020202020202020200296
:103EE0000202020202029090909090901010101026
:103EF00010101010101010101010101010101010C2
:103F00000202020202028888888888880808080855
:103F10000808080808080808080808080808080821
:103F20000202020240000000000000000000000049
:103F30000000000000000000000000000000000081
:103F40000000000000000000000000000000000071
:103F50000000000000000000000000000000000061
:103F60000000000000000000000000000000000051
:103F70000000000000000000000000000000000041
:103F80000000000000000000000000000000000031
:103F90000000000000000000000000000000000021
:103FA00000000000000000000024F40007000000F2
:103FB00008000000090000000A00000004000000E2
:103FC00005000000060000000B00000001000000DA
:103FD00002000000030000000C0000000F000000C1
:103FE000000000000E0000000D000000ED3D000884
:103FF0000100000010000000ED3D0008D03D000869
:10400000C73D0008E43D0008F53D0008D73D000825
:10401000F13D0008FA3D0008E03D0008373E000889
:08402000413E0008443E000887
:040000050800019559
:00000001FF
