:020000040800F2
:1000000020090020550200085D0200085F02000878
:100010006102000863020008650200080000000099
:10002000000000000000000000000000670200085F
:1000300069020008000000006B020008B50D00080E
:100040006F0200086F0200086F0200086F020008CC
:100050006F0200086F0200086F0200086F020008BC
:100060006F0200086F0200086F0200086F020008AC
:100070006F0200086F0200086F0200086F0200089C
:100080006F0200086F0200086F0200080000000005
:100090000000000000000000000000006F020008E7
:1000A0006F0200086F0200086F0200086F0200086C
:1000B000010F00086F0200086F0200086F020008BD
:1000C0006F0200086F0200086F0200086F0200084C
:1000D0006F0200086F0200086F02000800000000B5
:1000E0006F0200086F0200086F02000800000000A5
:1000F0000000000000000000000000006F02000887
:10010000000000006F0200080D1000086F020008D8
:1001100000000000000000000000000000000000DF
:100120006F0200086F0200086F0200086F020008EB
:100130006F02000800000000000000000000000046
:100140000000000000000000000000006F02000836
:100150006F0200086F0200086F0200086F020008BB
:100160006F0200086F02000800000000000000009D
:10017000000000000000000000000000000000007F
:10018000000000006F0200080000000000000000F6
:100190006F02000800F002F800F04CF80AA090E8A6
:1001A000000C82448344AAF10107DA4501D100F032
:1001B00041F8AFF2090EBAE80F0013F0010F18BFB3
:1001C000FB1A43F001031847B83F0000D83F000076
:1001D0000A4410F8014B14F00F0508BF10F8015B3A
:1001E000240908BF10F8014B6D1E05D010F8013B23
:1001F0006D1E01F8013BF9D1641E03D0641E01F8A5
:10020000015BFBD19142E4D370470000002300243E
:1002100000250026103A28BF78C1FBD8520728BF16
:1002200030C148BF0B6070471FB503F0D1FE1FBD42
:1002300010B510BD00F0ACF81146FFF7F5FF01F066
:100240007BFC00F0CAF803B4FFF7F2FF03BC00F038
:10025000CDF800000948804709480047FEE7FEE75F
:10026000FEE7FEE7FEE7FEE7FEE7FEE7FEE7FEE766
:1002700004480549054A064B70470000ED0E00088A
:1002800095010008200300202009002020050020FF
:100290002005002010B5431C02E010F8011B71B1CD
:1002A0008107FAD14FF0013202C88C1A8C4314EA4C
:1002B000C211F9D0C01A0A0603D0C01E10BDC01A60
:1002C00010BD0A0401D0801E10BD0902FCD0401EE2
:1002D00010BD4FF000020429C0F0128010F0030C92
:1002E00000F02980CCF1040CBCF1020F18BF00F81B
:1002F000012BA8BF20F8022BA1EB0C0100F01BB8CA
:100300005FEAC17C24BF00F8012B00F8012B48BF35
:1003100000F8012B704770477047704710B500F028
:100320002FF8006810BD10B5044600F029F80460ED
:1003300010BD4FF0000200B5134694469646203992
:1003400022BFA0E80C50A0E80C50B1F12001BFF48E
:10035000F7AF090728BFA0E80C5048BF0CC05DF8F4
:1003600004EB890028BF40F8042B08BF704748BF42
:1003700020F8022B11F0804F18BF00F8012B7047B6
:1003800000487047A802002000487047A8020020DB
:100390007546FFF7F9FFAE4605006946534620F063
:1003A0000700854618B020B5FFF762FFBDE8204082
:1003B0004FF000064FF000074FF000084FF0000B21
:1003C000AC46ACE8C009ACE8C009ACE8C009ACE890
:1003D000C00921F007018D46704710B50446AFF300
:1003E00000802046BDE81040FFF72DBF01491820CE
:1003F000ABBEFEE7260002007047000080B584B067
:10040000039000F0FBF902900398019001980130ED
:1004100048B1FFE740F2A020C2F200000178019845
:1004200008440190FFE7FFE700F0E8F90299401A5D
:100430000199884201D2FFE7F6E704B080BD0000D1
:100440008BB00A90099100200790069005900890C3
:10045000FFE708980F2800F2A281FFE70899012022
:100460008840079009980068079908400690069808
:100470000799884240F08E81FFE70998406800F0B4
:100480000300012807D0FFE70998406800F0030047
:1004900002282FD1FFE70A9880680590089841004C
:1004A000032000FA01F10598884305900998C06877
:1004B0000899490000FA01F105980843059005984C
:1004C0000A9988600A98406805900899012000FA06
:1004D00001F105988843059009984068C0F3001021
:1004E000089900FA01F105980843059005980A99C2
:1004F0004860FFE70998406800F00300032818D01F
:10050000FFE70A98C068059008984100032000FAA8
:1005100001F1059888430590099880680899490079
:1005200000FA01F105980843059005980A99C860FA
:10053000FFE70998406800F00300022826D1FFE792
:100540000A9808996FF0030202EA51010844006A10
:100550000590089800F0070081000F2000FA01F1D3
:1005600005988843059009980069089901F00701EA
:10057000890000FA01F105980843059005980A9949
:10058000089B02EA530211440862FFE70A980068D8
:10059000059008984100032000FA01F1059888436E
:1005A00005900998406800F003000899490000FA96
:1005B00001F105980843059005980A990860099883
:1005C00080798007002800F0E480FFE7FFE7002043
:1005D000049043F64400C4F20200016841F48041F3
:1005E0000160006800F4804004900498FFE70898D8
:1005F00020F0030043F60801C4F2010140580590C1
:10060000089800F0030081000F2000FA01F105981E
:10061000884305900A980021C4F20201884203D160
:10062000FFE70020039034E00A9840F20041C4F252
:100630000201884203D1FFE70120029026E00A98D8
:1006400040F60001C4F20201884203D1FFE7022014
:10065000019018E00A9840F60041C4F20201884275
:1006600003D1FFE7032000900AE00A9941F200025B
:10067000C4F202020720914208BF04200090FFE765
:1006800000980190FFE701980290FFE7029803901D
:10069000FFE70398C0B2089901F00301890000FA4E
:1006A00001F10598084305900598089921F0030188
:1006B00043F60802C4F20102885043F60840C4F22F
:1006C00001000068059006990598884305900998EF
:1006D0008079C006002805D5FFE7069905980843EC
:1006E0000590FFE7059843F60841C4F20101086050
:1006F00043F60C40C4F20100006805900699059885
:1007000088430590099880798006002805D5FFE781
:100710000699059808430590FFE7059843F60C41B4
:10072000C4F20101086043F60440C4F2010000680D
:100730000590069905988843059009988079800767
:10074000002805D5FFE70699059808430590FFE7BF
:10075000059843F60441C4F20101086043F60040E5
:10076000C4F2010000680590069905988843059039
:1007700009988079C00728B1FFE7069905980843D2
:100780000590FFE7059843F60041C4F201010860B7
:10079000FFE7FFE7FFE708980130089059E60BB044
:1007A0007047000083B00290ADF8061002984069CF
:1007B0000090009ABDF8060002EA0001904340EA6A
:1007C00001400299886103B07047000082B0019037
:1007D000ADF802108DF801209DF8010028B1FFE767
:1007E000BDF802000199886105E0BDF8020000042F
:1007F00001998861FFE702B07047000040F21C30A9
:10080000C2F200000068704740F2A020C2F200006F
:10081000027840F21C31C2F20001086810440860FE
:100820007047000080B543F60041C4F20201086839
:1008300040F400700860086840F48060086003209D
:1008400000F05CF80F2000F005F800F03BF8002005
:1008500080BD000080B582B0009040F20000C2F27E
:100860000000006840F2A021C2F200010A784FF4B3
:100870007A71B1FBF2F1B0FBF1F000F047F820B172
:10088000FFE701208DF8070018E000980F280DD829
:10089000FFE700994FF0FF30002200F015F80098B4
:1008A00040F2A421C2F20001086003E001208DF8AB
:1008B000070003E000208DF80700FFE79DF8070020
:1008C00002B080BD7047000080B586B08DF817007B
:1008D000049103920020029000F004FC02909DF924
:1008E0001700019002980499039A00F003FA014658
:1008F000019800F0FFFB06B080BD000080B582B01B
:100900000190019800F018FC02B080BD80B582B063
:100910000190019800F024FA02B080BD80B501205A
:1009200000F004F8052000F0A5F880BD80B582B085
:100930008DF807000020C4F202004FF4007100227D
:10094000FFF744FF9DF80700000900F009F89DF843
:10095000070000F00F0000F003F802B080BD0000B7
:1009600080B586B08DF817009DF8170000F00802DA
:100970000020C4F202004FF48071FFF727FF9DF8BA
:10098000170000F0040240F20040C4F2020001909F
:100990004FF48061FFF71AFF01989DF8171001F0DE
:1009A00002021021FFF712FF01989DF8171001F0C5
:1009B00001022021FFF70AFF40F60000C4F2020006
:1009C0000290802103910122FFF700FF3220049062
:1009D00000F05AF8029803990022FFF7F7FE0498F6
:1009E00000F052F806B080BD80B582B08DF80700E7
:1009F0008DF8061044F20000C5F2144000909DF8F6
:100A00000600022804DBFFE700208DF80600FFE760
:100A10009DF8070040F20831C2F20001C8709DF84D
:100A2000060008719DF807009DF806206946895C5C
:100A3000084440F08000C0B2FFF778FF02B080BDEC
:100A400080B582B08DF807000020C4F202004FF498
:100A500000710122FFF7BAFE9DF807000009FFF7B9
:100A60007FFF9DF8070000F00F00FFF779FF02B04D
:100A700080BD000080B582B08DF807009DF80700AA
:100A8000FFF7BCFC02B080BD80B584B0ADF80E00AD
:100A90004EF21400CEF200000068013044F6D3514B
:100AA000C1F26201A0FB011080090290FFF7A6FECF
:100AB0004FF47A7148434EF21801CEF200010968F2
:100AC000029AB1FBF2F1401A00F57A700190FFE74B
:100AD000FFF794FE4FF47A7148434EF21801CEF2BC
:100AE00000010968029AB1FBF2F1401A0199401A1B
:100AF00000F57A70BDF80E10884201D2FFE7E7E7F3
:100B000004B080BD80B540F20830C2F20000017828
:100B100041F004010170007840F00800FFF706FF83
:100B200080BD000080B58CB00120089002200A90A2
:100B3000002009904FF4007007900020C4F20200DA
:100B4000059007A90691FFF77BFC06998020079086
:100B500040F60000C4F20200FFF772FC0598069907
:100B600008220792FFF76CFC06992020079040F2BC
:100B70000040C4F202000490FFF762FC049806995A
:100B800010220792FFF75CFC049806994FF48062EC
:100B90000792FFF755FC059806994FF4807207926B
:100BA000FFF74EFCFFE7FFF729FEC72804D8FFE751
:100BB0000120FFF75FFFF6E740F20831C2F20001C3
:100BC00002910020C87008714870487840F0080011
:100BD000487003200090FFF7C3FE05200390FFF745
:100BE00049FF0098FFF7BCFE0398FFF743FF00980A
:100BF000FFF7B6FE0398FFF73DFF02200190FFF7D5
:100C0000AFFE0398FFF736FF0298407840F02000CF
:100C1000FFF78CFE029904200870FFF773FFFFF7BF
:100C20007DFE019902988170807840F00400FFF702
:100C30007DFE0398FFF71EFF0CB080BD80B582B02B
:100C40008DF807008DF8061000929DF807009DF8BA
:100C50000610FFF7C9FEFFE700980078002846D08D
:100C6000FFE740F20830C2F20000C07810280EDB27
:100C7000FFE740F20831C2F200010020C870087995
:100C800001300871C8780979FFF7AEFEFFE70098D8
:100C900000780A280CD1FFE740F20831C2F20001C7
:100CA000087901300871C8780979FFF79DFE1AE0CC
:100CB000009800780D2809D1FFE740F20830C2F211
:100CC000000001790020FFF78FFE0BE0009800780C
:100CD000FFF7B6FE40F20831C2F20001C8780130D9
:100CE000C870FFE7FFE7009801300090B4E702B05A
:100CF00080BD000088B0079006910592079800F02B
:100D0000070004900498C0F10700052803D3FFE70B
:100D10000420019004E00498C0F107000190FFE76F
:100D20000198039004980430062803D8FFE70020B8
:100D3000009003E0049803380090FFE700980290C9
:100D400006980399012202FA01F101390840029B39
:100D5000984005999A40013A1140084308B07047FD
:100D600080B582B0009000980138B0F1807F03D345
:100D7000FFE70120019019E0009801384EF21401BC
:100D8000CEF2000108604FF0FF300F2100F0B2F901
:100D90004EF21801CEF20001002008604EF210025F
:100DA000CEF20002072111600190FFE7019802B026
:100DB00080BD000080B5FFF727FD80BD86B0002113
:100DC00005910491022003900291019043F60800DE
:100DD000C4F20200006800F00C0005900598009035
:100DE00040B1FFE7009804280ED0FFE700980828DC
:100DF00014D059E040F20001C2F2000142F200407A
:100E0000C0F2F400086059E040F20001C2F20001B3
:100E100047F64000C0F27D1008604FE043F6040042
:100E2000C4F202000168C1F380510291006800F031
:100E30003F000190029888B1FFE7019947F6400012
:100E4000C0F27D10B0FBF1F043F60401C4F20201E0
:100E50000968C1F388114843049010E0019942F2F7
:100E60000040C0F2F400B0FBF1F043F60401C4F21C
:100E700002010968C1F3881148430490FFE743F673
:100E80000400C4F20200006800F44031022000EBCC
:100E9000D130039004980399B0FBF1F040F20001C7
:100EA000C2F20001086009E040F20001C2F2000154
:100EB00042F20040C0F2F4000860FFE743F6080089
:100EC000C4F202000068C0B2010944F27010C0F61A
:100ED0000000405C0590059A40F20001C2F200015A
:100EE0000868D040086006B0704700004EF6885190
:100EF000CEF20001086840F47000086070470000FE
:100F000080B582B01020C4F200000068C00778B13C
:100F1000FFE740F21431C2F20001086801300860B6
:100F20001021C4F20001086820F001000860FFE70A
:100F300040F21430C2F20000006840F20401C2F234
:100F4000000109682422C4F20002126800FB01209B
:100F5000019040F29C20C2F20000006800909FEDDA
:100F6000100B9FED111B01F0AFFA51EC100B02F0CA
:100F70004DFC009902460198514388420BD3FFE78C
:100F80004FF080410020086040F21831C2F20001A9
:100F900001200870FFE702B080BD00BF00BF00BFA6
:100FA0000000000000002440000000000000084095
:100FB00081B0009040F62441C4F200010020086096
:100FC00040F60041C4F2000101200860FFE740F252
:100FD0001030C2F20000006840F20401C2F20001C9
:100FE000096840F62442C4F20002126800FB0120A6
:100FF0000099884201D8FFE7E9E740F60041C4F2D2
:1010000000010020086001B07047000040F6104069
:10101000C4F200000068C00780B1FFE740F2103161
:10102000C2F2000108680130086040F61041C4F2C5
:101030000001086820F001000860FFE77047000029
:1010400080B584B00390029144F20041C4F20001E3
:101050000868039A302010700A68039A50700A6872
:10106000039A907009680399C87003980021009151
:101070000171039A0846FFF7E1FD00980190FFE730
:1010800001980299884213D2FFE744F20440C4F267
:10109000000000680399019A885403980199405C04
:1010A00008B9FFE704E0FFE7019801300190E7E7A6
:1010B00004B080BD81B08DF803009DF903000028C5
:1010C0000ED4FFE79DF9031001F01F0201209040AC
:1010D0004A094EF20011CEF2000141F82200FFE76A
:1010E00001B070474EF60C50CEF200000068C0F31D
:1010F0000220704782B08DF8070000919DF907002B
:1011000000280AD4FFE7009800019DF907104EF26D
:101110000042CEF2000288540BE0009800019DF8D6
:10112000071001F00F014EF61452CEF2000288545F
:10113000FFE702B07047000083B00290029800F011
:10114000070000904EF60C51CEF2000108680190A5
:1011500001984FF6FF02104001900198009A40EA72
:1011600002200022C0F2FA52104301900198086058
:1011700003B070470000000083B080B5DDB061931C
:1011800060925F915FA954915C900F205B905C9896
:1011900055905B98013002F068FB41EC110B9FED1C
:1011A000E00B8DED560B01F08FF951EC100B02F0B6
:1011B0002DFB559A014692FBF1F000FB112002F045
:1011C00054FB41EC100B8DED580B5B9802F04DFB7E
:1011D0009DED560B41EC110B01F076F99DED581B7E
:1011E00051EC110B53EC102B02F0DAFD41EC100B1B
:1011F00051EC100B9FEDCC0B53EC102B02F0DAFEF0
:1012000040B9FFE75499C86BB1F85E100122FFF7AF
:10121000DDFA07E05499C86BB1F85E100022FFF7C1
:10122000D5FAFFE75B9801385B905C984F905B982C
:10123000013002F01AFB41EC110B9FEDB90B8DED63
:10124000500B01F041F951EC100B02F0DFFA4F9A0C
:10125000014692FBF1F000FB112002F006FB41EC8D
:10126000100B8DED520B5B9802F0FFFA9DED500BC9
:1012700041EC110B01F028F99DED521B51EC110BC3
:1012800053EC102B02F08CFD41EC100B51EC100BC9
:101290009FEDA50B53EC102B02F08CFE40B9FFE73D
:1012A0005499886BB1F85C100122FFF78FFA07E0C0
:1012B0005499886BB1F85C100022FFF787FAFFE7BA
:1012C0005B9801385B905C9849905B98013002F024
:1012D000CCFA41EC110B9FED920B8DED4A0B01F016
:1012E000F3F851EC100B02F091FA499A014692FB87
:1012F000F1F000FB112002F0B8FA41EC100B8DED7B
:101300004C0B5B9802F0B1FA9DED4A0B41EC110BCE
:1013100001F0DAF89DED4C1B51EC110B53EC102B46
:1013200002F03EFD41EC100B51EC100B9FED7E0BDB
:1013300053EC102B02F03EFE40B9FFE75499486B86
:10134000B1F85A100122FFF741FA07E05499486BAF
:10135000B1F85A100022FFF739FAFFE75B9801381D
:101360005B905C9843905B98013002F07EFA41EC10
:10137000110B9FED6B0B8DED440B01F0A5F851ECBB
:10138000100B02F043FA439A014692FBF1F000FB86
:10139000112002F06AFA41EC100B8DED460B5B98C0
:1013A00002F063FA9DED440B41EC110B01F08CF857
:1013B0009DED461B51EC110B53EC102B02F0F0FC91
:1013C00041EC100B51EC100B9FED570B53EC102B15
:1013D00002F0F0FD40B9FFE75499086BB1F85810DE
:1013E0000122FFF7F3F907E05499086BB1F85810A0
:1013F0000022FFF7EBF9FFE75B9801385B905C9800
:101400003D905B98013002F030FA41EC110B9FEDFA
:10141000440B8DED3E0B01F057F851EC100B02F030
:10142000F5F93D9A014692FBF1F000FB112002F024
:101430001CFA41EC100B8DED400B5B9802F015FA95
:101440009DED3E0B41EC110B01F03EF89DED401B74
:1014500051EC110B53EC102B02F0A2FC41EC100BE1
:1014600051EC100B9FED300B53EC102B02F0A2FD52
:1014700040B9FFE75499C86AB1F856100122FFF746
:10148000A5F907E05499C86AB1F856100022FFF791
:101490009DF9FFE75B9801385B905C9837905B980B
:1014A000013002F0E2F941EC110B9FED1D0B8DEDC7
:1014B000380B01F009F851EC100B02F0A7F9379A3C
:1014C000014692FBF1F000FB112002F0CEF941EC55
:1014D000100B8DED3A0B5B9802F0C7F99DED380BC0
:1014E00041EC110B00F0F0FF9DED3A1B51EC110B9C
:1014F00053EC102B02F054FC41EC100B51EC100B90
:101500009FED090B53EC102B02F054FD80B9FFE75F
:101510005499886AB1F854100122FFF757F90FE087
:10152000000000000000004000000000000000007B
:101530005499886AB1F854100022FFF747F9FFE781
:101540005B9801385B905C9831905B98013002F0B9
:101550008CF941EC110B1FED0E0B8DED320B00F0F1
:10156000B3FF51EC100B02F051F9319A014692FB96
:10157000F1F000FB112002F078F941EC100B8DED39
:10158000340B5B9802F071F99DED320B41EC110BBD
:1015900000F09AFF9DED341B51EC110B53EC102B16
:1015A00002F0FEFB41EC100B51EC100B1FED220B77
:1015B00053EC102B02F0FEFC40B9FFE75499486A47
:1015C000B1F852100122FFF701F907E05499486A77
:1015D000B1F852100022FFF7F9F8FFE75B980138E5
:1015E0005B905C982B905B98013002F03EF941ECE7
:1015F000110B1FED350B8DED2C0B00F065FF51EC41
:10160000100B02F003F92B9A014692FBF1F000FB5C
:10161000112002F02AF941EC100B8DED2E0B5B9896
:1016200002F023F99DED2C0B41EC110B00F04CFF67
:101630009DED2E1B51EC110B53EC102B02F0B0FB67
:1016400041EC100B51EC100B1FED490B53EC102B20
:1016500002F0B0FC40B9FFE75499086AB1F85010A5
:101660000122FFF7B3F807E05499086AB1F8501067
:101670000022FFF7ABF8FFE75B9801385B905C98BE
:1016800025905B98013002F0F0F841EC110B1FED52
:101690005C0B8DED260B00F017FF51EC100B02F0E8
:1016A000B5F8259A014692FBF1F000FB112002F0FB
:1016B000DCF841EC100B8DED280B5B9802F0D5F8AF
:1016C0009DED260B41EC110B00F0FEFE9DED281B5D
:1016D00051EC110B53EC102B02F062FB41EC100BA0
:1016E00051EC100B1FED700B53EC102B02F062FC51
:1016F00040B9FFE75499C869B1F84E100122FFF7CD
:1017000065F807E05499C869B1F84E100022FFF758
:101710005DF8FFE75B9801385B905C981F905B98E1
:10172000013002F0A2F841EC110B1FED830B8DED9F
:10173000200B00F0C9FE51EC100B02F067F81F9A65
:10174000014692FBF1F000FB112002F08EF841EC13
:10175000100B8DED220B5B9802F087F89DED200BAE
:1017600041EC110B00F0B0FE9DED221B51EC110B72
:1017700053EC102B02F014FB41EC100B51EC100B4E
:101780009FEDEB0B53EC102B02F014FC40B9FFE77C
:1017900054998869B1F84C100122FFF717F807E057
:1017A00054998869B1F84C100022FFF70FF8FFE751
:1017B0005B9801385B905C9819905B98013002F05F
:1017C00054F841EC110B9FEDD80B8DED1A0B00F086
:1017D0007BFE51EC100B02F019F8199A014692FBAE
:1017E000F1F000FB112002F040F841EC100B8DED00
:1017F0001C0B5B9802F039F89DED1A0B41EC110BB4
:1018000000F062FE9DED1C1B51EC110B53EC102BF4
:1018100002F0C6FA41EC100B51EC100B9FEDC40B1B
:1018200053EC102B02F0C6FB40B9FFE7549948690E
:10183000B1F84A100122FEF7C9FF07E05499486940
:10184000B1F84A100022FEF7C1FFFFE75B980138AC
:101850005B905C9813905B98013002F006F841ECC5
:10186000110B9FEDB10B8DED140B00F02DFE51EC23
:10187000100B01F0CBFF139A014692FBF1F000FB35
:10188000112001F0F2FF41EC100B8DED160B5B986F
:1018900001F0EBFF9DED140B41EC110B00F014FE79
:1018A0009DED161B51EC110B53EC102B02F078FA46
:1018B00041EC100B51EC100B9FED9D0B53EC102BDA
:1018C00002F078FB40B9FFE754990869B1F8481075
:1018D0000122FEF77BFF07E054990869B1F8481030
:1018E0000022FEF773FFFFE75B9801385B905C987E
:1018F0000D905B98013001F0B8FF41EC110B9FEDAA
:101900008A0B8DED0E0B00F0DFFD51EC100B01F09A
:101910007DFF0D9A014692FBF1F000FB112001F0D2
:10192000A4FF41EC100B8DED100B5B9801F09DFFB7
:101930009DED0E0B41EC110B00F0C6FD9DED101B53
:1019400051EC110B53EC102B02F02AFA41EC100B66
:1019500051EC100B9FED760B53EC102B02F02AFB91
:1019600040B9FFE75499C868B1F846100122FEF764
:101970002DFF07E05499C868B1F846100022FEF721
:1019800025FFFFE75B9801385B905C9807905B98B8
:10199000013001F06AFF41EC110B9FED630B8DEDFF
:1019A000080B00F091FD51EC100B01F02FFF079A8E
:1019B000014692FBF1F000FB112001F056FF41ECD3
:1019C000100B8DED0A0B5B9801F04FFF9DED080B9E
:1019D00041EC110B00F078FD9DED0A1B51EC110B51
:1019E00053EC102B02F0DCF941EC100B51EC100B16
:1019F0009FED4F0B53EC102B02F0DCFA40B9FFE7E0
:101A000054998868B1F844100122FEF7DFFE07E020
:101A100054998868B1F844100022FEF7D7FEFFE71A
:101A20005B9801385B905C9801905B98013001F005
:101A30001CFF41EC110B9FED3C0B8DED020B00F0F8
:101A400043FD51EC100B01F0E1FE019A014692FBBF
:101A5000F1F000FB112001F008FF41EC100B8DEDBF
:101A6000040B5B9801F001FF9DED020B41EC110BA3
:101A700000F02AFD9DED041B51EC110B53EC102BD3
:101A800002F08EF941EC100B51EC100B9FED280B7E
:101A900053EC102B02F08EFA40B9FFE754994868D6
:101AA000B1F842100122FEF791FE07E05499486810
:101AB000B1F842100022FEF789FEFFE75B9801387B
:101AC0005B905C9800905B98013001F0CEFE41EC99
:101AD000110B9FED150B00F0F7FC51EC100B01F012
:101AE00095FE009A014692FBF1F000FB11200128BF
:101AF00008D1FFE754990868B1F840100122FEF7B9
:101B000065FE07E054990868B1F840100022FEF71E
:101B10005DFEFFE75B9801385B905DB0BDE88040FB
:101B200003B0704700BF00BF00000000000000408D
:101B300000000000000000002DE9F04FADF51B7D16
:101B400000209A90FFF73AF9FEF76CFEFFE70020BD
:101B5000999043F63000C4F20200016841F001019F
:101B60000160006800F0010099909998FFE7FFE795
:101B70000020989043F63000C4F20200016841F062
:101B800002010160006800F0020098909898FFE759
:101B9000FFE70020979043F63000C4F2020001688E
:101BA00041F004010160006800F0040097909798EC
:101BB000FFE7FEF7B7FF4FF02008CDF8488202207C
:101BC0004D90949095900020C4F20200549092A9F8
:101BD0004991FEF735FC549943F64002C4F20202E3
:101BE0004E92106840F001001060086840F40060F8
:101BF00008602021C4F202015591086840F4801069
:101C0000086040F29420C2F200004790006828214A
:101C1000C4F20001086040F20400C2F200004890E3
:101C200000682C21C4F2000108600C21C4F20001FC
:101C3000086840F0010008601C20FFF73BFA479954
:101C40004898DDF850C1559BDDF838E1DEF80020FA
:101C500042F00802CEF80020DCF8002042F0020238
:101C6000CCF800201A6842F002021A6009680139B3
:101C700040F62842C4F200021160006840F62C4190
:101C8000C4F20001086040F60C41C4F2000108688B
:101C900040F00100086032205690FFF70BFA499996
:101CA00001204C9093900020579094904FF48050D6
:101CB0005390929040F20040C4F202004A90FEF726
:101CC000BFFB49994A984FF4005251929292FEF705
:101CD000B7FB49994A984FF4804252929292FEF78C
:101CE000AFFB49994A984FF400424B929292FEF70B
:101CF000A7FB49994C98929040F60000C4F202006C
:101D00005090FEF79DFB499950984D9A9292FEF79C
:101D100097FB499950984FF0040BCDF848B2FEF765
:101D20008FFB499950984FF0080ACDF848A2FEF76A
:101D300087FB499950984FF01009CDF84892FEF76B
:101D40007FFB49995098CDF84882FEF779FB499975
:101D5000509840279297FEF773FB499950984FF49B
:101D600080769296FEF76CFB499950984FF4007577
:101D70009295FEF765FB499950984FF480649294D0
:101D8000FEF75EFB499950984FF400624F92929291
:101D9000FEF756FB49995098539A9292FEF750FBE2
:101DA00049994B9A54989292FEF74AFB4A98DDF86B
:101DB0002CC14C9B4D994E9ADDF83CE17A907B907A
:101DC0007C907D9050987E907F90809081908290C2
:101DD000839084908590869087908890899053987E
:101DE000ADF828025198ADF82A025298ADF82C02AD
:101DF0005398ADF82EC2DDF850C1ADF83032559B86
:101E0000ADF832125699ADF834B2ADF836A2ADF84D
:101E10003892ADF83A82ADF83C72ADF83E62ADF85A
:101E20004052ADF84242ADF844E2ADF84602DCF86B
:101E3000000040F02000CCF80000DCF8000040F08A
:101E40008000CCF80000186840F4E0601860186862
:101E500040F4E0401860106840F40030106044F234
:101E60000C42C4F20002106840F40050106044F2CA
:101E70000843C4F2000340F283601860106840F029
:101E800008001060106840F0040010600DF5DB7071
:101E90005890FEF71EFA56992A208DF8B60161A8CF
:101EA000FEF717FA5799589A54208DF88401452364
:101EB0008DF8853153238DF886318DF8870144F2F2
:101EC0000040C4F200005990036803F0020330336D
:101ED0008DF8B631036803F0040330338DF8B73161
:101EE000036803F0080330338DF8B831036803F05A
:101EF000100330338DF8B931036803F02003303319
:101F00008DF8BA31006800F080008DF8BB018DF8C3
:101F1000BC110846FEF792FE5999086820F020008F
:101F20000860FFE740F29020C2F20000006878B934
:101F3000FFE70DF5DB704690FEF7ACF901464698D9
:101F4000FFF77EF8469A00210846FEF777FEE9E79C
:101F500040F29820C2F20000006800EB40108100BF
:101F600044F24020C0F20F00B0FBF1F06090242159
:101F7000C4F2000100200860FFE740F29020C2F2A6
:101F80000000016800200129459009D1FFE740F2D7
:101F90001830C2F20000007880F001004590FFE7A1
:101FA0004598C007002800F0E480FFE74FF080402C
:101FB000012202600020C4F2020042904FF400416E
:101FC0004391FEF703FC4298439900224492FEF7A6
:101FD000FDFB44985F90FFE75F98202833DCFFE724
:101FE0005F9940F20800C2F2000050F8210000F5AD
:101FF00000403E907AA800F10C01684654223F92BE
:1020000040914190419840993F9A51F8043B40F8E3
:10201000043B043A3F9240914190F3D13E987A9923
:102020007B9A7C9BFFF7A8F86098FEF7C1FF002021
:10203000C4F202004FF40041FEF7B4FBFFE75F98E3
:1020400001305F90C8E720205F90FFE75F9800288D
:102050002CD4FFE75F9940F20800C2F2000050F86C
:10206000210000F500403A907AA800F10C01684682
:1020700054223B923C913D903D983C993B9A51F8BB
:10208000043B40F8043B043A3B923C913D90F3D131
:102090003A987A997B9A7C9BFFF76EF86098FEF7E6
:1020A00087FFFFE75F9801385F90CFE700205F90E0
:1020B000FFE75F9820282ADCFFE75F9940F20800DD
:1020C000C2F2000050F8210036907AA800F10C010D
:1020D0006846542237923891399039983899379A0E
:1020E00051F8043B40F8043B043A37923891399058
:1020F000F3D136987A997B9A7C9BFFF73DF86098EC
:10210000FEF756FFFFE75F9801305F90D1E7202090
:102110005F90FFE75F9800282AD4FFE75F9940F2BD
:102120000800C2F2000050F8210032907AA800F1B5
:102130000C01684654223392349135903598349985
:10214000339A51F8043B40F8043B043A33923491FB
:102150003590F3D132987A997B9A7C9BFFF70CF8F3
:102160006098FEF725FFFFE75F9801385F90D1E7A1
:1021700003E7FFE740F29020C2F200000068022867
:1021800054D1FFE700205E90FFE75E98202823DC13
:10219000FFE77AA800F10C01684654222F92309193
:1021A0003190319830992F9A51F8043B40F8043B14
:1021B000043A2F9230913190F3D17A997B9A7C9B9B
:1021C00040F6FF70FEF7D8FF0720FEF7F1FEFFE7AD
:1021D0005E9801305E90D8E720205E90FFE75E9821
:1021E000002822D4FFE77AA800F10C0168465422A7
:1021F0002C922D912E902E982D992C9A51F8043BCB
:1022000040F8043B043A2C922D912E90F3D17A9908
:102210007B9A7C9B0020FEF7AFFF0720FEF7C8FEED
:10222000FFE75E9801385E90D9E7A3E7FFE740F249
:102230009020C2F200000068032832D1FFE700209E
:102240005D90FFE75D9880282ADCFFE75D9940F20A
:102250008C00C2F2000050F8210028907AA800F10A
:102260000C016846542229922A912B902B982A9986
:10227000299A51F8043B40F8043B043A29922A91E8
:102280002B90F3D128987A997B9A7C9BFEF774FF68
:102290000720FEF78DFEFFE75D9801305D90D1E7E6
:1022A000C5E7FFE740F29020C2F200000068042872
:1022B0007AD1FFE70020C4F2020025904FF40041DC
:1022C00026910122FEF782FA25982699002227926C
:1022D000FEF77CFA27985C90FFE75C98202831DCB9
:1022E000FFE75C9940F20800C2F2000050F82100BC
:1022F00021907AA800F10C01684654222292239181
:10230000249024982399229A51F8043B40F8043BE6
:10231000043A229223912490F3D121987A997B9ABE
:102320007C9BFEF729FF0720FEF742FE0020C4F247
:1023300002004FF40041FEF735FAFFE75C980130E8
:102340005C90CAE720205C90FFE75C9800282AD4C4
:10235000FFE75C9940F20800C2F2000050F821004B
:102360001D907AA800F10C01684654221E921F911C
:10237000209020981F991E9A51F8043B40F8043B86
:10238000043A1E921F912090F3D11D987A997B9A5E
:102390007C9BFEF7F1FE0720FEF70AFEFFE75C9844
:1023A00001385C90D1E77DE7FFE740F29020C2F270
:1023B00000000068052832D1FFE700205B90FFE7AE
:1023C0005B983F282ADCFFE75B9940F28C00C2F261
:1023D000000050F8210019907AA800F10C0168461D
:1023E00054221A921B911C901C981B991A9A51F80E
:1023F000043B40F8043B043A1A921B911C90F3D121
:1024000019987A997B9A7C9BFEF7B6FE3220FDF7ED
:10241000F5FFFFE75B9801305B90D1E7C5E7FFE789
:1024200040F29020C2F20000006806282FD1FFE79A
:1024300000205A90FFE75A981F2827DCFFE75A9997
:1024400040F28C00C2F2000050F8210015907AA8EA
:1024500000F10C01684654221692179118901898B2
:102460001799169A51F8043B40F8043B043A169227
:1024700017911890F3D115987A997B9A7C9BFEF767
:102480007BFEFFE75A9801305A90D4E7C8E7002056
:102490000DF51B7DBDE8F08F03B401984100009855
:1024A00050EAC12018BF04204A0D18BF40F00100B7
:1024B00040F2FF72B2EB515F08BF40F0020001280A
:1024C00008BF052002B070472DE9F04D2DED040B3B
:1024D0002DED0E8B94B0DDE92350259CDDF888A00E
:1024E00025F0004624F00048BAF1000F14BF012186
:1024F000002101EB4502FC4953184A1093422AD3AC
:10250000002814BF0123002303EB44030B44F749C5
:102510008B4220D358EA00019FEDF5AB76D0DFF86F
:10252000D8B35D4503D1BAF1000F05D188E0BAF107
:10253000000F08BF002100D0012101EB450111F57A
:10254000001F08D8002814BF0121002101EB44011D
:1025500011F5001F0BD99DED241B9DED220B14B02E
:10256000BDEC0E8B04B0BDE8F04D00F071BE00274D
:10257000002DBCBFE149884521DAE1498845A8BF63
:1025800002271CDAC3451ADCDE4901EB2851142965
:1025900008DDC1F1340220FA02F101FA02F28242AE
:1025A0000DD108E058B9C1F1140228FA02F101FA7C
:1025B00002F2424503D101F00101C1F1020756EADE
:1025C0000A0124D1002C22DA002D18BF022F01D0DD
:1025D000012F0AD00220FDF7A6FE14B0BDEC0E8B31
:1025E00004B0BDE8F04D00F01BBE0220FDF79BFEDD
:1025F00000F016FE51EC100B00F0A9FE41EC100BA0
:1026000014B0BDEC0E8B04B0BDE8F08D18E09FED6A
:10261000BE9B9FEDBF8B002871D1B848804522D169
:1026200005F1804010F5801008BFBAF1000F07D007
:10263000B3450ADC002CA8BF9DED240BE0DA0DE0C9
:10264000B0EE4A0AF0EE6A0ADAE7002C06DA9DEDEF
:10265000240B51EC100B00F07AFE6FE0AE4878448A
:1026600090ED000BCCE7D8454DD1002C48DA2EB1C7
:1026700086423AD1BAF1000F42D126E0BAF1000FFA
:1026800013D00220FDF74FFE00F0FEFD8DED020B92
:102690009DED220B8DED000B10EE900A039961F376
:1026A0001E0003909DED020BAAE78DED029B9DEDB0
:1026B000220B19EE901A10EE900A8DED000B61F3CB
:1026C0001E0003909DED020B9AE78DED028B9DEDB0
:1026D000220B18EE901A10EE900A8DED000B61F3AC
:1026E0001E0003909DED020B8AE709DA9DED220B97
:1026F00051EC1A0B53EC102B00F0F2FE1EE020E020
:102700009DED220B7CE786421BDAB4F1804F0DD0A1
:10271000A4F10050B0F1FF5013D1002D11DB9DED5D
:10272000220B51EC100B00F0DBFD07E09DED220BBE
:1027300053EC102B51EC100B00F0CABC41EC100B09
:102740005EE79DED220B51EC100B00F0BDFDBAF1E0
:10275000000FCDE90A0142D19FED710B46B3A6F1FE
:10276000E040B0F17F600CD05E4538D1002D00DA3A
:10277000A7B3022F0CBF01204FF0FF3001F075F816
:10278000DCE7002D01DD002C0DDA002D01DD002C31
:102790001FDB002D16DA002C14DB012F08BF9FED84
:1027A000620B3FF42DAFB0EE490AF0EE690A27E75D
:1027B000022F18BF002D0CD0012F0AD1002DFFF6DB
:1027C0001FAF06E0002DB8BF002C08DA012F3FF440
:1027D00017AFB0EE480AF0EE680A11E71BE00120DF
:1027E00000EBE57050EA070115D0791EB0EE4A8A79
:1027F000F0EE6A8A084308BF9FED4D8B4E480025D6
:10280000804570DD4D494E48884514DDB0420DDBF2
:10281000002C19DB2FE00120FDF785FD14B0BDEC85
:102820000E8B04B0BDE8F04D00F01EBDB34502DCD8
:10283000002C09DC1FE0864202DA002C1BDA03E0E0
:102840005E452BDD002C16DD0220FDF76CFD00F04F
:102850001BFD8DED020B53EC192B51EC180B01F005
:1028600093F8CDE900010399019861F31E000390EC
:102870009DED020BC4E60220FDF755FD00F014FDAE
:1028800010EE901A18EE900A8DED020B8DED008B74
:1028900061F31E0003909DED020BB1E69DED0A0B66
:1028A00053EC1A2B51EC100B01F07AFA9FED260B2A
:1028B000CDE90A0153EC102B9DED0A0B51EC100BE6
:1028C00001F062F89FED221B53EC112B01F090F9FF
:1028D0009DED0A1B53EC112B01F056F89FED1E1BCA
:1028E00053EC112B3CE08CE0FFFF1F00FFFF0F00BB
:1028F000000000000000F03F0000F03F0000F07F0B
:102900000000404301FCFFFF000000000000F07FDA
:102910000000000000000000061B00000000000096
:102920000000000000000080000000000000F0FF38
:10293000000000000000F0BF0000E0410000F04394
:10294000FFFFEF3F00000000000000000000D03F4C
:10295000555555555555D53F000000000000E03F46
:1029600001F046F99DED0A0B41EC190B53EC102BCD
:1029700051EC100B01F008F853EC192B01F004F89E
:102980009DED0A0B41EC1B0B53EC102B9FEDFE0B46
:1029900051EC100B00F0F8FF41EC190B9FEDFC0B14
:1029A00051EC1B0B53EC102B00F0EEFF41EC1B0B1A
:1029B0009FEDF90B53EC102B9DED0A0B51EC100B16
:1029C00000F0E2FF53EC1B2B01F0EAF941EC1B0B8A
:1029D00051EC190B53EC1B2B00F0C6FC0490CDE915
:1029E00004519DED040B53EC192B51EC100B01F02D
:1029F000D7F953EC1B2B01F0FBF841EC100B00F066
:102A0000A9B90020B6F5801F0EDA9FEDE50B53EC57
:102A1000102B9DED0A0B51EC100B00F0B5FFCDE92A
:102A20000A016FF034000E4600EB2650A0F2FF378B
:102A3000C6F31300DC4940F07F6646F040568842FA
:102A4000D8BF002408DDD9498142C8BF012403DC76
:102A50000024A6F580167F1CD548784400EBC408F6
:102A60000B9698ED000B53EC102B9DED0A0B51ECDF
:102A7000100B01F095F998ED000B41EC1B0B53EC9A
:102A8000102B9DED0A0B51EC100B00F06DFC41EC8E
:102A9000100B51EC1A0B53EC102B00F021FD41EC04
:102AA0001C0B51EC1B0B53EC1C2B00F06DFF41EC8D
:102AB000190BC0488DED0E9B78440E9590ED000BE0
:102AC0004FF0005040EA660000EB84408DED120BA1
:102AD00000F50020139098ED000B53EC102B9DEDAA
:102AE000120B51EC100B01F05BF99DED0A1B53EC3E
:102AF000112B01F07DF841EC100B53EC102B9DEDE8
:102B00000E0B51EC100B00F03FFF9DED120B41EC52
:102B10001D0B53EC102B9DED0E0B51EC100B00F028
:102B200033FF53EC1B2B01F063F853EC1D2B01F02A
:102B300037F953EC1C2B00F027FF41EC1C0B53EC36
:102B4000192B51EC190B00F01FFF41EC1B0B9A489D
:102B50000621B0EE4B0AF0EE6B0A784400F0E4FA7E
:102B6000B0EE401AF0EE601AB0EE41DAF0EE61DA43
:102B700053EC1B2B51EC1B0B00F006FF53EC1D2BF1
:102B800000F002FF9DED0E0B41EC1B0B53EC192BDB
:102B900051EC100B00F0E8FB53EC1C2B00F0F4FEA2
:102BA00053EC1B2B00F0E0FB9DED0E0B41EC1B0BDF
:102BB00053EC102B51EC100B00F0E6FE41EC1D0B1A
:102BC00053EC1D2B9FED7EEB51EC1E0B00F0CCFB6C
:102BD00053EC1B2B00F0C8FB1290CDE912519DED78
:102BE000120B53EC1E2B51EC100B01F0D9F853ECE7
:102BF0001D2B01F0D5F853EC1B2B00F0F9FF9DEDD8
:102C0000120B41EC1D0B53EC102B9DED0E0B51ECF8
:102C1000100B00F0B9FE41EC1B0B53EC192B51ECDF
:102C20001D0B00F0B1FE9DED120B41EC190B53ECA6
:102C3000102B51EC1C0B00F0A7FE53EC192B00F0ED
:102C400093FB41EC190B51EC1B0B53EC192B00F0CF
:102C50008BFB0490CDE904519DED040B53EC1B2B31
:102C600051EC100B01F09CF853EC192B00F0C0FF55
:102C70009DED040B41EC190B53EC102B9FED520B07
:102C800051EC100B00F080FE41EC1B0B9FED500B44
:102C900051EC190B53EC102B00F076FE9DED040B5C
:102CA00041EC190B53EC102B9FED4B0B51EC100B1F
:102CB00000F06AFE53EC192B00F056FB41EC100BB0
:102CC0004748784400EBC40090ED001B51EC100B1A
:102CD00053EC112B00F048FB41EC190B384600F087
:102CE000C4FDCDE90A0153EC192B51EC1B0B00F08C
:102CF0003BFB41EC100B3B48784400EBC40451EC27
:102D0000100B94ED001B53EC112B00F02DFB9DEDEF
:102D10000A1B53EC112B00F027FB0490CDE9045162
:102D20009DED0A0B53EC102B9DED040B51EC100B99
:102D300001F036F894ED001B53EC112B01F030F844
:102D400053EC1B2B01F02CF853EC192B00F050FF27
:102D500041EC100B9DED241B53EC102B8DED001B53
:102D600000959DED240B51EC100B00F00DFE9DED38
:102D7000000B41EC190B53EC102B9DED240B51EC87
:102D8000100B01F00DF82FE0000000604715F73F31
:102D9000FE822B654715F73F44DF5DF80BAE543ECE
:102DA00000000000000040438E9803007AB60B003C
:102DB00082160000AC160000B215000000000000F2
:102DC0000000000000000840000000E009C7EE3FDE
:102DD000FD033ADC09C7EE3FF5015B14E02F3EBE70
:102DE0003A140000F41300009DED041B53EC112B6A
:102DF00000F0CAFD53EC192B00F0B6FA9DED040B60
:102E000041EC190B53EC102B9DED000B51EC100B0A
:102E100000F0BAFDCDE904019DED040B51EC190B56
:102E200053EC102B00F0A0FACDE902010C46AA49A0
:102E30008C422FDB611A084318D19DED040B53EC33
:102E4000102B9DED020B51EC100B00F0A9FF41EC93
:102E50001B0B9FEDA30B51EC190B53EC102B00F047
:102E600083FA53EC1B2B00F08DFE2DD20220FDF7D0
:102E70005AFA00F009FA10EE901A18EE900A8DED49
:102E8000020B8DED008B61F31E0003909DED020B94
:102E9000FFF7B6BB944A24F00041914214D3934902
:102EA000214408437FF4E7AC9DED040B53EC102B59
:102EB0009DED020B51EC100B00F072FF53EC192B3F
:102EC00000F060FE7FF6D7AC24F000408849894AC4
:102ED000002601EB205182422BDA481C4FF480116E
:102EE00021FA00F02044844AC0F30A517A44A1F246
:102EF000FF3192ED000B814A8DED0A0BCA4020EAAA
:102F00000202C0F3130040F48010C1F1140120FA52
:102F100001F60B92002CB8BF76429DED0A0B53ECE4
:102F2000102B9DED040B51EC100B00F039FFCDE997
:102F300004019DED040B51EC190B53EC102B00F028
:102F400013FA9FED6F0B0A90CDE90A5153EC102B49
:102F50009DED0A0B51EC100B00F016FD41EC1B0B24
:102F60009FED690B53EC102B9DED0A0B51EC100BF0
:102F700000F00AFD9DED040B41EC1C0B53EC102BF3
:102F80009DED0A0B51EC100B00F00AFF53EC192BCE
:102F900000F02EFE9FED5E1B53EC112B00F0F4FCB5
:102FA00053EC1C2B00F0E0F941EC190B51EC1B0B1E
:102FB00053EC192B00F0D8F9CDE902019DED020B7D
:102FC00053EC1B2B51EC100B00F0EAFE53EC192BC9
:102FD00000F00EFE9DED020B41EC190B53EC102B93
:102FE00051EC100B00F0D0FCCDE90A014A489DEDF0
:102FF0000A0B0521784400F097F89DED0A1B51EC6F
:10300000100B53EC112B00F0BFFC9DED021B53EC99
:10301000112B00F0EDFDCDE904019DED020B53EC09
:10302000192B51EC100B00F0AFFC53EC192B00F0F6
:103030009BF99FED3B0B41EC190B53EC102B9DEDD5
:10304000040B51EC100B00F0ABFE9DED040B41ECBA
:103050001B0B53EC102B9DED020B51EC100B00F0F1
:1030600093FC53EC1B2B00F03BFA53EC192B00F0B4
:1030700097FE9DED021B53EC112B00F091FE53ECDB
:103080001A2B00F0B5FDCDE9020101EB0650011548
:103090000029C8BF039015DC9DED020B324651ECB0
:1030A000100B00F0D4FFFFF7F7F9042808BF00F079
:1030B000FBF832469DED020B51EC100B00F0C7FF00
:1030C000CDE902019DED020B51EC180B53EC102BD6
:1030D00000F05AFCFFF732BB0000904000000000F7
:1030E000FE822B654715973C00CC904000346F3F23
:1030F00001FCFFFF0000E03F78120000FFFF0F001F
:1031000000000000432EE63F396CA80C615C20BE35
:10311000EF39FAFE422EE63F4811000000000000A1
:10312000000000000000004070B504462DED028B49
:103130004D1E00EBC500B0EE408AF0EE608A90EDC7
:10314000000B35F0060017D053EC182B51EC100B88
:1031500000F01AFC41EC100B6D1E04EBC50090ED65
:10316000001B51EC100B53EC112B00F0FDF841EC5F
:10317000100B35F00600E7D1022D36D0042D1CD0FF
:10318000062D1CBFBDEC028B70BD53EC182B51EC0F
:10319000100B00F0F9FB94ED0A1B53EC112B00F01F
:1031A000E3F853EC182B00F0EFFB94ED081B53EC05
:1031B000112B00F0D9F841EC100B53EC182B51EC0B
:1031C000100B00F0E1FB94ED061B53EC112B00F00B
:1031D000CBF853EC182B00F0D7FB94ED040B53EC19
:1031E000102B00F0C1F841EC100B53EC182B51ECF4
:1031F000100B00F0C9FB94ED021B53EC112B00F0F7
:10320000B3F853EC182B00F0BFFB94ED001B53EC0C
:10321000112B00F0A9F8BDEC028B41EC100B70BD36
:103220009FED070B10B553EC102B9FED070B51ECE6
:10323000100B00F055F941EC100B10BD0000000020
:103240000000000000000000000000000000F03F4F
:1032500010B553EC112B51EC100B00F085F841EC3C
:10326000100B10BD000000009FED050B10B553ECD6
:10327000102B51EC100B00F033F941EC100B10BD8A
:1032800000000000000000009FED050B10B553EC9E
:10329000102B51EC100B00F077FB41EC100B10BD24
:1032A00000000000000000709FED050B10B553EC0E
:1032B000102B51EC100B00F067FB41EC100B10BD14
:1032C000000000000000001082B0CDE9000121F0F4
:1032D000004001909DED000B02B051EC100B7047C7
:1032E00000B52DED048B83B041EC190B00F08CFC84
:1032F00041EC180B18EE100A18EE901A8DED008BA9
:10330000002818BF0120084320F00040C0F17F6072
:1033100000F1E040C00F14D019EE101A19EE900A17
:103320008DED009B002918BF0121084320F00040CB
:10333000C0F17F6000F1E040C00F04BF0120FCF746
:10334000F2FF51EC180B03B0BDEC048B00BD81F013
:103350000041704780F00040704721F00041704705
:1033600020F000407047000010B591EA030F48BFFD
:1033700083F0004300F11C85841A71EB030C05D225
:10338000121943EB0C03001B61EB0C014FEA1154C3
:10339000A4EB135CDFF81CE11EEA430F18BF9EEAA2
:1033A000445F00F0748021EA045123EA0E0343F4E1
:1033B0008013DCF1200E32D322FA0CFE10EB0E004B
:1033C00023FA0CFE41EB0E01CCF1200E03FA0EFEA7
:1033D00010EB0E00CCF1200E51F10001B1F5801F71
:1033E00032D201EB045112FA0EF2BDE8104058BF80
:1033F0007047401C38BF5FEA420218BF7047002880
:1034000014BF20F0010041F100014FEA410313F520
:10341000001F38BF7047A1F1C04100F0ADBB012AC9
:1034200043EB0302ACF1200CDCF11F0E32BF4FF076
:10343000000E23FA0CF310EB030041EB0451B4EB44
:10344000115FD0D0A1EB045101F58011490801EBC7
:1034500004515FEA30000ED350F1000038BF12FA79
:103460000EFE08D1BDE81040C9E7401C38BF5FEA36
:103470004202CAD1C3E7BDE810404FEA410313F549
:10348000001F38BF7047A1F1C04100F075BB9EEA34
:10349000445F08D011EA5E0FBDE8104004BF01F0A0
:1034A000004100207047BDE8104070B500F016FBE9
:1034B00064FBBE3E0000E0FF02494FF0000000F058
:1034C00094BD00BF0000F87F491058BFC1F14041D2
:1034D0005B1058BFC3F140438B42EFF3008070474D
:1034E0002DE9C04130B4DFF8A4C23CEA111418BF82
:1034F0003CEA131400F0ED801CEA111481EA030584
:1035000044EAD57418BF1CEA131500F0C880A4EB78
:10351000050404F17F7404F500344FF0004545EADA
:10352000C12145EAC32341EA505143EA52534FEACD
:10353000C0204FEAC222994208BF904200F09D800D
:103540004FEA13650FF24416765D4FEA134506FB0A
:1035500005F7C7F1807706FB07F74FEAD737A7FBD8
:1035600003687642A7FB06CEC8F5803838BFA8F1BD
:10357000010807FB08E6A6FB028C4FF0000EE6FBF5
:1035800003CEDCF1000CCEF1004E38BFAEF1010EDF
:10359000A6FB0C584FF00007E6FB0E87A1FB08C600
:1035A000A0FB07CE16EB0E064FF0000545F1000517
:1035B000E1FB076515F1E04E7EBFA4F580345FEABC
:1035C00046066D4116F1800745F100054FEA1727C1
:1035D00047EA05674FEA15254FEA0666A6F1DE467B
:1035E000B6F1805F20D9384605EBC47124F0010C98
:1035F00001EB0C11BCF1FE6F02D8F0BCBDE80081FC
:1036000024425CBF01F5801E9EEAC47F02D4F0BC58
:10361000BDE80081244200F13980A1F1C041F0BC35
:10362000BDE8004100F0A8BA4FEAD02040EA41507E
:103630004FEAD1214FEAD22242EA43524FEAD32342
:10364000A7FB028607FB036605FB02661EEA0E0F58
:1036500058BFA6EB0056B6EB00564FEA520E4EEAA4
:10366000C37E18EB0E0E56EB530EBCD518EB0208BA
:103670005E417F1C55F10005B5E74FF480154FF012
:1036800000074FF000064FF00008ACE701F1C04121
:1036900001F000414FF00000F0BCBDE800810CEAF1
:1036A000131511EA0C1F00D00CE013EA0C1F00F0F8
:1036B00026804FF0000081EA030101F00041F0BCD8
:1036C000BDE80081F0BCBDE8004181EA030100F0E3
:1036D00053BAF0BCBDE8004170B500F0FFF900BF7F
:1036E000097EFC3E00F007B84FF0000081EA0301BC
:1036F00001F00041704781EA030100F03DBAF0BCDF
:10370000BDE8004122494FF000007047FFFDFBF982
:10371000F7F5F4F2F0EEEDEBE9E8E6E4E3E1E0DE04
:10372000DDDBDAD8D7D5D4D3D1D0CFCDCCCBCAC876
:10373000C7C6C5C4C2C1C0BFBEBDBCBBBAB9B8B79D
:10374000B6B5B4B3B2B1B0AFAEADACABAAA9A8A890
:10375000A7A6A5A4A3A3A2A1A09F9F9E9D9C9C9B5E
:103760009A99999897979695959493939291919009
:103770008F8F8E8E8D8C8C8B8B8A8989888887879A
:103780008685858484838382828181800000FF070F
:103790000000F87F51EA030C17D41CF5801F58BFB6
:1037A000BCF5801F00F10680994218BF704708BF22
:1037B0009042704707D711F5801F58BF13F5801F3F
:1037C00019D499427047894270471CF5801F08D56B
:1037D000BCF5801FF7D58B4218BF704708BF8242E7
:1037E00070474FF4001C1CEB410F38BF1CEB430F1C
:1037F00001D28B42704770B500F070F992244900F5
:103800004FF000514FF08053FFF75EBE4FEA410387
:103810004FEA5353A3F58063D3F11E03C8BFD3F11E
:10382000210C0CDD4FF0004242EAC12242EA505224
:1038300032FA03FC8CEAE17CACEBE1707047102BB0
:10384000C4BF0020704703F5787CBCF1FF3F04D073
:103850006FF0004282EA2100704770B500F03EF937
:103860004992248000207047F2E710F0004248BFE0
:103870004042B0FA80F310FA03F10AD0C3F11D03FD
:1038800003F5806302EB03524FEA415002EBD12172
:1038900070474FF00000704751EA030C17D41CF535
:1038A000801F58BFBCF5801F00F10680994218BFE9
:1038B000704708BF9042704707D711F5801F58BF67
:1038C00013F5801F19D499427047894270471CF53F
:1038D000801F08D5BCF5801FF7D58B4218BF7047F5
:1038E00008BF824270474FF4001C1CEB410F38BFE9
:1038F0001CEB430F01D28B42704770B500F0EEF81D
:10390000922449004FF080514FF00053FFF7DCBD87
:1039100051EA030C17D41CF5801F58BFBCF5801F5B
:1039200000F10680994218BF704708BF9042704767
:1039300007D711F5801F58BF13F5801F19D499427E
:103940007047894270471CF5801F08D5BCF5801F61
:10395000F7D58B4218BF704708BF824270474FF4BB
:10396000001C1CEB410F38BF1CEB430F01D28B42F4
:10397000704770B500F0B2F8922449004FF0005142
:103980004FF08053FFF7A0BD70B5DFF848C11CEAC7
:10399000111E1EBF1CEA13159EEA0C0F95EA0C0FB0
:1039A00000F06F8081EA03044EEAD47EAE4421EA3F
:1039B0004C1123EA4C1341F4801143F48013AEF10F
:1039C0007F7EA1FB024CA0FB0365361955EB0C056D
:1039D000A1FB034C4CF10003A0FB021C16EB0C06F0
:1039E000654153F10003094218BF46F0010613F484
:1039F000007F0BD14FEA03314FEA053041EA155100
:103A000040EA165034036FF003020AE04FEAC32184
:103A10004FEAC52041EA555140EA5650F4026FF092
:103A2000020202EB2E4201EB025585EACE710AD06A
:103A30005FEA440C18BF24F0004450F1000041F14B
:103A4000000120EAD47040F2FE7C624500D270BDD5
:103A5000A84214BF4FF080444FF04044002E08BFEE
:103A60000024BEF1806FA8BFA1F1C041BDE8704045
:103A700080F2828001F1C04101F000414FF000006E
:103A800070470CEA13159EEA0C0F18BF95EA0C0F4D
:103A900006D081EA030E4FF000000EF0004170BD29
:103AA00000F01CF88900013E00F007B800F009B8EA
:103AB0004FEA430C5FEA5C5C08D081EA030100F046
:103AC0005BB84FEA410C5FEA5C5CF6D102494FF00B
:103AD000000070470000FF070000F87F0EF1020EA3
:103AE0002EF0030E5EF8046B364205D4012A43EB38
:103AF000030515F5001F12D8012841EB010C1CF538
:103B0000001F0CD80ED14FEAD17C0CEB4C0C0CF101
:103B1000020C15F5001F08BF4CEBD37C04E04FF0FE
:103B2000080C01E04FEAD37C0CEB4C0526FA05F6B5
:103B300006F00706B6F1040C06D20EEB860CBDE8C3
:103B400070404CF0010C6047DFE80CF0090B0202FA
:103B50004FF00041A1F500214FF0000070BD194663
:103B60001046012851EB010418BFD4F5001484BF9E
:103B7000002001F0004170BD0808A0F500114FEAD7
:103B80003101704753EA010C17D41CF5801F58BF50
:103B9000BCF5801F00F106808B4218BF704708BF3C
:103BA0008242704707D713F5801F58BF11F5801F59
:103BB00019D48B4270479B4270471CF5801F08D573
:103BC000BCF5801FF7D5994218BF704708BF9042D7
:103BD00070474FF4001C1CEB430F38BF1CEB410F28
:103BE00001D2994270470FB40CBC03BCFFF7C1BEB1
:103BF00010B591EA030F81F000413FF5BDAB83F0B2
:103C0000004300F0D5B800002DE9F04101F5801C1B
:103C1000BCF5001FC0F2A9804FEA115C21EA0C51EB
:103C200041F480110CF1FD0C5FEA5C0C0CF5C07CDA
:103C300001D340004941890241EA905187022EA4F4
:103C40008E0EA45D0A0C04FB04F602FB06F6C6F118
:103C50004046A4FB0662F60D46EA422606FB06F441
:103C6000A4FB01235242C3F1404338BF5B1EA6FBB5
:103C700002420024E6FB0324D20B42EA4446A6FBA0
:103C80000623A1FB02E2A3FB07E4E3FB61426442DB
:103C9000C2F1404E38BFAEF1010EA6FB04234FF037
:103CA0000002E6FB0E32A2FB03463400E2FB626434
:103CB000A1FB06E6A4FB07E8E4FB61687642C8F1D5
:103CC000405838BFA8F10108A2FB06E4A3FB08E5B1
:103CD000E2FB6854A1FB05E6A7FB04E8E1FB648670
:103CE00018F1200556F10006A80940EA8660B109DE
:103CF000A8F11B0808F03F08B8F10A0F1CD901EB26
:103D00000C51BDE8F08100BFFCF5EEE8E2DDD8D350
:103D1000CFCBC7C3C0BDB9B6B4B1AEACA9A7A5A33C
:103D2000A19F9D9B9A9896959392908F8D8C8B894D
:103D30008887868584838281A0FB006800FB01F26E
:103D400008EB4208B8EB872807D5341858EB010474
:103D5000D5D5401C51F10001D1E7341A78EB0104AC
:103D6000CDD4401E71F10001C9E75FEA4C0C5FEA57
:103D70009C5C0DD105D301F000414FF00000BDE87F
:103D8000F081BDE8F04170B5FFF7A8FE6DDBFFBE26
:103D9000BDE8F04101494FF0000070470000F87F96
:103DA00010B591EA030F48BF83F000433FF5E4AA42
:103DB000841A71EB030C07D28CF0004C121943EB00
:103DC0000C03001B61EB0C014FEA1154A4EB135CD4
:103DD000DFF8A4E11EEA430F18BF9EEA445F00F03B
:103DE000B48021EA045123EA6E035242C3EB6E030E
:103DF00038BF5B1EDCF1200E25D322FA0CFE10EB3F
:103E00000E0043FA0CFE41EB0E01CCF1200E03FA3A
:103E10000EFE10EB0E00CCF1200E51F1000129D462
:103E200001EB045112FA0EF2BDE8104058BF704782
:103E3000401C1CBFB2F1004F704700280CBF491C4A
:103E400020F00100704712EB020E43EB030218BF93
:103E50004FF0010E4EEA4202ACF1200CDCF11E0ED6
:103E600056D943FA0CFE10EB0E00CCF11E0E51F1A8
:103E7000FF31D5D50EF1010E12FA0EFE404141EB95
:103E8000010101EB445C5FEA5C5C10D901EB045179
:103E900010EBDE7038BFBEF1004FBDE8104018BF18
:103EA000704700280CBF491C20F00100704734D235
:103EB0004FEAD42C24F4006411F500111BD0B1FAA0
:103EC00081F20B3AA41AA41ED2F12003914030FAD9
:103ED00003F31943904001EBCC7101EB0451002C2A
:103EE000BDE81040A8BF704701F1C04101F000419A
:103EF0004FF000007047B0FA80F310FA03F102D1DE
:103F0000BDE810407047E41A173C4805C90AE2E7CB
:103F100001EB0451BDE81040704749104FEA3000F2
:103F200001EB0451BDE8104002E04FF00001704782
:103F30004A0008BF0042F8D0B2F5001F28BF704702
:103F400001F000414FF0000070479EEA445F07D047
:103F500011EA5E0FBDE8104004BF00210020704749
:103F6000BDE8104070B5FFF7B9FD00BF40DFF63E79
:103F7000104683F0004170470000E0FF10B5FFF7E6
:103F800009FC0CBF0120002010BD10B5FFF702FC9A
:103F900014BF0120002010BD10B5FFF77DFC8CBFC1
:103FA0000120002010BD10B5FFF776FC2CBF0120CA
:103FB000002010BD10B5FFF7ABFC94BF012000201E
:103FC00010BD10B5FFF7A4FC34BF0120002010BDC8
:103FD000F1EE100A4FF6FF71C0F2C03120EA010085
:103FE00040F04070E1EE100A70470CF00F03092B0F
:103FF00008BF082000F059800A2B0BD0082B18BFEF
:10400000704708BF1CF0400F0AD04FF000004FF07F
:10401000000170471CF0400F18BF4FF00040704780
:104020001CF0100F08D000F07F4220F0704342EAED
:10403000D3014FEA4370704700F0604021F07F42A7
:1040400042EA000201F07F4040EA727070474FF090
:10405000FF0C4CF4E06C1CEA11531CBF9CEA030CEF
:104060009445C2BFDA4201EB02517047002B0DD0DC
:10407000BCF1000F0FD001F00041002AA4BF41F0B5
:10408000E04141F07F614FF00000704701F00041D6
:104090004FF00000704750EA01334FF09B0C18BFFF
:1040A0004CF0806C7FF408AA70471CF4801F11D07C
:1040B0001CF4E02F03D06FEACC31490070474FF079
:1040C0004050EFF3008222F0704242EA000282F395
:1040D000008870474FF000007047000000000000AB
:1040E000000000000000F03F000000000000F83F6A
:1040F00000000000000000000000004003B8E23FA4
:10410000000000000000000006D0CF43EBFD4C3E55
:10411000033333333333E33FFFAB6FDBB66DDB3F4A
:104120004D268F515555D53F01411DA96074D13F92
:1041300065DBC9934A86CD3FEF4E454A287ECA3F8C
:104140003E5555555555C53F93BDBE166CC166BF0E
:104150002CDE25AF6A56113FF16BD2C541BDBBBE07
:10416000D0A4BE726937663E000000000000000067
:104170000000000000000000010203040607080917
:10418000A041000800000020A8020000D0010008A3
:1041900058430008A8020020780600000C0200081E
:1041A000770024F400FEFF334706338B0C33C7122D
:1041B00033F81833191F332725331E2B33FB3033C5
:1041C000B93633563C33CD41331C47333F4C333340
:1041D0005133F45533815A33D65E33F16233CE66B0
:1041E000336C6A33C96D33E17033B5733340763362
:1041F0008378337C7A33297C33897D339C7E3361A9
:104200007F33D77F83FF7F42044208420C42104233
:10421000144218421C422042244228422C4230427E
:10422000344238423C424042444248424C4250426E
:10423000544258425C426042644268426C4270425E
:10424000744278427C427C427842744270426C42B2
:104250006842644260425C425842544250424C427E
:104260004842444240423C423842344230422C426E
:104270002842244220421C421842144210420C425E
:10428000088204328033FF8333FF8733FF8B33FF91
:104290008F33FF9333FF9733FF9B33FF9F33FFA38E
:1042A00033FFA733FFAB33FFAF33FFB333FFB73376
:1042B000FFBB33FFBF33FFC333FFC733FFCB33FF36
:1042C000CF33FFD333FFD733FFDB33FFDF33FFE3DE
:1042D00033FFE733FFEB33FFEF33FFF333FFF73306
:1042E000FFFB33FFFF33FFFB33FFF733FFF333FFF6
:1042F000EF33FFEB33FFE733FFE333FFDF33FFDB66
:1043000033FFD733FFD333FFCF33FFCB33FFC73375
:10431000FFC333FFBF33FFBB33FFB733FFB333FFFD
:10432000AF33FFAB33FFA733FFA333FF9F33FF9BB5
:1043300033FF9733FF9333FF8F33FF8B33FF874375
:10434000FF83328042044210426433B80B42014280
:08435000100000000000000055
:040000050800019559
:00000001FF
