:020000040800F2
:100000003809002001030008090300080B03000859
:100010000D0300080F030008110300080000000092
:1000200000000000000000000000000013030008B2
:10003000150300080000000017030008E51E000873
:100040001B0300081B0300081B0300081B03000818
:100050001B0300081B0300081B0300081B03000808
:100060001B0300081B0300081B0300081B030008F8
:100070001B0300081B0300081B0300081B030008E8
:100080001B0300081B0300081B03000800000000FE
:100090000000000000000000000000001B0300083A
:1000A0001B0300081B0300081B0300081B030008B8
:1000B0001B0300081B0300081B0300081B030008A8
:1000C0001B0300081B0300081B0300081B03000898
:1000D0001B0300081B0300081B03000800000000AE
:1000E0001B0300081B0300081B030008000000009E
:1000F0000000000000000000000000001B030008DA
:10010000000000001B030008D52000081B030008A6
:1001100000000000000000000000000000000000DF
:100120001B0300081B0300081B0300081B03000837
:100130001B03000800000000000000000000000099
:100140000000000000000000000000001B03000889
:100150001B0300081B0300081B0300081B03000807
:100160001B0300081B030008000000000000000043
:10017000000000000000000000000000000000007F
:10018000000000001B030008000000000000000049
:100190001B03000800F002F800F0A2F80AA090E8A3
:1001A000000C82448344AAF10107DA4501D100F032
:1001B00097F8AFF2090EBAE80F0013F0010F18BF5D
:1001C000FB1A43F001031847FC5800001C590000BB
:1001D0000A4410F8014B14F00F0508BF10F8015B3A
:1001E000240908BF10F8014B6D1E05D010F8013B23
:1001F0006D1E01F8013BF9D1641E03D0641E01F8A5
:10020000015BFBD19142E4D370470000002300243E
:1002100000250026103A28BF78C1FBD8520728BF16
:1002200030C148BF0B6070476E2900F08D81702986
:1002300000F0CF82662905F0F282652905F0EF8291
:10024000672905F0EC82612905F0EB8203681B0A3F
:1002500028BF41F08001692900F03A81642900F04B
:100260003781752900F034816F2900F05D8278298B
:1002700000F09B82E92900F0F781E42900F0F48185
:10028000F52900F0F181EF2900F05A82F82900F0F9
:100290009A820368DB0928BF41F08001632900F0DE
:1002A000C787732900F0CC87E32900F0D787F329AB
:1002B00000F0DC87002070471FB505F0A3FA01F0BD
:1002C0002FF804000020002104F046FC401C606070
:1002D0000020002104F02AFCE0601FBD10B510BD15
:1002E00000F0F0FF1146FFF7E7FF02F089FC01F094
:1002F000CDF803B4FFF7F2FF03BC01F00FF90000E3
:100300000948804709480047FEE7FEE7FEE7FEE7A9
:10031000FEE7FEE7FEE7FEE7FEE7FEE704480549E5
:10032000054A064B704700001D2000089501000893
:100330003803002038090020380500203805002047
:100340000FB41CB5084B06AA7B446946009005987B
:1003500000F013F904460020694600F021F9204618
:100360001CBC5DF814FB00005502000010B5431CD6
:1003700002E010F8011B71B18107FAD14FF0013290
:1003800002C88C1A8C4314EAC211F9D0C01A0A06AA
:1003900003D0C01E10BDC01A10BD0A0401D0801EBB
:1003A00010BD0902FCD0401E10BD4FF00002042910
:1003B000C0F0128010F0030C00F0DC82CCF1040CD1
:1003C000BCF1020F18BF00F8012BA8BF20F8022BC8
:1003D000A1EB0C0100F0CEBA5FEAC17C24BF00F8AB
:1003E000012B00F8012B48BF00F8012B7047704724
:1003F0007047704710B500F0E3FA006810BD10B503
:10040000044600F0DDFA046010BD70B5044685694D
:100410000068C10601D5302600E02026C00707D0BD
:1004200070BDD4E9012130469047206A401C20620B
:100430006D1EF6D570BD70B5044685690078C0079D
:1004400007D170BDD4E9012120209047206A401CCB
:1004500020626D1EF6D570BD09684A0501D540B20F
:100460007047C905FCD500B2704709684A0501D537
:10047000C0B27047C905FCD580B2704770B50C4654
:100480000546012A05D02878800600D5EA690023B0
:1004900002E0012305E05B1C934202D2E05C0028ED
:1004A000F9D1A869E618C01AA861286A1844286218
:1004B0002846FFF7AAFF04E0D5E9012114F8010B53
:1004C0009047B442F8D32846FFF7B5FF70BD00004F
:1004D0002DE9F0410646002410687529314616A51D
:1004E00010D0FFF7B9FF002802DA404213A507E059
:1004F00031688A0701D512A502E0490704D511A584
:10050000012401E0FFF7B1FF00210A2206F12407D0
:1005100009E0B0FBF2FCB0FBF2F302FB1C00303050
:1005200078541846491C0028F3D123462A46304601
:10053000BDE8F04100F08DBA000000002D00000081
:100540002B0000002000000011680268006A5305BB
:1005500001D508700AE0D30501D5088006E013062E
:1005600003D5C217C1E9000200E00860012070470E
:1005700001694A1C02610878704700B58FB0CDE967
:1005800001310021059105497944CDE90310114657
:10059000684600F029F90FB000BD0000E5FFFFFF3D
:1005A0000A6802F8010B0A60704700002DE9FF5F3E
:1005B00015468A460446DFF8AC80F8440027D8E99F
:1005C00000103E46CDE9001010E03AF816106A46D9
:1005D00002A800F04FFE411C07D02178890603D500
:1005E000E269391891420DD80744761C20788006BC
:1005F00002D5E069B84205DDAE42E6DB3AF8160006
:100600000028E2D1A069C01BA0612046FFF7FDFED3
:10061000D8E90010CDE90010002017E03AF81810D2
:100620006A4602A800F026FEB0F1FF3F81460BD0DB
:1006300000250DF1080B05E0D4E901211BF80500A8
:1006400090476D1C4D45F7D308F10100B04280463C
:10065000E4DB206A384420622046FFF7ECFEBDE868
:10066000FF9F0000E25300002DE9F0418046D21DBB
:1006700022F007020025D2E90002F52915A614D0C0
:10068000011E72F1000106DA0023D0EB030063EBD8
:10069000020211A608E0D8F800108B0701D50FA6BA
:1006A00002E0490701D50EA601251146002408F1F4
:1006B000240704E000F088F930323A55641C50EA0F
:1006C0000102F7D12B46324621464046BDE8F041B3
:1006D00000F0BFB9000000002D0000002B0000005A
:1006E0002000000030B4002100F1240408E002F0F2
:1006F0000705D208303542EA4372DB086554491CCD
:1007000052EA0305F3D10468002310A2250708D597
:1007100004F020040C4304D0C46901230CA2641E1D
:10072000C46130BC00F095B910B50446214610688C
:10073000FFF79BFE02462046BDE810400023D1E7AC
:10074000D21D22F00701D1E90023CBE70000000011
:1007500030000000F0B40D460188090502D5214C97
:100760007C4402E01F4C7C440E34002100F124063E
:1007700008E002F00F071209E75D42EA03721B0965
:100780007754491C52EA0307F3D102780023120779
:1007900004D5702D06D009B1022311342246F0BCD5
:1007A00000F057B901231034F8E770B504460D4640
:1007B00021461068FFF759FE024629462046BDE84B
:1007C00070400023C6E7D21D22F00703D3E90023BF
:1007D000C0E70368126843F0200303600823C36185
:1007E0000023B7E7445200002DE9F05F8946044634
:1007F0004FF0000ADFF874B1FB44C0F820A0204697
:10080000E1688847002874D0252806D0D4E9012162
:100810009047206A401C2062F1E700265F46204690
:10082000E16888472028054607DB312D05D2781975
:1008300010F8200C08B10643F1E7B00701D526F007
:100840000406C4F81CA00027C4F818A02A2D09D05B
:10085000284604F021F938B304EB8708303DC8F886
:10086000185019E059F8041B204604EB87029161E7
:10087000E1688847012F054618D1E069002820DA91
:1008800026F020061DE0D8F8180000EB800005EBEC
:1008900040003038C8F818002046E168884705460F
:1008A00004F0FAF80028EED1012F0AD02E2D08D13D
:1008B0002046E16888477F1C0546022F46F0200647
:1008C000C4DBA069002803DA404246F00106A061BB
:1008D000F00701D026F010066C2D0BD0682D09D042
:1008E0004C2D39D06A2D35D0742D35D07A2D33D09A
:1008F00016E038E0E1682F4620468847B8420546B2
:1009000009D16C2F26D04FF48060E1680643204661
:100910008847054604E06C2F1AD04FF480700643D8
:100920000DB3A5F14100192802D8203546F4006620
:100930004A462946204626604E46FFF775FC80B1A0
:1009400001280BD0F61D26F0070000F1080956E734
:100950004020E4E78020D8E70020D6E706F104092C
:100960004DE7284652E7206ABDE8F09FD4510000C9
:100970004FF0000200B5134694469646203922BF38
:10098000A0E80C50A0E80C50B1F12001BFF4F7AF83
:10099000090728BFA0E80C5048BF0CC05DF804EB65
:1009A000890028BF40F8042B08BF704748BF20F8D3
:1009B000022B11F0804F18BF00F8012B7047000088
:1009C00000487047A802002030B5B0F10A0271F16A
:1009D00000034FEA900E4EEA817EB0EB0E0061EB11
:1009E00091014FEA101E4EEA017E10EB0E0041EB22
:1009F00011114FEA102E4EEA016E10EB0E0041EB82
:100A000011214FEA104E4EEA014E10EB0E0041EB61
:100A10001141401841F100014FEAD00040EA417015
:100A20004FEAD1014FEA810444EA907410EB80054B
:100A300044EB01046D1944EB0404521BA3414FF035
:100A4000000348BF0A3200D530BD401C41F100010F
:100A500030BD2DE9F0470D4699469246044600F117
:100A600024080168880604D5E06921F0100121609E
:100A700000E00120A84201DD471B00E00027A1693A
:100A80007A1902EB0900081AA0612078C00602D486
:100A90002046FFF7BAFC002608E0D4E901211AF845
:100AA00006009047206A401C761C20624E45F4DB0D
:100AB0002078C0060AD52046FFF7A7FC06E0D4E957
:100AC000012130209047206A401C2062381EA7F187
:100AD0000107F4DC07E0D4E9012118F8050090478C
:100AE000206A401C2062281EA5F10105F3DC204687
:100AF000FFF7A1FC2078000602D50220BDE8F087B0
:100B00000120FBE72DE9FF4F0C461E464FF0FF3753
:100B10008BB0D2E90001DDF860800A908A46C1F30B
:100B20000A5505B93D46002108464FF00000BAF1CC
:100B3000000F00F4400005DA00EB80004FF44001A4
:100B400001EA50004FEA9059B9F1010F00DDB946B2
:100B50000A9850EA4A000ED044F61050A5F2FF352C
:100B600045432F14B8F1000F1ED07542291E1EDD1B
:100B7000C9F100021CE0B8F1010F4FF0000001D0F4
:100B8000302103E0F24305E02154401CB042FBDB7E
:100B900030460022002121540B99C1F80880C1E998
:100BA00000200FB0BDE8F08FBD1B6D1CDEE74A468C
:100BB00000DA694206A800F0F7FB06AB93E80700ED
:100BC00003AB83E8070050460A9902F082FC8DE8E7
:100BD0000700A0F500501F3800900398002D0ADD93
:100BE00042F21F014A460844002303A903906846C5
:100BF00002F0ECFE09E0A0F500504A461F38002341
:100C000003A90390684602F0F6FE8DE80700000491
:100C1000000C03D04FF0FF30410800E01046B8F15F
:100C2000000F03D00022009215461EE0751E05D469
:100C3000FFF7CAFE303262556D1EF9D5B346012268
:100C4000084302D000227F1C04E02078302801D124
:100C500000227F1E002A099784D01DE0112D07DA9B
:100C6000FFF7B2FE303262556D1C50EA0102F5D139
:100C7000084302D00098C8B10EE00021681E05E0CC
:100C8000235C625C63542254401E491C8142F7DBA2
:100C9000AB46A81B401E0990002004F80B000B98DF
:100CA000099AC0F80880C0E9002B7AE711264FF0B6
:100CB000000857E72DE9F04F88460446D21D22F080
:100CC000070191B0D1E90001CDE90A0102F0CAFFA4
:100CD00002460B98C00F01D02D2007E02068810745
:100CE00001D52B2002E0202101EAC000032A09904F
:100CF00001D0072A05DB03464146204600F014FBDD
:100D00000BE12078800601D5E06900E00620B8F10B
:100D1000650F814606D0B8F1660F18D0B8F1670F9D
:100D200070D131E00020B9F1110F009001DB1123E7
:100D300001E009F101030AAA01A90CA8FFF7E2FEEC
:100D4000DDE90C70002609F10105834647E001202A
:100D50004B4600904FF000470AAA01A90CA8FFF7E4
:100D6000D1FEDDE90DB00C995D46002610B909F100
:100D700001000D18B9EB050003D4C0F1FF3609F1ED
:100D80000105A5EB09002BE0B9F1010F01DA4FF0E5
:100D900001090020B9F1110F0090484601DD11232F
:100DA00000E003460AAA01A90CA8FFF7ABFEDDE9A3
:100DB0000C704D4600268346207800070AD4AB45C8
:100DC00000DA5D4601A8012D04DD411911F8011C6E
:100DD000302907D04F4502DA17F1040F04DA012059
:100DE00082460FE06D1EEEE7002F02DCED1B3E4455
:100DF00003E0781CA84200DD7D1CB81B00F1010A4D
:100E00004FF000472078000703D4AA4501DB4FF0DC
:100E1000FF3A0021B7F1004F0DF143088DF8431060
:100E200024D002202B23002F01DA7F422D230A2118
:100E3000021EA0F1010000DC5FB197FBF1FC97FB03
:100E4000F1F201FB1C7C17460CF1300C08F801CDC7
:100E5000EEE7A8F1010003702188090501D54521BD
:100E600000E06521A0F1010800F8011C09980FA914
:100E7000A1EB0807FF1D00B10120411901EBEA7049
:100E8000A1693844081A401EA0612078C00602D427
:100E90002046FFF7BAFA099828B1D4E90121904712
:100EA000206A401C20622078C00622D52046FFF729
:100EB000ACFA1EE0002E04DBB34502DD01A8805D24
:100EC00000E03020D4E901219047206A401C2062D4
:100ED000761CAAF101005FEA000A0AD100F020FAAC
:100EE000C0680168405CD4E901219047206A401C39
:100EF0002062281EA5F10105DCDC07E0D4E9012110
:100F000018F8010B9047206A401C2062381EA7F198
:100F10000107F3DC2046FFF78EFA032011B041E60B
:100F20002DE9F04F04460D46D21D22F0070089B08E
:100F3000D0E900974846394602F094FE0246F80F81
:100F400001D02D2307E02068810701D52B2302E083
:100F5000202101EAC0038DF820300BB1012000E010
:100F60000020032A824601D0072A04DB29462046B6
:100F700000F0DAF93FE12078800601D40D2500E089
:100F8000E569C7F30A560D2D49DA00214FEA175BD0
:100F900008464FF00000002F00F4400007DA00EB95
:100FA00080004FF4400100EBD07001EA6000811531
:100FB000012901DD4FF0FF3100224FEA850CBCF121
:100FC000180F06D31346ACF118004FF08052C24000
:100FD00003E04FF4801323FA0CF30CF10C0CBCF17A
:100FE000200F04D3ACF1200C09FA0CF001E007FA51
:100FF0000CF000294FF0004801DD18B90FE00ED1C8
:1010000040450CD319EB02095F4121B9404502D19B
:101010009F4329EA0209BBEB175F00D0761C2088AA
:10102000000502D57B48784402E07A4878441938B4
:1010300008AA302302F80A30037C0AF10101002ECD
:101040000AF1020A53546A4602DC4FF0300101E013
:101050004FF031014FF001088DF8001002D0A6F2D8
:10106000FF3603E059EA470100D06B4E002D02DC49
:101070002178090704D54FF002082E218DF80110C0
:10108000C44600210BE0C7F303433F01C35C491C86
:101090006D1E02F80830052908F1010801DA002D5B
:1010A000F1DC00210CE000EB1973491C1B786D1E6C
:1010B000082902F808304FEA091908F1010801DA95
:1010C000002DF0DC21688B0602D516E0A8F101089E
:1010D000E04505DD02EB080313F8013C302BF5D0A9
:1010E000B8F1000F09DD02EB080313F8013C2E2BC9
:1010F00003D1090701D4A8F10108002D05DD3E2127
:1011000002F808106D1E08F10108407C002E02F85C
:10111000080008F1010804DA2D20764202F80800E0
:1011200002E02B2002F808000A214FF47A70864270
:1011300008F101080BDB96FBF0F3303302F80830BE
:1011400096FBF0F308F1010800FB136601E0642E42
:101150000CDB642096FBF0F3303302F8083096FB8A
:10116000F0F308F1010800FB136601E00A2E06DB2C
:1011700096FBF1F0303002F8080008F1010896FB08
:10118000F1F001FB1060303002F80800A16908F1AD
:10119000010808EB050202EB0A00081AA06120789A
:1011A000C00602D42046FFF730F9216A08AE01EBF1
:1011B0000A00206204E0D4E9012116F8010B9047EF
:1011C000BAF1010AF7D22078C00602D52046FFF70F
:1011D0001CF96E4609E016F8010B3E280FD0D4E941
:1011E00001219047206A401C2062B8F10108F2D228
:1011F0002046FFF720F909B00320BDE8F08F206AF0
:101200002844206203E0D4E90121302090476D1E7C
:10121000EBD3F8E7D949000002FCFFFF10B54369A2
:1012200013B1AFF3008001E0FFF728F9012010BDF2
:10123000127800F124010A7000224A700122EDE7C1
:1012400011684FF0FF32E9E710B5436913B1AFF30E
:10125000008001E0FFF7AAF9012010BD128800F11B
:10126000240182840022C2840122EDE711684FF03C
:10127000FF32E9E72DE9F04116460C46054600F03D
:1012800047F8036893F80101012807D0FF2C12D812
:10129000185D80B101202C70BDE8F081D3F8070102
:1012A0003246214603F20713C7182846BC46BDE85C
:1012B000F041002360474FF0FF30EDE700487047F2
:1012C000A80200207546FFF7F9FFAE460500694603
:1012D000534620F00700854618B020B5FFF71EF8EA
:1012E000BDE820404FF000064FF000074FF0000827
:1012F0004FF0000BAC46ACE8C009ACE8C009ACE864
:10130000C009ACE8C00921F007018D467047000014
:1013100010B500F005F8001D10BD00BF3D380000FD
:1013200000487047C80200202DE9F0411F460446DE
:1013300003260168072A01F4006004DB08B116A542
:1013400005E016A503E008B115A500E015A521F0FC
:1013500010002060A069C01EA0610FB1401EA061F6
:101360002046FFF752F84FB1D4E9012138469047A3
:10137000206A401C2062C01C206206E0206AFAE756
:10138000D4E9012115F8010B9047761EF8D22046CA
:10139000FFF751F8BDE8F0814E414E006E616E00DE
:1013A000494E4600696E66002DE9F04781461646B3
:1013B0008AB0354878440DC88DE80D00324878442D
:1013C000801C03AC0DC884E80D0041F69B30084436
:1013D000372190FBF1F290FBF1F5A5F1800501FBBF
:1013E00012041B3C02D56442012000E00020DFF81B
:1013F00098A080460027FA44AAF1BE0A0EE0E00752
:101400000AD03246684607EB470101230AEB810107
:1014100002F0F1FA8DE8070064107F1C002CEED179
:10142000194F7F44AE3F19E0E80715D007EB0410D1
:101430000DF1180A90E80E008AE80E00C068F0422C
:1014400001D1981908903246012306A903A802F099
:10145000D2FA03AB83E807006D10641C002DE3D1C2
:101460004FF0010332466946B8F1000F03A802D0DD
:1014700002F0ACFA01E002F0BEFAC9E90001C9F8D5
:1014800008200AB0BDE8F087DC46000010B504462D
:10149000AFF300802046BDE81040FEF72ABF0000F1
:1014A00030B44FF0013C50F8042B51F8043BCCFA17
:1014B00052F4D51A20D1FCB950F8042B51F8043B52
:1014C000CCFA52F4D51A17D1B4B950F8042B51F80C
:1014D000043BCCFA52F4D51A0ED16CB950F8042B57
:1014E00051F8043BCCFA52F4D51A05D1002CDAD0CD
:1014F00030BC4FF00000704729BAB1FA81F111F009
:101500001801D1F120008440F2D1CA40CB4012F042
:10151000FF0213F0FF0330BCD01A704701491820B6
:10152000ABBEFEE7260002007047000080B584B025
:10153000039000F0FBF902900398019001980130AC
:1015400048B1FFE740F29C20C2F200000178019808
:1015500008440190FFE7FFE700F0E8F90299401A1C
:101560000199884201D2FFE7F6E704B080BD000090
:101570008BB00A9009910020079006900590089082
:10158000FFE708980F2800F2A281FFE708990120E1
:1015900088400790099800680799084006900698C7
:1015A0000799884240F08E81FFE70998406800F073
:1015B0000300012807D0FFE70998406800F0030006
:1015C00002282FD1FFE70A9880680590089841000B
:1015D000032000FA01F10598884305900998C06836
:1015E0000899490000FA01F105980843059005980B
:1015F0000A9988600A98406805900899012000FAC5
:1016000001F105988843059009984068C0F30010DF
:10161000089900FA01F105980843059005980A9980
:101620004860FFE70998406800F00300032818D0DD
:10163000FFE70A98C068059008984100032000FA67
:1016400001F1059888430590099880680899490038
:1016500000FA01F105980843059005980A99C860B9
:10166000FFE70998406800F00300022826D1FFE751
:101670000A9808996FF0030202EA51010844006ACF
:101680000590089800F0070081000F2000FA01F192
:1016900005988843059009980069089901F00701A9
:1016A000890000FA01F105980843059005980A9908
:1016B000089B02EA530211440862FFE70A98006897
:1016C000059008984100032000FA01F1059888432D
:1016D00005900998406800F003000899490000FA55
:1016E00001F105980843059005980A990860099842
:1016F00080798007002800F0E480FFE7FFE7002002
:10170000049043F64400C4F20200016841F48041B1
:101710000160006800F4804004900498FFE7089896
:1017200020F0030043F60801C4F20101405805907F
:10173000089800F0030081000F2000FA01F10598DD
:10174000884305900A980021C4F20201884203D11F
:10175000FFE70020039034E00A9840F20041C4F211
:101760000201884203D1FFE70120029026E00A9897
:1017700040F60001C4F20201884203D1FFE70220D3
:10178000019018E00A9840F60041C4F20201884234
:1017900003D1FFE7032000900AE00A9941F200021A
:1017A000C4F202020720914208BF04200090FFE724
:1017B00000980190FFE701980290FFE702980390DC
:1017C000FFE70398C0B2089901F00301890000FA0D
:1017D00001F10598084305900598089921F0030147
:1017E00043F60802C4F20102885043F60840C4F2EE
:1017F00001000068059006990598884305900998AE
:101800008079C006002805D5FFE7069905980843AA
:101810000590FFE7059843F60841C4F2010108600E
:1018200043F60C40C4F20100006805900699059843
:1018300088430590099880798006002805D5FFE740
:101840000699059808430590FFE7059843F60C4173
:10185000C4F20101086043F60440C4F201000068CC
:101860000590069905988843059009988079800726
:10187000002805D5FFE70699059808430590FFE77E
:10188000059843F60441C4F20101086043F60040A4
:10189000C4F20100006805900699059888430590F8
:1018A00009988079C00728B1FFE706990598084391
:1018B0000590FFE7059843F60041C4F20101086076
:1018C000FFE7FFE7FFE708980130089059E60BB003
:1018D0007047000083B00290ADF80610029840698E
:1018E0000090009ABDF8060002EA0001904340EA29
:1018F00001400299886103B07047000082B00190F6
:10190000ADF802108DF801209DF8010028B1FFE725
:10191000BDF802000199886105E0BDF802000004ED
:1019200001998861FFE702B07047000040F234304F
:10193000C2F200000068704740F29C20C2F2000032
:10194000027840F23431C2F20001086810440860A5
:101950007047000080B543F60041C4F202010868F8
:1019600040F400700860086840F48060086003205C
:1019700000F05CF80F2000F005F800F03BF80020C4
:1019800080BD000080B582B0009040F20000C2F23D
:101990000000006840F29C21C2F200010A784FF476
:1019A0007A71B1FBF2F1B0FBF1F000F047F820B131
:1019B000FFE701208DF8070018E000980F280DD8E8
:1019C000FFE700994FF0FF30002200F015F8009873
:1019D00040F2A021C2F20001086003E001208DF86E
:1019E000070003E000208DF80700FFE79DF80700DF
:1019F00002B080BD7047000080B586B08DF817003A
:101A0000049103920020029000F0D0FB02909DF917
:101A10001700019002980499039A00F003FA014616
:101A2000019800F0CBFB06B080BD000080B582B00D
:101A30000190019800F0E4FB02B080BD80B582B057
:101A40000190019800F024FA02B080BD80B5012019
:101A500000F004F8052000F0A5F880BD80B582B044
:101A60008DF807000020C4F202004FF4007100223C
:101A7000FFF744FF9DF80700000900F009F89DF802
:101A8000070000F00F0000F003F802B080BD000076
:101A900080B586B08DF817009DF8170000F0080299
:101AA0000020C4F202004FF48071FFF727FF9DF879
:101AB000170000F0040240F20040C4F2020001905E
:101AC0004FF48061FFF71AFF01989DF8171001F09D
:101AD00002021021FFF712FF01989DF8171001F084
:101AE00001022021FFF70AFF40F60000C4F20200C5
:101AF0000290802103910122FFF700FF3220049021
:101B000000F05AF8029803990022FFF7F7FE0498B4
:101B100000F052F806B080BD80B582B08DF80700A5
:101B20008DF8061044F20000C5F2144000909DF8B4
:101B30000600022804DBFFE700208DF80600FFE71F
:101B40009DF8070040F20831C2F20001C8709DF80C
:101B5000060008719DF807009DF806206946895C1B
:101B6000084440F08000C0B2FFF778FF02B080BDAB
:101B700080B582B08DF807000020C4F202004FF457
:101B800000710122FFF7BAFE9DF807000009FFF778
:101B90007FFF9DF8070000F00F00FFF779FF02B00C
:101BA00080BD000080B582B08DF807009DF8070069
:101BB000FFF7BCFC02B080BD80B584B0ADF80E006C
:101BC0004EF21400CEF200000068013044F6D3510A
:101BD000C1F26201A0FB011080090290FFF7A6FE8E
:101BE0004FF47A7148434EF21801CEF200010968B1
:101BF000029AB1FBF2F1401A00F57A700190FFE70A
:101C0000FFF794FE4FF47A7148434EF21801CEF27A
:101C100000010968029AB1FBF2F1401A0199401AD9
:101C200000F57A70BDF80E10884201D2FFE7E7E7B1
:101C300004B080BD80B540F20830C2F200000178E7
:101C400041F004010170007840F00800FFF706FF42
:101C500080BD000080B58CB00120089002200A9061
:101C6000002009904FF4007007900020C4F2020099
:101C7000059007A90691FFF77BFC06998020079045
:101C800040F60000C4F20200FFF772FC05980699C6
:101C900008220792FFF76CFC06992020079040F27B
:101CA0000040C4F202000490FFF762FC0498069919
:101CB00010220792FFF75CFC049806994FF48062AB
:101CC0000792FFF755FC059806994FF4807207922A
:101CD000FFF74EFCFFE7FFF729FEC72804D8FFE710
:101CE0000120FFF75FFFF6E740F20831C2F2000182
:101CF00002910020C87008714870487840F00800D0
:101D0000487003200090FFF7C3FE05200390FFF703
:101D100049FF0098FFF7BCFE0398FFF743FF0098C8
:101D2000FFF7B6FE0398FFF73DFF02200190FFF793
:101D3000AFFE0398FFF736FF0298407840F020008E
:101D4000FFF78CFE029904200870FFF773FFFFF77E
:101D50007DFE019902988170807840F00400FFF7C1
:101D60007DFE0398FFF71EFF0CB080BD80B582B0EA
:101D70008DF807008DF8061000929DF807009DF879
:101D80000610FFF7C9FEFFE700980078002846D04C
:101D9000FFE740F20830C2F20000C07810280EDBE6
:101DA000FFE740F20831C2F200010020C870087954
:101DB00001300871C8780979FFF7AEFEFFE7009897
:101DC00000780A280CD1FFE740F20831C2F2000186
:101DD000087901300871C8780979FFF79DFE1AE08B
:101DE000009800780D2809D1FFE740F20830C2F2D0
:101DF000000001790020FFF78FFE0BE000980078CB
:101E0000FFF7B6FE40F20831C2F20001C878013097
:101E1000C870FFE7FFE7009801300090B4E702B018
:101E200080BD000088B0079006910592079800F0E9
:101E3000070004900498C0F10700052803D3FFE7CA
:101E40000420019004E00498C0F107000190FFE72E
:101E50000198039004980430062803D8FFE7002077
:101E6000009003E0049803380090FFE70098029088
:101E700006980399012202FA01F101390840029BF8
:101E8000984005999A40013A1140084308B07047BC
:101E900080B582B0009000980138B0F1807F03D304
:101EA000FFE70120019019E0009801384EF214017B
:101EB000CEF2000108604FF0FF300F2100F07EF9F4
:101EC0004EF21801CEF20001002008604EF210021E
:101ED000CEF20002072111600190FFE7019802B0E5
:101EE00080BD000080B5FFF727FD80BD86B00021D2
:101EF00005910491022003900291019043F608009D
:101F0000C4F20200006800F00C00059005980090F3
:101F100040B1FFE7009804280ED0FFE7009808289A
:101F200014D059E040F20001C2F2000142F2004038
:101F3000C0F2F400086059E040F20001C2F2000172
:101F400047F64000C0F27D1008604FE043F6040001
:101F5000C4F202000168C1F380510291006800F0F0
:101F60003F000190029888B1FFE7019947F64000D1
:101F7000C0F27D10B0FBF1F043F60401C4F202019F
:101F80000968C1F388114843049010E0019942F2B6
:101F90000040C0F2F400B0FBF1F043F60401C4F2DB
:101FA00002010968C1F3881148430490FFE743F632
:101FB0000400C4F20200006800F44031022000EB8B
:101FC000D130039004980399B0FBF1F040F2000186
:101FD000C2F20001086009E040F20001C2F2000113
:101FE00042F20040C0F2F4000860FFE743F6080048
:101FF000C4F202000068C0B2010945F6AC20C0F688
:102000000000405C0590059A40F20001C2F2000118
:102010000868D040086006B0704700004EF688514E
:10202000CEF20001086840F47000086070470000BC
:1020300080B584B0039040F62442C4F20002002030
:10204000106040F60041C4F200010120086040F237
:102050001030C2F20000006840F20401C2F2000138
:102060000968126800FB01200290FFE702980399BB
:10207000884227DCFFE7029A40F21030C2F20000EB
:102080000190036840F21430C2F20000009045F65F
:10209000BC21C0F60001FEF753F9009A002001218F
:1020A000FFF764FE0198006840F20401C2F20001EB
:1020B000096840F62442C4F20002126800FB0120C5
:1020C0000290D3E740F60041C4F20001002008600E
:1020D00004B080BD40F61040C4F200000068C007A4
:1020E00080B1FFE740F21031C2F200010868013010
:1020F000086040F61041C4F20001086820F00100B9
:102100000860FFE77047000080B584B0039002913B
:1021100044F20041C4F200010868039A30201070B4
:102120000A68039A50700A68039A907009680399C4
:10213000C8700398002100910171039A0846FFF7C7
:1021400015FE00980190FFE701980299884213D28A
:10215000FFE744F20440C4F2000000680399019ACA
:10216000885403980199405C08B9FFE704E0FFE751
:10217000019801300190E7E704B080BD81B08DF88F
:1021800003009DF9030000280ED4FFE79DF903101A
:1021900001F01F02012090404A094EF20011CEF2D8
:1021A000000141F82200FFE701B070474EF60C50E5
:1021B000CEF200000068C0F30220704782B08DF8B4
:1021C000070000919DF9070000280AD4FFE7009856
:1021D00000019DF907104EF20042CEF20002885431
:1021E0000BE0009800019DF8071001F00F014EF67A
:1021F0001452CEF200028854FFE702B0704700008C
:1022000083B00290029800F0070000904EF60C5147
:10221000CEF200010868019001984FF6FF021040CD
:1022200001900198009A40EA02200022C0F2FA527E
:10223000104301900198086003B07047000000004F
:1022400083B080B5DDB0619360925F915FA95491D6
:102250005C900F205B905C9855905B98013002F089
:102260001EFF41EC110B9FEDE00B8DED560B01F0C5
:1022700013FD51EC100B02F0E3FE559A014692FB60
:10228000F1F000FB112002F00AFF41EC100B8DED84
:10229000580B5B9802F003FF9DED560B41EC110BC0
:1022A00001F0FAFC9DED581B51EC110B53EC102B77
:1022B00003F090F941EC100B51EC100B9FEDCC0B9F
:1022C00053EC102B03F090FA40B9FFE75499C86B18
:1022D000B1F85E100122FFF711FB07E05499C86BBB
:1022E000B1F85E100022FFF709FBFFE75B980138A9
:1022F0005B905C984F905B98013002F0D0FE41EC0F
:10230000110B9FEDB90B8DED500B01F0C5FC51EC9D
:10231000100B02F095FE4F9A014692FBF1F000FB84
:10232000112002F0BCFE41EC100B8DED520B5B98BE
:1023300002F0B5FE9DED500B41EC110B01F0ACFC31
:102340009DED521B51EC110B53EC102B03F042F995
:1023500041EC100B51EC100B9FEDA50B53EC102B27
:1023600003F042FA40B9FFE75499886BB1F85C106A
:102370000122FFF7C3FA07E05499886BB1F85C10AB
:102380000022FFF7BBFAFFE75B9801385B905C988F
:1023900049905B98013002F082FE41EC110B9FEDF9
:1023A000920B8DED4A0B01F077FC51EC100B02F013
:1023B00047FE499A014692FBF1F000FB112002F022
:1023C0006EFE41EC100B8DED4C0B5B9802F067FE3E
:1023D0009DED4A0B41EC110B01F05EFC9DED4C1B99
:1023E00051EC110B53EC102B03F0F4F841EC100BF3
:1023F00051EC100B9FED7E0B53EC102B03F0F4F916
:1024000040B9FFE75499486BB1F85A100122FFF721
:1024100075FA07E05499486BB1F85A100022FFF79B
:102420006DFAFFE75B9801385B905C9843905B988E
:10243000013002F034FE41EC110B9FED6B0B8DED82
:10244000440B01F029FC51EC100B02F0F9FD439A0A
:10245000014692FBF1F000FB112002F020FE41EC5E
:10246000100B8DED460B5B9802F019FE9DED440BB1
:1024700041EC110B01F010FC9DED461B51EC110BD2
:1024800053EC102B03F0A6F841EC100B51EC100BA1
:102490009FED570B53EC102B03F0A6F940B9FFE763
:1024A0005499086BB1F858100122FFF727FA07E09A
:1024B0005499086BB1F858100022FFF71FFAFFE794
:1024C0005B9801385B905C983D905B98013002F01E
:1024D000E6FD41EC110B9FED440B8DED3E0B01F041
:1024E000DBFB51EC100B02F0ABFD3D9A014692FB79
:1024F000F1F000FB112002F0D2FD41EC100B8DED4C
:10250000400B5B9802F0CBFD9DED3E0B41EC110BB7
:1025100001F0C2FB9DED401B51EC110B53EC102B55
:1025200003F058F841EC100B51EC100B9FED300B01
:1025300053EC102B03F058F940B9FFE75499C86ADF
:10254000B1F856100122FFF7D9F907E05499C86A8B
:10255000B1F856100022FFF7D1F9FFE75B98013878
:102560005B905C9837905B98013002F098FD41ECED
:10257000110B9FED1D0B8DED380B01F08DFB51EC18
:10258000100B02F05DFD379A014692FBF1F000FB63
:10259000112002F084FD41EC100B8DED3A0B5B989D
:1025A00002F07DFD9DED380B41EC110B01F074FB49
:1025B0009DED3A1B51EC110B53EC102B03F00AF874
:1025C00041EC100B51EC100B9FED090B53EC102B51
:1025D00003F00AF980B9FFE75499886AB1F85410FA
:1025E0000122FFF78BF90FE000000000000000401F
:1025F00000000000000000005499886AB1F85410EF
:102600000022FFF77BF9FFE75B9801385B905C984D
:1026100031905B98013002F042FD41EC110B1FED4F
:102620000E0B8DED320B01F037FB51EC100B02F06D
:1026300007FD319A014692FBF1F000FB112002F0F8
:102640002EFD41EC100B8DED340B5B9802F027FD55
:102650009DED320B41EC110B01F01EFB9DED341B87
:1026600051EC110B53EC102B02F0B4FF41EC100BAA
:1026700051EC100B1FED220B53EC102B03F0B4F8B0
:1026800040B9FFE75499486AB1F852100122FFF7A8
:1026900035F907E05499486AB1F852100022FFF763
:1026A0002DF9FFE75B9801385B905C982B905B9865
:1026B000013002F0F4FC41EC110B1FED350B8DEDF8
:1026C0002C0B01F0E9FA51EC100B02F0B9FC2B9A3B
:1026D000014692FBF1F000FB112002F0E0FC41EC1E
:1026E000100B8DED2E0B5B9802F0D9FC9DED2C0BA1
:1026F00041EC110B01F0D0FA9DED2E1B51EC110BAA
:1027000053EC102B02F066FF41EC100B51EC100B58
:102710001FED490B53EC102B03F066F840B9FFE7AF
:102720005499086AB1F850100122FFF7E7F807E062
:102730005499086AB1F850100022FFF7DFF8FFE75C
:102740005B9801385B905C9825905B98013002F0B3
:10275000A6FC41EC110B1FED5C0B8DED260B01F07F
:102760009BFA51EC100B02F06BFC259A014692FB90
:10277000F1F000FB112002F092FC41EC100B8DED0A
:10278000280B5B9802F08BFC9DED260B41EC110BA6
:1027900001F082FA9DED281B51EC110B53EC102B2C
:1027A00002F018FF41EC100B51EC100B1FED700BF9
:1027B00053EC102B03F018F840B9FFE75499C8699F
:1027C000B1F84E100122FFF799F807E05499C86953
:1027D000B1F84E100022FFF791F8FFE75B9801383F
:1027E0005B905C981F905B98013002F058FC41ECC4
:1027F000110B1FED830B8DED200B01F04DFA51EC09
:10280000100B02F01DFC1F9A014692FBF1F000FB39
:10281000112002F044FC41EC100B8DED220B5B9873
:1028200002F03DFC9DED200B41EC110B01F034FA60
:102830009DED221B51EC110B53EC102B02F0CAFE44
:1028400041EC100B51EC100B9FEDEB0B53EC102BEC
:1028500002F0CAFF40B9FFE754998869B1F84C10FB
:102860000122FFF74BF807E054998869B1F84C1042
:102870000022FFF743F8FFE75B9801385B905C9814
:1028800019905B98013002F00AFC41EC110B9FEDAE
:10289000D80B8DED1A0B01F0FFF951EC100B02F083
:1028A000CFFB199A014692FBF1F000FB112002F0D8
:1028B000F6FB41EC100B8DED1C0B5B9802F0EFFB6F
:1028C0009DED1A0B41EC110B01F0E6F99DED1C1B7F
:1028D00051EC110B53EC102B02F07CFE41EC100B71
:1028E00051EC100B9FEDC40B53EC102B02F07CFF4E
:1028F00040B9FFE754994869B1F84A100122FEF740
:10290000FDFF07E054994869B1F84A100022FEF72C
:10291000F5FFFFE75B9801385B905C9813905B983C
:10292000013002F0BCFB41EC110B9FEDB10B8DEDC2
:10293000140B01F0B1F951EC100B02F081FB139A6A
:10294000014692FBF1F000FB112002F0A8FB41ECE4
:10295000100B8DED160B5B9802F0A1FB9DED140B97
:1029600041EC110B01F098F99DED161B51EC110B88
:1029700053EC102B02F02EFE41EC100B51EC100B1F
:102980009FED9D0B53EC102B02F02EFF40B9FFE79B
:1029900054990869B1F848100122FEF7AFFF07E02B
:1029A00054990869B1F848100022FEF7A7FFFFE725
:1029B0005B9801385B905C980D905B98013002F059
:1029C0006EFB41EC110B9FED8A0B8DED0E0B01F0B0
:1029D00063F951EC100B02F033FB0D9A014692FBA8
:1029E000F1F000FB112002F05AFB41EC100B8DEDD1
:1029F000100B5B9802F053FB9DED0E0B41EC110B9D
:102A000001F04AF99DED101B51EC110B53EC102B0A
:102A100002F0E0FD41EC100B51EC100B9FED760B3A
:102A200053EC102B02F0E0FE40B9FFE75499C86860
:102A3000B1F846100122FEF761FF07E05499C8681B
:102A4000B1F846100022FEF759FFFFE75B98013806
:102A50005B905C9807905B98013002F020FB41ECA2
:102A6000110B9FED630B8DED080B01F015F951EC87
:102A7000100B02F0E5FA079A014692FBF1F000FB19
:102A8000112002F00CFB41EC100B8DED0A0B5B9852
:102A900002F005FB9DED080B41EC110B01F0FCF879
:102AA0009DED0A1B51EC110B53EC102B02F092FD23
:102AB00041EC100B51EC100B9FED4F0B53EC102B16
:102AC00002F092FE40B9FFE754998868B1F84410CB
:102AD0000122FEF713FF07E054998868B1F844100B
:102AE0000022FEF70BFFFFE75B9801385B905C98D4
:102AF00001905B98013002F0D2FA41EC110B9FED8E
:102B00003C0B8DED020B01F0C7F851EC100B02F0FD
:102B100097FA019A014692FBF1F000FB112002F0B6
:102B2000BEFA41EC100B8DED040B5B9802F0B7FA86
:102B30009DED020B41EC110B01F0AEF89DED041B75
:102B400051EC110B53EC102B02F044FD41EC100B37
:102B500051EC100B9FED280B53EC102B02F044FEB0
:102B600040B9FFE754994868B1F842100122FEF7D6
:102B7000C5FE07E054994868B1F842100022FEF7FC
:102B8000BDFEFFE75B9801385B905C9800905B9816
:102B9000013002F084FA41EC110B9FED150B01F0AE
:102BA0007BF851EC100B02F04BFA009A014692FBB5
:102BB000F1F000FB1120012808D1FFE754990868C3
:102BC000B1F840100122FEF799FE07E05499086819
:102BD000B1F840100022FEF791FEFFE75B98013844
:102BE0005B905DB0BDE8804003B0704700BF00BFA0
:102BF0000000000000000040000000000000000095
:102C00002DE9F04FADF5197D00209890FFF76EF992
:102C1000FEF7A0FEFFE70020979043F63000C4F2D5
:102C20000200016841F001010160006800F001004C
:102C300097909798FFE7FFE70020969043F63000C3
:102C4000C4F20200016841F002010160006800F076
:102C5000020096909698FFE7FFE70020959043F6D4
:102C60003000C4F20200016841F004010160006814
:102C700000F0040095909598FFE7FEF7EBFF43F610
:102C80004001C4F202014C91086840F0080008605D
:102C90000021C4F202014A91086840F00200086075
:102CA0002021C4F202014B91086840F00200086044
:102CB00040F29420C2F200000068013840F628413A
:102CC000C4F20001086040F20400C2F20000006893
:102CD00040F62C41C4F20001086040F60C41C4F2F9
:102CE0000001086840F00100086032205490FFF7AE
:102CF00045FA0120529091900020559092904FF407
:102D000080505390909040F20040C4F202004890EE
:102D100090A94791FEF72CFC479948984FF4005230
:102D20004F929092FEF724FC479948984FF48042C6
:102D300050929092FEF71CFC479948984FF400423D
:102D400051929092FEF714FC47995298909040F659
:102D50000000C4F202004E90FEF70AFC47994E981C
:102D6000022249929092FEF703FC47994E984FF049
:102D7000040BCDF840B2FEF7FBFB47994E984FF09D
:102D8000080ACDF840A2FEF7F3FB47994E984FF0A2
:102D90001009CDF84092FEF7EBFB47994E984FF0A3
:102DA0002008CDF84082FEF7E3FB47994E98402774
:102DB0009097FEF7DDFB47994E984FF480769096FA
:102DC000FEF7D6FB47994E984FF400759095FEF7A5
:102DD000CFFB47994E984FF480649094FEF7C8FB60
:102DE00047994E984FF400624D929092FEF7C0FBC7
:102DF00047994E98539A9092FEF7BAFB4799519A89
:102E00004A989092FEF7B4FB48984999DDF828C19A
:102E10004B9B4C9ADDF834E1789079907A907B90D6
:102E20004E987C907D907E907F9080908190829053
:102E3000839084908590869087905398ADF8200277
:102E40004F98ADF822025098ADF824025198ADF891
:102E500026025298ADF828025398ADF82A125499D8
:102E6000ADF82CB2ADF82EA2ADF83092ADF83282AA
:102E7000ADF83472ADF83662ADF83852ADF83A427A
:102E8000ADF83CE2ADF83E02DCF8000040F0200076
:102E9000CCF80000DCF8000040F08000CCF8000026
:102EA000186840F4E0601860186840F4E04018606A
:102EB000106840F40030106044F20C42C4F200028A
:102EC000106840F40050106044F20843C4F200035C
:102ED00040F283601860106840F0080010601068CD
:102EE00040F0040010600DF5D7705690FDF75DFAC4
:102EF00054992A208DF8AE015FA8FDF756FA55992E
:102F0000569A54208DF87C0145238DF87D3153234A
:102F10008DF87E318DF87F0144F20040C4F200004C
:102F20005790036803F0020330338DF8AE31036825
:102F300003F0040330338DF8AF31036803F0080366
:102F400030338DF8B031036803F0100330338DF85F
:102F5000B131036803F0200330338DF8B2310068DB
:102F600000F080008DF8B3018DF8B4110846FEF72B
:102F7000FDFE5799086820F020000860FFE740F246
:102F80009020C2F20000006878B9FFE70DF5D77015
:102F90004690FDF7EBF901464698FFF7B5F8469ADB
:102FA00000210846FEF7E2FEE9E740F29820C2F26F
:102FB0000000016844F24020C0F20F00B0FBF1F0C5
:102FC00000EB401080005E9049F28060C0F29800F3
:102FD000FFF72EF8FFE740F29020C2F200000068F1
:102FE000012840F0E380FFE70020C4F20200439094
:102FF0004FF4004144910122FEF780FC439844992C
:1030000000224592FEF77AFC45985D90FFE75D98B7
:10301000202833DCFFE75D9940F20800C2F200008F
:1030200050F8210000F500403F9078A800F10C0115
:103030006846542240924191429042984199409A68
:1030400051F8043B40F8043B043A409241914290CD
:10305000F3D13F987899799A7A9BFFF7F1F8072096
:10306000FEF7E6FF0020C4F202004FF40041FEF735
:1030700031FCFFE75D9801305D90C8E720205D904E
:10308000FFE75D9800282CD4FFE75D9940F2080027
:10309000C2F2000050F8210000F500403B9078A8F3
:1030A00000F10C01684654223C923D913E903E98BE
:1030B0003D993C9A51F8043B40F8043B043A3C9259
:1030C0003D913E90F3D13B987899799A7A9BFFF79E
:1030D000B7F80720FEF7ACFFFFE75D9801385D9079
:1030E000CFE700205D90FFE75D9820282BDCFFE70D
:1030F0005D9940F20800C2F2000050F821003790BC
:1031000078A800F10C0168465422389239913A901F
:103110003A983999389A51F8043B40F8043B043AFC
:10312000389239913A90F3D137987899799A7A9B75
:10313000FFF786F84FF42F70FEF77AFFFFE75D98F0
:1031400001305D90D0E720205D90FFE75D9800287A
:103150002BD4FFE75D9940F20800C2F2000050F85E
:103160002100339078A800F10C0168465422349273
:103170003591369036983599349A51F8043B40F899
:10318000043B043A349235913690F3D133987899D0
:10319000799A7A9BFFF754F84FF42F70FEF748FFA7
:1031A000FFE75D9801385D90D0E714E7FFE740F254
:1031B0009020C2F200000068022854D1FFE70020EE
:1031C0005C90FFE75C98202823DCFFE778A800F1FB
:1031D0000C016846542230923191329032983199E4
:1031E000309A51F8043B40F8043B043A3092319154
:1031F0003290F3D17899799A7A9B40F6FF70FFF775
:103200001FF80720FEF714FFFFE75C9801305C9081
:10321000D8E720205C90FFE75C98002822D4FFE7E5
:1032200078A800F10C01684654222D922E912F901F
:103230002F982E992D9A51F8043B40F8043B043AFC
:103240002D922E912F90F3D17899799A7A9B002024
:10325000FEF7F6FF0720FEF7EBFEFFE75C9801386C
:103260005C90D9E7A3E7FFE740F29020C2F20000AC
:103270000068032832D1FFE700205B90FFE75B98EE
:1032800080282ADCFFE75B9940F28C00C2F2000044
:1032900050F82100299078A800F10C0168465422CA
:1032A0002A922B912C902C982B992A9A51F8043B16
:1032B00040F8043B043A2A922B912C90F3D12998A0
:1032C0007899799A7A9BFEF7BBFF0720FEF7B0FE4C
:1032D000FFE75B9801305B90D1E7C5E7FFE740F27D
:1032E0009020C2F20000006804287AD1FFE7002095
:1032F000C4F2020026904FF4004127910122FEF70C
:10330000FDFA2698279900222892FEF7F7FA2898C6
:103310005A90FFE75A98202831DCFFE75A9940F28B
:103320000800C2F2000050F82100229078A800F1B5
:103330000C016846542223922491259025982499C3
:10334000239A51F8043B40F8043B043A2392249119
:103350002590F3D122987899799A7A9BFEF770FF9D
:103360000720FEF765FE0020C4F202004FF4004182
:10337000FEF7B0FAFFE75A9801305A90CAE72020CA
:103380005A90FFE75A9800282AD4FFE75A9940F24A
:103390000800C2F2000050F821001E9078A800F149
:1033A0000C01684654221F92209121902198209967
:1033B0001F9A51F8043B40F8043B043A1F922091B5
:1033C0002190F3D11E987899799A7A9BFEF738FF6D
:1033D0000720FEF72DFEFFE75A9801385A90D1E7F3
:1033E0007DE7FFE740F29020C2F200000068052868
:1033F00032D1FFE700205990FFE759983F282ADC97
:10340000FFE7599940F28C00C2F2000050F8210009
:103410001A9078A800F10C01684654221B921C9166
:103420001D901D981C991B9A51F8043B40F8043BD1
:10343000043A1B921C911D90F3D11A987899799AAD
:103440007A9BFEF7FDFE3220FEF770F8FFE75998F1
:1034500001305990D1E7C5E7FFE740F29020C2F272
:103460000000006806282FD1FFE700205890FFE7F2
:1034700058981F2827DCFFE7589940F28C00C2F2C9
:10348000000050F82100169078A800F10C01684661
:10349000542217921891199019981899179A51F85F
:1034A000043B40F8043B043A179218911990F3D169
:1034B00016987899799A7A9BFEF7C2FEFFE758989A
:1034C00001305890D4E7C8E700200DF5197DBDE81C
:1034D000F08F5FEA400C08BF91F0000F4FEA8C2399
:1034E0004FEAC12243EA51514FEA1C5018BF00F580
:1034F000F0404FEA300018BF41F000415FEA6C5CD9
:1035000000F02980BCF1FF3F08BF40F080407047C9
:10351000130C06BF12044FF0100C4FF0000C130EEA
:1035200004BF12020CF1080C130F04BF12010CF1BE
:10353000040C930F04BF92000CF1020CD30F04BFD4
:1035400052000CF1010C11464FF00002A0F11F00D7
:10355000A0EB0C00704711F0004F08BF704731F02E
:1035600000413FF4D5AF0B0C06BF09044FF0100C1F
:103570004FF0000C0B0E04BF09020CF1080C0B0FEE
:1035800004BF09010CF1040C8B0F04BF89000CF17E
:10359000020CCB0F04BF49000CF1010CCCF120034D
:1035A00022FA03F341EA030102FA0CF2A0EB0C0049
:1035B00000F101007047000023F07F4720F07F4CAE
:1035C00080EA030000F00040ACEB070303F57C53F6
:1035D00003F1FF032DE9804909B44FEA144324EABB
:1035E00003484FEA154B25EA0B4E0FF2042606EB73
:1035F00013273E7803FB0667C7F5000707FB06F6AF
:103600004FEAD64606F102064FEA543707FB066C2E
:10361000CCF1005C4FEA1C472CEA074C0CFB06F58A
:1036200007FB06F404EB15464FEA961649085FEAD5
:10363000320234BF00204FF000404FEAD13706FB82
:1036400007FC4FEA1C4C0CFB0BF7D21B03FB0CF7DF
:1036500061EB07010CFB0EF7B0EB074072EB174272
:103660000CFB08F734BFA2EB0742B2EB074261EB59
:1036700017414FEA0C444FEA910706FB07FC4FEA5B
:103680001C4C0CFB0BF7B0EBC74072EB573203FB43
:103690000CF734BFA2EBC742B2EBC74261EB573124
:1036A0000CFB0EF7B0EBC70072EB57720CFB08F780
:1036B00034BFA2EBC702B2EBC70261EB57714FEA0E
:1036C000816141EA92114FEA826242EA90124FEA26
:1036D000806004EBCC04039F4FEAD13706FB07FC64
:1036E0004FEA1C4C0CFB0BF7D21B03FB0CF761EBF6
:1036F00007010CFB0EF7B0EB074072EB17420CFB17
:1037000008F734BFA2EB0742B2EB074261EB174167
:103710004FEA8C5504EB9C244FEA910706FB07FC0B
:103720004FEA1C4C0CFB0BF7B0EBC74072EB573267
:1037300003FB0CF734BFA2EBC742B2EBC74261EB0D
:1037400057310CFB0EF7B0EBC70072EB57720CFB56
:1037500008F734BFA2EBC702B2EBC70261EB5771A7
:103760004FEA816141EA92114FEA826242EA901285
:103770004FEA806015EB4C2544F100044FEAD13745
:1037800006FB07FC4FEA1C4C0CFB0BF7D21B03FBA0
:103790000CF761EB07010CFB0EF7B0EB074072EB87
:1037A00017420CFB08F734BFA2EB0742B2EB07420B
:1037B00061EB17414FEA813141EA92414FEA82328F
:1037C00042EA90424FEA80304FEA0C7615EB1C1526
:1037D00044F1000448EA03434EEA0B484FF0000E60
:1037E000B2EB080C71EB030724BF624639464EEB7F
:1037F0000E0E4FF0000B0018524149414BEB0B0BE2
:10380000B2EB080C71EB03077BF1000B24BF62469F
:1038100039464EEB0E0E4FF0000B00185241494155
:103820004BEB0B0BB2EB080C71EB03077BF1000BBE
:1038300024BF624639464EEB0E0E51EA020718BF0E
:1038400046F0010616EB0E7655F1000254F1000128
:1038500003D5BDE88901BDE80088BDE88901BDE860
:103860000048B619524141EB0101A3F10103704731
:1038700080807F7E7D7C7B7A7978777676757473AD
:10388000727171706F6E6E6D6C6C6B6A6A6968686C
:10389000676666656464636362616160605F5F5E02
:1038A0005E5D5D5C5C5B5B5A5A5959585857575678
:1038B00056555555545453535252525151505050DD
:1038C0004F4F4F4E4E4D4D4D4C4C4C4B4B4B4A4A2F
:1038D0004A49494948484847474747464646454573
:1038E00045444444444343434342424242414141AC
:1038F0009C46002B30D477002BD04FEA37071CB5FD
:1039000003B44FF010004FF01001BAF1000F06D0D1
:10391000BCF1000FDCBF40F0080040F008014FF0A0
:1039200000000FBCBDE810400BF1010BBBF1010F13
:1039300008BF5FEA170722BF12F1010211F101016E
:103940004FF0004143F1000300F0004043EA000063
:103950007047F9D35708D0E746EA06464FEA1646BD
:1039600013F1400F1FDD13F1200FDFBF16430A468E
:10397000002120335B42BED0C3F1200746EA064651
:103980004FEA164602FA07F746EA070622FA03F25A
:10399000C3F1200701FA07F742EA070221FA03F10F
:1039A0004FF00003A7E746EA020646EA06464FEA5A
:1039B000164646EA0106BCBF46EA0646360C4FF0FC
:1039C00000034FF000024FF0000194E72DE9804C16
:1039D00070B49A46934691E8380007C831EA400C23
:1039E00048BF34EA430C03D5FFF7E6FDFFF780FF3D
:1039F000F0BCBDE8008C2DE9804C70B49A4693462B
:103A000091E8380007C810F0804F08BF13F0804FCE
:103A100003D100F005F8FFF76BFFF0BCBDE8008CA8
:103A200020F07F4723F07F4C80EA030000F0004045
:103A300007EB0C03A3F57C53A3F1FE0392F0000FF8
:103A400000F0B38095F0000F00F077802DE9014978
:103A50004FEA114021EA00484FEA144624EA06479B
:103A600000FB06FC08FB06F607FB08F818EB064807
:103A70004CEB164C00FB07F718EB07484CEB1740D4
:103A80004FEA124B22EA0B4E4FEA154625EA06474B
:103A90000BFB06FC0EFB06F607FB0EFE1EEB064EAE
:103AA0004CEB164C0BFB07F71EEB074E4CEB174B82
:103AB00018EB0B0840F1000018EB0E0B58EB000858
:103AC00040F100008F1A4FF000014FF000063CBF9C
:103AD000C943661B14BFB5EB040C00213CBFC943AE
:103AE000F61B4FEA174427EA04454FEA1C472CEA25
:103AF000074C04FB076205FB07F70CFB05F616EB0A
:103B0000074642EB174204FB0CFC16EB0C4642EB5B
:103B10001C421BEB060658EB020241414EEA8E0E98
:103B200046EA9E0601D5BDE80189B619524141EB2E
:103B30000101A3F10103BDE801894FEA144524EA1C
:103B400005464FEA114721EA074C05FB07F406FB3F
:103B500007F70CFB06F111EB074144EB174405FB9B
:103B60000CFC11EB0C4144EB1C444FEA124722EAD7
:103B7000074C05FB07F206FB07F70CFB06F616EBF6
:103B8000074642EB174205FB0CFC16EB0C4642EBDA
:103B90001C456A1854F1000148BF7047B6195241DC
:103BA00041EB0101A3F10103704795F0000F37D0FD
:103BB0004FEA114221EA02464FEA144724EA074C31
:103BC00002FB07F106FB07F70CFB06F414EB0744B6
:103BD00041EB174102FB0CFC14EB0C4441EB1C4184
:103BE0004FEA154725EA074C02FB07F506FB07F7E6
:103BF0000CFB06F616EB074645EB174502FB0CFCE3
:103C000016EB0C4645EB1C42121951F1000148BF5E
:103C10007047B619524141EB0101A3F1010370470E
:103C20004FEA144524EA05464FEA114721EA074CBA
:103C300005FB07F106FB07F70CFB06F212EB074248
:103C400041EB174105FB0CFC12EB0C4251EB1C4104
:103C50004FF0000648BF7047921841EB0101A3F1F5
:103C60000103704703B401984100009850EAC12055
:103C700018BF04204A0D18BF40F0010040F2FF7247
:103C8000B2EB515F08BF40F00200012808BF0520D9
:103C900002B07047000000002DE9F04D2DED040B3F
:103CA0002DED0E8B94B0DDE92350259CDDF888A026
:103CB00025F0004624F00048BAF1000F14BF01219E
:103CC000002101EB4502FC4953184A1093422AD3C4
:103CD000002814BF0123002303EB44030B44F749DE
:103CE0008B4220D358EA00019FEDF5AB76D0DFF888
:103CF000D8B35D4503D1BAF1000F05D188E0BAF120
:103D0000000F08BF002100D0012101EB450111F592
:103D1000001F08D8002814BF0121002101EB440135
:103D200011F5001F0BD99DED241B9DED220B14B046
:103D3000BDEC0E8B04B0BDE8F04D00F071BE002765
:103D4000002DBCBFE149884521DAE1498845A8BF7B
:103D500002271CDAC3451ADCDE4901EB285114297D
:103D600008DDC1F1340220FA02F101FA02F28242C6
:103D70000DD108E058B9C1F1140228FA02F101FA94
:103D800002F2424503D101F00101C1F1020756EAF6
:103D90000A0124D1002C22DA002D18BF022F01D0F5
:103DA000012F0AD00220FCF72AFB14B0BDEC0E8BC9
:103DB00004B0BDE8F04D00F01BBE0220FCF71FFB75
:103DC00000F016FE51EC100B00F0DCFE41EC100B85
:103DD00014B0BDEC0E8B04B0BDE8F08D18E09FED83
:103DE000BE9B9FEDBF8B002871D1B848804522D182
:103DF00005F1804010F5801008BFBAF1000F07D020
:103E0000B3450ADC002CA8BF9DED240BE0DA0DE0E1
:103E1000B0EE4A0AF0EE6A0ADAE7002C06DA9DED07
:103E2000240B51EC100B00F0ADFE6FE0AE4878446F
:103E300090ED000BCCE7D8454DD1002C48DA2EB1DF
:103E400086423AD1BAF1000F42D126E0BAF1000F12
:103E500013D00220FCF7D3FA00F0FEFD8DED020B2B
:103E60009DED220B8DED000B10EE900A039961F38E
:103E70001E0003909DED020BAAE78DED029B9DEDC8
:103E8000220B19EE901A10EE900A8DED000B61F3E3
:103E90001E0003909DED020B9AE78DED028B9DEDC8
:103EA000220B18EE901A10EE900A8DED000B61F3C4
:103EB0001E0003909DED020B8AE709DA9DED220BAF
:103EC00051EC1A0B53EC102B00F024FF1EE020E005
:103ED0009DED220B7CE786421BDAB4F1804F0DD0BA
:103EE000A4F10050B0F1FF5013D1002D11DB9DED76
:103EF000220B51EC100B00F0E2FD07E09DED220BD0
:103F000053EC102B51EC100B00F0CABC41EC100B21
:103F10005EE79DED220B51EC100B00F0C4FDBAF1F1
:103F2000000FCDE90A0142D19FED710B46B3A6F116
:103F3000E040B0F17F600CD05E4538D1002D00DA52
:103F4000A7B3022F0CBF01204FF0FF3001F0A7F8FC
:103F5000DCE7002D01DD002C0DDA002D01DD002C49
:103F60001FDB002D16DA002C14DB012F08BF9FED9C
:103F7000620B3FF42DAFB0EE490AF0EE690A27E775
:103F8000022F18BF002D0CD0012F0AD1002DFFF6F3
:103F90001FAF06E0002DB8BF002C08DA012F3FF458
:103FA00017AFB0EE480AF0EE680A11E71BE00120F7
:103FB00000EBE57050EA070115D0791EB0EE4A8A91
:103FC000F0EE6A8A084308BF9FED4D8B4E480025EE
:103FD000804570DD4D494E48884514DDB0420DDB0B
:103FE000002C19DB2FE00120FCF709FA14B0BDEC1E
:103FF0000E8B04B0BDE8F04D00F01EBDB34502DCF1
:10400000002C09DC1FE0864202DA002C1BDA03E0F8
:104010005E452BDD002C16DD0220FCF7F0F900F0E8
:104020001BFD8DED020B53EC192B51EC180B01F01D
:10403000C5F8CDE900010399019861F31E000390D2
:104040009DED020BC4E60220FCF7D9F900F014FD47
:1040500010EE901A18EE900A8DED020B8DED008B8C
:1040600061F31E0003909DED020BB1E69DED0A0B7E
:1040700053EC1A2B51EC100B01F0ACFA9FED260B10
:10408000CDE90A0153EC102B9DED0A0B51EC100BFE
:1040900001F094F89FED221B53EC112B01F0C2F9B3
:1040A0009DED0A1B53EC112B01F088F89FED1E1BB0
:1040B00053EC112B3CE08CE0FFFF1F00FFFF0F00D3
:1040C000000000000000F03F0000F03F0000F07F23
:1040D0000000404301FCFFFF000000000000F07FF3
:1040E0000000000000000000B61B000000000000FF
:1040F0000000000000000080000000000000F0FF51
:10410000000000000000F0BF0000E0410000F043AC
:10411000FFFFEF3F00000000000000000000D03F64
:10412000555555555555D53F000000000000E03F5E
:1041300001F078F99DED0A0B41EC190B53EC102BB3
:1041400051EC100B01F03AF853EC192B01F036F852
:104150009DED0A0B41EC1B0B53EC102B9FEDFE0B5E
:1041600051EC100B01F02AF841EC190B9FEDFC0B00
:1041700051EC1B0B53EC102B01F020F841EC1B0B06
:104180009FEDF90B53EC102B9DED0A0B51EC100B2E
:1041900001F014F853EC1B2B01F01CFA41EC1B0B43
:1041A00051EC190B53EC1B2B00F0F8FC0490CDE9FB
:1041B00004519DED040B53EC192B51EC100B01F045
:1041C00009FA53EC1B2B01F02DF941EC100B00F018
:1041D000A9B90020B6F5801F0EDA9FEDE50B53EC70
:1041E000102B9DED0A0B51EC100B00F0E7FFCDE911
:1041F0000A016FF034000E4600EB2650A0F2FF37A4
:10420000C6F31300DC4940F07F6646F04056884212
:10421000D8BF002408DDD9498142C8BF012403DC8E
:104220000024A6F580167F1CD548784400EBC4080E
:104230000B9698ED000B53EC102B9DED0A0B51ECF7
:10424000100B01F0C7F998ED000B41EC1B0B53EC80
:10425000102B9DED0A0B51EC100B00F09FFC41EC74
:10426000100B51EC1A0B53EC102B00F053FD41ECEA
:104270001C0B51EC1B0B53EC1C2B00F09FFF41EC73
:10428000190BC0488DED0E9B78440E9590ED000BF8
:104290004FF0005040EA660000EB84408DED120BB9
:1042A00000F50020139098ED000B53EC102B9DEDC2
:1042B000120B51EC100B01F08DF99DED0A1B53EC24
:1042C000112B01F0AFF841EC100B53EC102B9DEDCE
:1042D0000E0B51EC100B00F071FF9DED120B41EC39
:1042E0001D0B53EC102B9DED0E0B51EC100B00F041
:1042F00065FF53EC1B2B01F095F853EC1D2B01F0DF
:1043000069F953EC1C2B00F059FF41EC1C0B53ECEA
:10431000192B51EC190B00F051FF41EC1B0B9A4883
:104320000621B0EE4B0AF0EE6B0A784400F0E4FA96
:10433000B0EE401AF0EE601AB0EE41DAF0EE61DA5B
:1043400053EC1B2B51EC1B0B00F038FF53EC1D2BD7
:1043500000F034FF9DED0E0B41EC1B0B53EC192BC1
:1043600051EC100B00F01AFC53EC1C2B00F026FF54
:1043700053EC1B2B00F012FC9DED0E0B41EC1B0BC4
:1043800053EC102B51EC100B00F018FF41EC1D0BFF
:1043900053EC1D2B9FED7EEB51EC1E0B00F0FEFB52
:1043A00053EC1B2B00F0FAFB1290CDE912519DED5E
:1043B000120B53EC1E2B51EC100B01F00BF953ECCC
:1043C0001D2B01F007F953EC1B2B01F02BF89DED91
:1043D000120B41EC1D0B53EC102B9DED0E0B51EC11
:1043E000100B00F0EBFE41EC1B0B53EC192B51ECC6
:1043F0001D0B00F0E3FE9DED120B41EC190B53EC8D
:10440000102B51EC1C0B00F0D9FE53EC192B00F0D3
:10441000C5FB41EC190B51EC1B0B53EC192B00F0B5
:10442000BDFB0490CDE904519DED040B53EC1B2B17
:1044300051EC100B01F0CEF853EC192B00F0F2FF09
:104440009DED040B41EC190B53EC102B9FED520B1F
:1044500051EC100B00F0B2FE41EC1B0B9FED500B2A
:1044600051EC190B53EC102B00F0A8FE9DED040B42
:1044700041EC190B53EC102B9FED4B0B51EC100B37
:1044800000F09CFE53EC192B00F088FB41EC100B64
:104490004748784400EBC40090ED001B51EC100B32
:1044A00053EC112B00F07AFB41EC190B384600F06D
:1044B000F6FDCDE90A0153EC192B51EC1B0B00F072
:1044C0006DFB41EC100B3B48784400EBC40451EC0D
:1044D000100B94ED001B53EC112B00F05FFB9DEDD6
:1044E0000A1B53EC112B00F059FB0490CDE9045149
:1044F0009DED0A0B53EC102B9DED040B51EC100BB2
:1045000001F068F894ED001B53EC112B01F062F8F8
:1045100053EC1B2B01F05EF853EC192B00F082FFDB
:1045200041EC100B9DED241B53EC102B8DED001B6B
:1045300000959DED240B51EC100B00F03FFE9DED1E
:10454000000B41EC190B53EC102B9DED240B51EC9F
:10455000100B01F03FF82FE0000000604715F73F17
:10456000FE822B654715F73F44DF5DF80BAE543EE6
:1045700000000000000040438E9803007AB60B0054
:10458000EA1600005C1700001A1600000000000088
:104590000000000000000840000000E009C7EE3FF6
:1045A000FD033ADC09C7EE3FF5015B14E02F3EBE88
:1045B000A21400005C1400009DED041B53EC112BB1
:1045C00000F0FCFD53EC192B00F0E8FA9DED040B14
:1045D00041EC190B53EC102B9DED000B51EC100B23
:1045E00000F0ECFDCDE904019DED040B51EC190B3D
:1045F00053EC102B00F0D2FACDE902010C46AA4987
:104600008C422FDB611A084318D19DED040B53EC4B
:10461000102B9DED020B51EC100B00F0DBFF41EC79
:104620001B0B9FEDA30B51EC190B53EC102B00F05F
:10463000B5FA53EC1B2B00F0BFFE2DD20220FBF786
:10464000DEFE00F009FA10EE901A18EE900A8DEDD9
:10465000020B8DED008B61F31E0003909DED020BAC
:10466000FFF7B6BB944A24F00041914214D393491A
:10467000214408437FF4E7AC9DED040B53EC102B71
:104680009DED020B51EC100B00F0A4FF53EC192B25
:1046900000F092FE7FF6D7AC24F000408849894AAA
:1046A000002601EB205182422BDA481C4FF4801186
:1046B00021FA00F02044844AC0F30A517A44A1F25E
:1046C000FF3192ED000B814A8DED0A0BCA4020EAC2
:1046D0000202C0F3130040F48010C1F1140120FA6B
:1046E00001F60B92002CB8BF76429DED0A0B53ECFD
:1046F000102B9DED040B51EC100B00F06BFFCDE97E
:1047000004019DED040B51EC190B53EC102B00F040
:1047100045FA9FED6F0B0A90CDE90A5153EC102B2F
:104720009DED0A0B51EC100B00F048FD41EC1B0B0A
:104730009FED690B53EC102B9DED0A0B51EC100B08
:1047400000F03CFD9DED040B41EC1C0B53EC102BD9
:104750009DED0A0B51EC100B00F03CFF53EC192BB4
:1047600000F060FE9FED5E1B53EC112B00F026FD68
:1047700053EC1C2B00F012FA41EC190B51EC1B0B03
:1047800053EC192B00F00AFACDE902019DED020B62
:1047900053EC1B2B51EC100B00F01CFF53EC192BAE
:1047A00000F040FE9DED020B41EC190B53EC102B79
:1047B00051EC100B00F002FDCDE90A014A489DEDD5
:1047C0000A0B0521784400F097F89DED0A1B51EC87
:1047D000100B53EC112B00F0F1FC9DED021B53EC80
:1047E000112B00F01FFECDE904019DED020B53ECEF
:1047F000192B51EC100B00F0E1FC53EC192B00F0DD
:10480000CDF99FED3B0B41EC190B53EC102B9DEDBB
:10481000040B51EC100B00F0DDFE9DED040B41ECA0
:104820001B0B53EC102B9DED020B51EC100B00F009
:10483000C5FC53EC1B2B00F06DFA53EC192B00F068
:10484000C9FE9DED021B53EC112B00F0C3FE53EC8F
:104850001A2B00F0E7FDCDE9020101EB065001152E
:104860000029C8BF039015DC9DED020B324651ECC8
:10487000100B01F00AF8FFF7F5F9042808BF00F063
:10488000FBF832469DED020B51EC100B00F0FDFFE2
:10489000CDE902019DED020B51EC180B53EC102BEE
:1048A00000F08CFCFFF732BB0000904000000000DD
:1048B000FE822B654715973C00CC904000346F3F3B
:1048C00001FCFFFF0000E03F28130000FFFF0F0086
:1048D00000000000432EE63F396CA80C615C20BE4E
:1048E000EF39FAFE422EE63FB01100000000000052
:1048F000000000000000004070B504462DED028B62
:104900004D1E00EBC500B0EE408AF0EE608A90EDDF
:10491000000B35F0060017D053EC182B51EC100BA0
:1049200000F04CFC41EC100B6D1E04EBC50090ED4B
:10493000001B51EC100B53EC112B00F02FF941EC44
:10494000100B35F00600E7D1022D36D0042D1CD017
:10495000062D1CBFBDEC028B70BD53EC182B51EC27
:10496000100B00F02BFC94ED0A1B53EC112B00F004
:1049700015F953EC182B00F021FC94ED081B53ECB7
:10498000112B00F00BF941EC100B53EC182B51ECF0
:10499000100B00F013FC94ED061B53EC112B00F0F0
:1049A000FDF853EC182B00F009FC94ED040B53ECCC
:1049B000102B00F0F3F841EC100B53EC182B51ECDA
:1049C000100B00F0FBFB94ED021B53EC112B00F0DD
:1049D000E5F853EC182B00F0F1FB94ED001B53ECC1
:1049E000112B00F0DBF8BDEC028B41EC100B70BD1D
:1049F0009FED070B10B553EC102B9FED070B51ECFF
:104A0000100B00F087F941EC100B10BD0000000006
:104A10000000000000000000000000000000F03F67
:104A200010B553EC112B51EC100B00F0B7F841EC22
:104A3000100B10BD000000009FED050B10B553ECEE
:104A4000102B51EC100B00F065F941EC100B10BD70
:104A500000000000000000009FED050B10B553ECB6
:104A6000102B51EC100B00F0A9FB41EC100B10BD0A
:104A700000000000000000709FED050B10B553EC26
:104A8000102B51EC100B00F099FB41EC100B10BDFA
:104A9000000000000000001030380A2801D2012078
:104AA00070470020704782B0CDE9000121F000403E
:104AB00001909DED000B02B051EC100B704700B55A
:104AC0002DED048B83B041EC190B00F0B7FC41ECE9
:104AD000180B18EE100A18EE901A8DED008B0028B6
:104AE00018BF0120084320F00040C0F17F6000F1B2
:104AF000E040C00F14D019EE101A19EE900A8DED97
:104B0000009B002918BF0121084320F00040C0F19C
:104B10007F6000F1E040C00F04BF0120FBF76FFC95
:104B200051EC180B03B0BDEC048B00BD10B500298F
:104B30000AD00878002807D005487844FCF7B0FC74
:104B4000002801D0002010BD0248784410BD0000AC
:104B5000AA0F0000A20F000010B500290AD00878A3
:104B6000002807D005487844FCF79AFC002801D0BB
:104B7000002010BD0248784410BD00009A0F0000CC
:104B8000920F000081F00041704780F000407047B4
:104B900021F00041704720F00040704710B591EAC5
:104BA000030F48BF83F0004300F11C85841A71EBAA
:104BB000030C05D2121943EB0C03001B61EB0C0133
:104BC0004FEA1154A4EB135CDFF81CE11EEA430F1B
:104BD00018BF9EEA445F00F0748021EA045123EA82
:104BE0000E0343F48013DCF1200E32D322FA0CFEC4
:104BF00010EB0E0023FA0CFE41EB0E01CCF1200E5F
:104C000003FA0EFE10EB0E00CCF1200E51F1000164
:104C1000B1F5801F32D201EB045112FA0EF2BDE859
:104C2000104058BF7047401C38BF5FEA420218BFAF
:104C30007047002814BF20F0010041F100014FEA45
:104C4000410313F5001F38BF7047A1F1C04100F0C8
:104C5000ADBB012A43EB0302ACF1200CDCF11F0ECB
:104C600032BF4FF0000E23FA0CF310EB030041EBC0
:104C70000451B4EB115FD0D0A1EB045101F58011C8
:104C8000490801EB04515FEA30000ED350F10000F7
:104C900038BF12FA0EFE08D1BDE81040C9E7401C2B
:104CA00038BF5FEA4202CAD1C3E7BDE810404FEA0D
:104CB000410313F5001F38BF7047A1F1C04100F058
:104CC00075BB9EEA445F08D011EA5E0FBDE8104054
:104CD00004BF01F0004100207047BDE8104070B5EE
:104CE00000F016FB64FBBE3E0000E0FF02494FF0FF
:104CF000000000F098BD00BF0000F87F491058BFC9
:104D0000C1F140415B1058BFC3F140438B42EFF308
:104D1000008070472DE9C04130B4DFF8A4C23CEAFE
:104D2000111418BF3CEA131400F0ED801CEA1114B2
:104D300081EA030544EAD57418BF1CEA131500F094
:104D4000C880A4EB050404F17F7404F500344FF02F
:104D5000004545EAC12145EAC32341EA505143EAEF
:104D600052534FEAC0204FEAC222994208BF9042F4
:104D700000F09D804FEA13650FF24416765D4FEA0E
:104D8000134506FB05F7C7F1807706FB07F74FEAE7
:104D9000D737A7FB03687642A7FB06CEC8F5803855
:104DA00038BFA8F1010807FB08E6A6FB028C4FF00C
:104DB000000EE6FB03CEDCF1000CCEF1004E38BF56
:104DC000AEF1010EA6FB0C584FF00007E6FB0E8774
:104DD000A1FB08C6A0FB07CE16EB0E064FF00005A0
:104DE00045F10005E1FB076515F1E04E7EBFA4F536
:104DF00080345FEA46066D4116F1800745F10005F3
:104E00004FEA172747EA05674FEA15254FEA066676
:104E1000A6F1DE46B6F1805F20D9384605EBC471B5
:104E200024F0010C01EB0C11BCF1FE6F02D8F0BCB8
:104E3000BDE8008124425CBF01F5801E9EEAC47F6C
:104E400002D4F0BCBDE80081244200F13980A1F118
:104E5000C041F0BCBDE8004100F0A8BA4FEAD02044
:104E600040EA41504FEAD1214FEAD22242EA43526E
:104E70004FEAD323A7FB028607FB036605FB026606
:104E80001EEA0E0F58BFA6EB0056B6EB00564FEACF
:104E9000520E4EEAC37E18EB0E0E56EB530EBCD5E7
:104EA00018EB02085E417F1C55F10005B5E74FF491
:104EB00080154FF000074FF000064FF00008ACE7F8
:104EC00001F1C04101F000414FF00000F0BCBDE82D
:104ED00000810CEA131511EA0C1F00D00CE013EA54
:104EE0000C1F00F026804FF0000081EA030101F062
:104EF0000041F0BCBDE80081F0BCBDE8004181EAA2
:104F0000030100F053BAF0BCBDE8004170B500F0F9
:104F1000FFF900BF097EFC3E00F007B84FF000002B
:104F200081EA030101F00041704781EA030100F0CA
:104F30003DBAF0BCBDE8004122494FF00000704787
:104F4000FFFDFBF9F7F5F4F2F0EEEDEBE9E8E6E44E
:104F5000E3E1E0DEDDDBDAD8D7D5D4D3D1D0CFCDD5
:104F6000CCCBCAC8C7C6C5C4C2C1C0BFBEBDBCBB0E
:104F7000BAB9B8B7B6B5B4B3B2B1B0AFAEADACAB09
:104F8000AAA9A8A8A7A6A5A4A3A3A2A1A09F9F9EE3
:104F90009D9C9C9B9A999998979796959594939395
:104FA000929191908F8F8E8E8D8C8C8B8B8A89892C
:104FB00088888787868585848483838282818180AF
:104FC0000000FF070000F87F51EA030C17D41CF51E
:104FD000801F58BFBCF5801F00F10680994218BFA2
:104FE000704708BF9042704707D711F5801F58BF20
:104FF00013F5801F19D499427047894270471CF5F8
:10500000801F08D5BCF5801FF7D58B4218BF7047AD
:1050100008BF824270474FF4001C1CEB410F38BFA1
:105020001CEB430F01D28B42704770B500F070F952
:10503000922449004FF000514FF08053FFF75EBEBD
:105040004FEA41034FEA5353A3F58063D3F11E03A4
:10505000C8BFD3F1210C0CDD4FF0004242EAC1225F
:1050600042EA505232FA03FC8CEAE17CACEBE1708C
:105070007047102BC4BF0020704703F5787CBCF14B
:10508000FF3F04D06FF0004282EA2100704770B504
:1050900000F03EF94992248000207047F2E710F0BA
:1050A000004248BF4042B0FA80F310FA03F10AD040
:1050B000C3F11D0303F5806302EB03524FEA415035
:1050C00002EBD12170474FF00000704751EA030C0A
:1050D00017D41CF5801F58BFBCF5801F00F1068057
:1050E000994218BF704708BF9042704707D711F523
:1050F000801F58BF13F5801F19D499427047894209
:1051000070471CF5801F08D5BCF5801FF7D58B4272
:1051100018BF704708BF824270474FF4001C1CEB59
:10512000410F38BF1CEB430F01D28B42704770B563
:1051300000F0EEF8922449004FF080514FF00053F8
:10514000FFF7DCBD51EA030C17D41CF5801F58BFD4
:10515000BCF5801F00F10680994218BF704708BF58
:105160009042704707D711F5801F58BF13F5801F75
:1051700019D499427047894270471CF5801F08D5A1
:10518000BCF5801FF7D58B4218BF704708BF82421D
:1051900070474FF4001C1CEB410F38BF1CEB430F52
:1051A00001D28B42704770B500F0B2F892244900EA
:1051B0004FF000514FF08053FFF7A0BD70B5DFF8FE
:1051C00048C11CEA111E1EBF1CEA13159EEA0C0FF3
:1051D00095EA0C0F00F06F8081EA03044EEAD47E5A
:1051E000AE4421EA4C1123EA4C1341F4801143F4FC
:1051F0008013AEF17F7EA1FB024CA0FB0365361944
:1052000055EB0C05A1FB034C4CF10003A0FB021C69
:1052100016EB0C06654153F10003094218BF46F036
:10522000010613F4007F0BD14FEA03314FEA05303A
:1052300041EA155140EA165034036FF003020AE0C8
:105240004FEAC3214FEAC52041EA555140EA565082
:10525000F4026FF0020202EB2E4201EB025585EAE6
:10526000CE710AD05FEA440C18BF24F0004450F11C
:10527000000041F1000120EAD47040F2FE7C62455A
:1052800000D270BDA84214BF4FF080444FF040449C
:10529000002E08BF0024BEF1806FA8BFA1F1C0415D
:1052A000BDE8704080F2828001F1C04101F0004110
:1052B0004FF0000070470CEA13159EEA0C0F18BF60
:1052C00095EA0C0F06D081EA030E4FF000000EF0B5
:1052D000004170BD00F01CF88900013E00F007B8E5
:1052E00000F009B84FEA430C5FEA5C5C08D081EA41
:1052F000030100F05BB84FEA410C5FEA5C5CF6D159
:1053000002494FF0000070470000FF070000F87FDF
:105310000EF1020E2EF0030E5EF8046B364205D439
:10532000012A43EB030515F5001F12D8012841EBB4
:10533000010C1CF5001F0CD80ED14FEAD17C0CEBF0
:105340004C0C0CF1020C15F5001F08BF4CEBD37C84
:1053500004E04FF0080C01E04FEAD37C0CEB4C0565
:1053600026FA05F606F00706B6F1040C06D20EEB97
:10537000860CBDE870404CF0010C6047DFE80CF093
:10538000090B02024FF00041A1F500214FF000008F
:1053900070BD19461046012851EB010418BFD4F521
:1053A000001484BF002001F0004170BD0808A0F582
:1053B00000114FEA3101704753EA010C17D41CF574
:1053C000801F58BFBCF5801F00F106808B4218BFBC
:1053D000704708BF8242704707D713F5801F58BF38
:1053E00011F5801F19D48B4270479B4270471CF502
:1053F000801F08D5BCF5801FF7D5994218BF7047AC
:1054000008BF904270474FF4001C1CEB430F38BF9D
:105410001CEB410F01D2994270470FB40CBC03BC86
:10542000FFF7C1BE10B591EA030F81F000413FF5CF
:10543000BDAB83F0004300F0D5B800002DE9F0418A
:1054400001F5801CBCF5001FC0F2A9804FEA115C79
:1054500021EA0C5141F480110CF1FD0C5FEA5C0C67
:105460000CF5C07C01D340004941890241EA9051CA
:1054700087022EA48E0EA45D0A0C04FB04F602FB28
:1054800006F6C6F14046A4FB0662F60D46EA422641
:1054900006FB06F4A4FB01235242C3F1404338BF8C
:1054A0005B1EA6FB02420024E6FB0324D20B42EA69
:1054B0004446A6FB0623A1FB02E2A3FB07E4E3FBB1
:1054C00061426442C2F1404E38BFAEF1010EA6FB0C
:1054D00004234FF00002E6FB0E32A2FB0346340029
:1054E000E2FB6264A1FB06E6A4FB07E8E4FB61685B
:1054F0007642C8F1405838BFA8F10108A2FB06E483
:10550000A3FB08E5E2FB6854A1FB05E6A7FB04E862
:10551000E1FB648618F1200556F10006A80940EA6F
:105520008660B109A8F11B0808F03F08B8F10A0F1E
:105530001CD901EB0C51BDE8F08100BFFCF5EEE891
:10554000E2DDD8D3CFCBC7C3C0BDB9B6B4B1AEAC22
:10555000A9A7A5A3A19F9D9B9A9896959392908F9A
:105560008D8C8B898887868584838281A0FB0068E7
:1055700000FB01F208EB4208B8EB872807D5341886
:1055800058EB0104D5D5401C51F10001D1E7341A84
:1055900078EB0104CDD4401E71F10001C9E75FEA48
:1055A0004C0C5FEA9C5C0DD105D301F000414FF03B
:1055B0000000BDE8F081BDE8F04170B5FFF7A8FE3E
:1055C0006DDBFFBEBDE8F04101494FF000007047C0
:1055D0000000F87F10B591EA030F48BF83F0004345
:1055E0003FF5E4AA841A71EB030C07D28CF0004C4F
:1055F000121943EB0C03001B61EB0C014FEA115431
:10560000A4EB135CDFF8A4E11EEA430F18BF9EEA87
:10561000445F00F0B48021EA045123EA6E03524251
:10562000C3EB6E0338BF5B1EDCF1200E25D322FADC
:105630000CFE10EB0E0043FA0CFE41EB0E01CCF118
:10564000200E03FA0EFE10EB0E00CCF1200E51F1ED
:10565000000129D401EB045112FA0EF2BDE810400A
:1056600058BF7047401C1CBFB2F1004F7047002864
:105670000CBF491C20F00100704712EB020E43EBF7
:10568000030218BF4FF0010E4EEA4202ACF1200CAB
:10569000DCF11E0E56D943FA0CFE10EB0E00CCF1D5
:1056A0001E0E51F1FF31D5D50EF1010E12FA0EFE8C
:1056B000404141EB010101EB445C5FEA5C5C10D9C5
:1056C00001EB045110EBDE7038BFBEF1004FBDE8B6
:1056D000104018BF704700280CBF491C20F0010083
:1056E000704734D24FEAD42C24F4006411F5001131
:1056F0001BD0B1FA81F20B3AA41AA41ED2F12003F6
:10570000914030FA03F31943904001EBCC7101EB67
:105710000451002CBDE81040A8BF704701F1C04102
:1057200001F000414FF000007047B0FA80F310FA2A
:1057300003F102D1BDE810407047E41A173C480558
:10574000C90AE2E701EB0451BDE810407047491077
:105750004FEA300001EB0451BDE8104002E04FF089
:10576000000170474A0008BF0042F8D0B2F5001FA0
:1057700028BF704701F000414FF0000070479EEADB
:10578000445F07D011EA5E0FBDE8104004BF00215E
:1057900000207047BDE8104070B5FFF7B9FD00BFAD
:1057A00040DFF63E104683F0004170470000E0FF06
:1057B00010B5FFF709FC0CBF0120002010BD10B58B
:1057C000FFF702FC14BF0120002010BD10B5FFF749
:1057D0007DFC8CBF0120002010BD10B5FFF776FCCA
:1057E0002CBF0120002010BD10B5FFF7ABFC94BF0B
:1057F0000120002010BD10B5FFF7A4FC34BF01202C
:10580000002010BDF1EE100A4FF6FF71C0F2C0315A
:1058100020EA010040F04070E1EE100A7047FBF70B
:1058200049BAFBF77DBB0CF00F03092B08BF08201A
:1058300000F059800A2B0BD0082B18BF704708BF07
:105840001CF0400F0AD04FF000004FF000017047ED
:105850001CF0400F18BF4FF0004070471CF0100FB5
:1058600008D000F07F4220F0704342EAD3014FEAB3
:105870004370704700F0604021F07F4242EA00022E
:1058800001F07F4040EA727070474FF0FF0C4CF41B
:10589000E06C1CEA11531CBF9CEA030C9445C2BF88
:1058A000DA4201EB02517047002B0DD0BCF1000F22
:1058B0000FD001F00041002AA4BF41F0E04141F0C7
:1058C0007F614FF00000704701F000414FF0000091
:1058D000704750EA01334FF09B0C18BF4CF0806CBE
:1058E0007FF404AA70471CF4801F11D01CF4E02F31
:1058F00003D06FEACC31490070474FF04050EFF3CE
:10590000008222F0704242EA000282F3008870476F
:105910004FF0000070470000000000000000F03F62
:10592000000000000000F83F000000000000000040
:105930000000004003B8E23F00000000000000004B
:1059400006D0CF43EBFD4C3E033333333333E33FD9
:10595000FFAB6FDBB66DDB3F4D268F515555D53F05
:1059600001411DA96074D13F65DBC9934A86CD3FD3
:10597000EF4E454A287ECA3F3E5555555555C53FC1
:1059800093BDBE166CC166BF2CDE25AF6A56113FB3
:10599000F16BD2C541BDBBBED0A4BE726937663EB5
:1059A000000000000000000030313233343536375B
:1059B0003839414243444546403058003031323353
:1059C0003435363738396162636465664030780053
:1059D00004000008000000000000000200010000B8
:1059E00010000000000000000000000000000000A7
:1059F0003031323334353637383961626364656645
:105A000078700030313233343536373839414243DB
:105A1000444546585000000002400000000000A02D
:105A20000000000005400000000000C80000000069
:105A30000C4000000000409C0000000019400000E5
:105A40000020BCBE0000000034400000BFC91B8E17
:105A500000000004B5400000504BCFD06607E2CFF5
:105A6000010000006C4100003E8251AADFEEA73425
:105A700001000000D9420000DCB5A0E23A301F97D7
:105A8000FFFFFFFFB4450000FD25A0C8E9A3C14FFB
:105A9000FFFFFFFFFF3F000000000080000000004C
:105AA000FF3F000000000080000000000000000038
:105AB00000000000010203040607080925642C25E4
:105AC00064000000105C000800000020A802000034
:105AD000D0010008C05D0008A80200209006000068
