:020000040800F2
:1000000008070020350200083D0200083F020008F2
:1000100041020008430200084502000800000000F9
:10002000000000000000000000000000470200087F
:1000300049020008000000004B0200086D0D000896
:100040004F0200084F0200084F0200084F0200084C
:100050004F0200084F0200084F0200084F0200083C
:100060004F0200084F0200084F0200084F0200082C
:100070004F0200084F0200084F0200084F0200081C
:100080004F0200084F0200084F0200080000000065
:100090000000000000000000000000004F02000807
:1000A0004F0200084F0200084F0200084F020008EC
:1000B0004F0200084F0200084F0200084F020008DC
:1000C0004F0200084F0200084F0200084F020008CC
:1000D0004F0200084F0200084F0200080000000015
:1000E0004F0200084F0200084F0200080000000005
:1000F0000000000000000000000000004F020008A7
:10010000000000004F0200084F0200084F020008E4
:1001100000000000000000000000000000000000DF
:100120004F0200084F0200084F0200084F0200086B
:100130004F02000800000000000000000000000066
:100140000000000000000000000000004F02000856
:100150004F0200084F0200084F0200084F0200083B
:100160004F0200084F0200080000000000000000DD
:10017000000000000000000000000000000000007F
:10018000000000004F020008000000000000000016
:100190004F02000800F002F800F03CF80AA090E8D6
:1001A000000C82448344AAF10107DA4501D100F032
:1001B00031F8AFF2090EBAE80F0013F0010F18BFC3
:1001C000FB1A43F00103184780390000A0390000F2
:1001D000103A24BF78C878C1FAD8520724BF30C873
:1001E00030C144BF04680C60704700000023002445
:1001F00000250026103A28BF78C1FBD8520728BF37
:1002000030C148BF0B6070471FB503F0C5FB1FBD71
:1002100010B510BD00F0ACF81146FFF7F5FF01F086
:10022000AFFB00F0CAF803B4FFF7F2FF03BC00F025
:10023000CDF800000948804709480047FEE7FEE77F
:10024000FEE7FEE7FEE7FEE7FEE7FEE7FEE7FEE786
:1002500004480549054A064B70470000A50E0008F2
:10026000950100080801002008070020080300206D
:100270000803002010B5431C02E010F8011B71B107
:100280008107FAD14FF0013202C88C1A8C4314EA6C
:10029000C211F9D0C01A0A0603D0C01E10BDC01A80
:1002A00010BD0A0401D0801E10BD0902FCD0401E02
:1002B00010BD4FF000020429C0F0128010F0030CB2
:1002C00000F02980CCF1040CBCF1020F18BF00F83B
:1002D000012BA8BF20F8022BA1EB0C0100F01BB8EA
:1002E0005FEAC17C24BF00F8012B00F8012B48BF56
:1002F00000F8012B704770477047704710B500F049
:100300002FF8006810BD10B5044600F029F804600D
:1003100010BD4FF0000200B51346944696462039B2
:1003200022BFA0E80C50A0E80C50B1F12001BFF4AE
:10033000F7AF090728BFA0E80C5048BF0CC05DF814
:1003400004EB890028BF40F8042B08BF704748BF62
:1003500020F8022B11F0804F18BF00F8012B7047D6
:10036000004870479800002000487047980000201F
:100370007546FFF7F9FFAE4605006946534620F083
:100380000700854618B020B5FFF762FFBDE82040A2
:100390004FF000064FF000074FF000084FF0000B41
:1003A000AC46ACE8C009ACE8C009ACE8C009ACE8B0
:1003B000C00921F007018D46704710B50446AFF320
:1003C00000802046BDE81040FFF72DBF01491820EE
:1003D000ABBEFEE7260002007047000080B584B087
:1003E000039000F0E7F90290039801900198013022
:1003F00048B1FFE740F28C00C2F20000017801989A
:1004000008440190FFE7FFE700F0D4F90299401A91
:100410000199884201D2FFE7F6E704B080BD0000F1
:100420008BB00A90099100200790069005900890E3
:10043000FFE708980F2800F2A281FFE70899012042
:100440008840079009980068079908400690069828
:100450000799884240F08E81FFE70998406800F0D4
:100460000300012807D0FFE70998406800F0030067
:1004700002282FD1FFE70A9880680590089841006C
:10048000032000FA01F10598884305900998C06897
:100490000899490000FA01F105980843059005986C
:1004A0000A9988600A98406805900899012000FA26
:1004B00001F105988843059009984068C0F3001041
:1004C000089900FA01F105980843059005980A99E2
:1004D0004860FFE70998406800F00300032818D03F
:1004E000FFE70A98C068059008984100032000FAC9
:1004F00001F105988843059009988068089949009A
:1005000000FA01F105980843059005980A99C8601A
:10051000FFE70998406800F00300022826D1FFE7B2
:100520000A9808996FF0030202EA51010844006A30
:100530000590089800F0070081000F2000FA01F1F3
:1005400005988843059009980069089901F007010A
:10055000890000FA01F105980843059005980A9969
:10056000089B02EA530211440862FFE70A980068F8
:10057000059008984100032000FA01F1059888438E
:1005800005900998406800F003000899490000FAB6
:1005900001F105980843059005980A9908600998A3
:1005A00080798007002800F0E480FFE7FFE7002063
:1005B000049043F64400C4F20200016841F4804113
:1005C0000160006800F4804004900498FFE70898F8
:1005D00020F0030043F60801C4F2010140580590E1
:1005E000089800F0030081000F2000FA01F105983F
:1005F000884305900A980021C4F20201884203D181
:10060000FFE70020039034E00A9840F20041C4F272
:100610000201884203D1FFE70120029026E00A98F8
:1006200040F60001C4F20201884203D1FFE7022034
:10063000019018E00A9840F60041C4F20201884295
:1006400003D1FFE7032000900AE00A9941F200027B
:10065000C4F202020720914208BF04200090FFE785
:1006600000980190FFE701980290FFE7029803903D
:10067000FFE70398C0B2089901F00301890000FA6E
:1006800001F10598084305900598089921F00301A8
:1006900043F60802C4F20102885043F60840C4F24F
:1006A000010000680590069905988843059009980F
:1006B0008079C006002805D5FFE70699059808430C
:1006C0000590FFE7059843F60841C4F20101086070
:1006D00043F60C40C4F201000068059006990598A5
:1006E00088430590099880798006002805D5FFE7A2
:1006F0000699059808430590FFE7059843F60C41D5
:10070000C4F20101086043F60440C4F2010000682D
:100710000590069905988843059009988079800787
:10072000002805D5FFE70699059808430590FFE7DF
:10073000059843F60441C4F20101086043F6004005
:10074000C4F2010000680590069905988843059059
:1007500009988079C00728B1FFE7069905980843F2
:100760000590FFE7059843F60041C4F201010860D7
:10077000FFE7FFE7FFE708980130089059E60BB064
:100780007047000082B00190ADF802108DF8012092
:100790009DF8010028B1FFE7BDF8020001998861CA
:1007A00005E0BDF80200000401998861FFE702B08E
:1007B0007047000040F20010C2F20000006870476D
:1007C00040F28C00C2F20000027840F20011C2F246
:1007D00000010868104408607047000080B543F6C7
:1007E0000041C4F20201086840F400700860086823
:1007F00040F480600860032000F05CF80F2000F0F7
:1008000005F800F03BF8002080BD000080B582B004
:10081000009040F20000C2F20000006840F28C013B
:10082000C2F200010A784FF47A71B1FBF2F1B0FB29
:10083000F1F000F047F820B1FFE701208DF8070044
:1008400018E000980F280DD8FFE700994FF0FF300F
:10085000002200F015F8009840F29001C2F2000169
:10086000086003E001208DF8070003E000208DF808
:100870000700FFE79DF8070002B080BD7047000049
:1008800080B586B08DF81700049103920020029085
:1008900000F04CFB02909DF917000190029804991A
:1008A000039A00F003FA0146019800F047FB06B0F6
:1008B00080BD000080B582B00190019800F060FB1F
:1008C00002B080BD80B582B00190019800F024FA9A
:1008D00002B080BD80B5012000F004F8052000F0D2
:1008E000A5F880BD80B582B08DF807000020C4F265
:1008F00002004FF400710022FFF744FF9DF807004B
:10090000000900F009F89DF8070000F00F0000F062
:1009100003F802B080BD000080B586B08DF81700E6
:100920009DF8170000F008020020C4F202004FF406
:100930008071FFF727FF9DF8170000F0040240F2D6
:100940000040C4F2020001904FF48061FFF71AFFEB
:1009500001989DF8171001F002021021FFF712FF15
:1009600001989DF8171001F001022021FFF70AFFFE
:1009700040F60000C4F2020002908021039101229F
:10098000FFF700FF3220049000F05AF80298039914
:100990000022FFF7F7FE049800F052F806B080BD81
:1009A00080B582B08DF807008DF8061044F2000083
:1009B000C5F2144000909DF80600022804DBFFE712
:1009C00000208DF80600FFE79DF8070040F2F801CF
:1009D000C2F20001C8709DF8060008719DF807007A
:1009E0009DF806206946895C084440F08000C0B24A
:1009F000FFF778FF02B080BD80B582B08DF80700A8
:100A00000020C4F202004FF400710122FFF7BAFE89
:100A10009DF807000009FFF77FFF9DF8070000F031
:100A20000F00FFF779FF02B080BD000080B582B0F3
:100A30008DF807009DF80700FFF7D0FC02B080BDDD
:100A400080B584B0ADF80E004EF21400CEF2000076
:100A50000068013044F6D351C1F26201A0FB0110DD
:100A600080090290FFF7A6FE4FF47A7148434EF2D8
:100A70001801CEF200010968029AB1FBF2F1401AA6
:100A800000F57A700190FFE7FFF794FE4FF47A715A
:100A900048434EF21801CEF200010968029AB1FBF8
:100AA000F2F1401A0199401A00F57A70BDF80E1063
:100AB000884201D2FFE7E7E704B080BD80B540F28D
:100AC000F800C2F20000017841F0040101700078E2
:100AD00040F00800FFF706FF80BD000080B58CB035
:100AE0000120089002200A90002009904FF4007025
:100AF00007900020C4F20200059007A90691FFF7B5
:100B00008FFC06998020079040F60000C4F2020096
:100B1000FFF786FC0598069908220792FFF780FCEC
:100B200006992020079040F20040C4F20200049091
:100B3000FFF776FC0498069910220792FFF770FCE5
:100B4000049806994FF480620792FFF769FC0598B4
:100B500006994FF480720792FFF762FCFFE7FFF7F8
:100B600029FEC72804D8FFE70120FFF75FFFF6E75B
:100B700040F2F801C2F2000102910020C870087131
:100B80004870487840F00800487003200090FFF754
:100B9000C3FE05200390FFF749FF0098FFF7BCFE56
:100BA0000398FFF743FF0098FFF7B6FE0398FFF79F
:100BB0003DFF02200190FFF7AFFE0398FFF736FFDD
:100BC0000298407840F02000FFF78CFE0299042044
:100BD0000870FFF773FFFFF77DFE0199029881709F
:100BE000807840F00400FFF77DFE0398FFF71EFFBA
:100BF0000CB080BD80B582B08DF807008DF806106E
:100C000000929DF807009DF80610FFF7C9FEFFE768
:100C100000980078002846D0FFE740F2F800C2F2C2
:100C20000000C07810280EDBFFE740F2F801C2F2A6
:100C300000010020C870087901300871C87809796E
:100C4000FFF7AEFEFFE7009800780A280CD1FFE717
:100C500040F2F801C2F20001087901300871C87849
:100C60000979FFF79DFE1AE0009800780D2809D158
:100C7000FFE740F2F800C2F2000001790020FFF720
:100C80008FFE0BE000980078FFF7B6FE40F2F80107
:100C9000C2F20001C8780130C870FFE7FFE7009892
:100CA00001300090B4E702B080BD000088B007902A
:100CB00006910592079800F0070004900498C0F18F
:100CC0000700052803D3FFE70420019004E00498FF
:100CD000C0F107000190FFE70198039004980430E9
:100CE000062803D8FFE70020009003E004980338AB
:100CF0000090FFE70098029006980399012202FAFB
:100D000001F101390840029B984005999A40013A47
:100D10001140084308B0704780B582B00090009839
:100D20000138B0F1807F03D3FFE70120019019E083
:100D3000009801384EF21401CEF2000108604FF025
:100D4000FF300F2100F0FAF84EF21801CEF2000148
:100D5000002008604EF21002CEF20002072111605E
:100D60000190FFE7019802B080BD000080B5FFF759
:100D700027FD80BD86B000210591049102200390DB
:100D80000291019043F60800C4F20200006800F0EE
:100D90000C0005900598009040B1FFE700980428EA
:100DA0000ED0FFE70098082814D059E040F2000167
:100DB000C2F2000142F20040C0F2F400086059E0C3
:100DC00040F20001C2F2000147F64000C0F27D107F
:100DD00008604FE043F60400C4F202000168C1F36A
:100DE00080510291006800F03F000190029888B1A4
:100DF000FFE7019947F64000C0F27D10B0FBF1F02B
:100E000043F60401C4F202010968C1F388114843A2
:100E1000049010E0019942F20040C0F2F400B0FBEF
:100E2000F1F043F60401C4F202010968C1F388112C
:100E300048430490FFE743F60400C4F20200006850
:100E400000F44031022000EBD13003900498039964
:100E5000B0FBF1F040F20001C2F20001086009E0CD
:100E600040F20001C2F2000142F20040C0F2F40080
:100E70000860FFE743F60800C4F202000068C0B251
:100E8000010943F63830C0F60000405C0590059A31
:100E900040F20001C2F200010868D040086006B0CC
:100EA000704700004EF68851CEF20001086840F409
:100EB000700008607047000080B584B00390029114
:100EC00044F20041C4F200010868039A3020107017
:100ED0000A68039A50700A68039A90700968039927
:100EE000C8700398002100910171039A0846FFF72A
:100EF00081FE00980190FFE701980299884213D281
:100F0000FFE744F20440C4F2000000680399019A2C
:100F1000885403980199405C08B9FFE704E0FFE7B3
:100F2000019801300190E7E704B080BD4EF60C5007
:100F3000CEF200000068C0F30220704782B08DF846
:100F4000070000919DF9070000280AD4FFE70098E8
:100F500000019DF907104EF20042CEF200028854C3
:100F60000BE0009800019DF8071001F00F014EF60C
:100F70001452CEF200028854FFE702B0704700001E
:100F800083B00290029800F0070000904EF60C51DA
:100F9000CEF200010868019001984FF6FF02104060
:100FA00001900198009A40EA02200022C0F2FA5211
:100FB000104301900198086003B0704700000000E2
:100FC00083B080B5DDB0619360925F915FA9549169
:100FD0005C900F205B905C9855905B98013002F01C
:100FE00028F941EC110B9FEDE00B8DED560B00F055
:100FF0004FFF51EC100B02F0EDF8559A014692FBB1
:10100000F1F000FB112002F014F941EC100B8DED12
:10101000580B5B9802F00DF99DED560B41EC110B4E
:1010200000F036FF9DED581B51EC110B53EC102BCB
:1010300002F09AFB41EC100B51EC100B9FEDCC0B26
:1010400053EC102B02F09AFC40B9FFE75499C86B9F
:10105000B1F85E100122FFF795FB07E05499C86BC9
:10106000B1F85E100022FFF78DFBFFE75B980138B7
:101070005B905C984F905B98013002F0DAF841EC9D
:10108000110B9FEDB90B8DED500B00F001FF51ECF2
:10109000100B02F09FF84F9A014692FBF1F000FB13
:1010A000112002F0C6F841EC100B8DED520B5B984D
:1010B00002F0BFF89DED500B41EC110B00F0E8FE83
:1010C0009DED521B51EC110B53EC102B02F04CFB1D
:1010D00041EC100B51EC100B9FEDA50B53EC102BBA
:1010E00002F04CFC40B9FFE75499886BB1F85C10F2
:1010F0000122FFF747FB07E05499886BB1F85C10B9
:101100000022FFF73FFBFFE75B9801385B905C989C
:1011100049905B98013002F08CF841EC110B9FED87
:10112000920B8DED4A0B00F0B3FE51EC100B02F068
:1011300051F8499A014692FBF1F000FB112002F0B0
:1011400078F841EC100B8DED4C0B5B9802F071F8C8
:101150009DED4A0B41EC110B00F09AFE9DED4C1BEE
:1011600051EC110B53EC102B02F0FEFA41EC100B7A
:1011700051EC100B9FED7E0B53EC102B02F0FEFB9D
:1011800040B9FFE75499486BB1F85A100122FFF7B4
:10119000F9FA07E05499486BB1F85A100022FFF7AA
:1011A000F1FAFFE75B9801385B905C9843905B989D
:1011B000013002F03EF841EC110B9FED6B0B8DED11
:1011C000440B00F065FE51EC100B02F003F8439A5B
:1011D000014692FBF1F000FB112002F02AF841ECED
:1011E000100B8DED460B5B9802F023F89DED440B40
:1011F00041EC110B00F04CFE9DED461B51EC110B28
:1012000053EC102B02F0B0FA41EC100B51EC100B28
:101210009FED570B53EC102B02F0B0FB40B9FFE7EA
:101220005499086BB1F858100122FFF7ABFA07E0A8
:101230005499086BB1F858100022FFF7A3FAFFE7A2
:101240005B9801385B905C983D905B98013001F0B1
:10125000F0FF41EC110B9FED440B8DED3E0B00F0C8
:1012600017FE51EC100B01F0B5FF3D9A014692FBC1
:10127000F1F000FB112001F0DCFF41EC100B8DEDD3
:10128000400B5B9801F0D5FF9DED3E0B41EC110B3F
:1012900000F0FEFD9DED401B51EC110B53EC102BAB
:1012A00002F062FA41EC100B51EC100B9FED300B89
:1012B00053EC102B02F062FB40B9FFE75499C86A67
:1012C000B1F856100122FFF75DFA07E05499C86A99
:1012D000B1F856100022FFF755FAFFE75B98013886
:1012E0005B905C9837905B98013001F0A2FF41EC75
:1012F000110B9FED1D0B8DED380B00F0C9FD51EC6E
:10130000100B01F067FF379A014692FBF1F000FBEA
:10131000112001F08EFF41EC100B8DED3A0B5B9824
:1013200001F087FF9DED380B41EC110B00F0B0FD93
:101330009DED3A1B51EC110B53EC102B02F014FAFB
:1013400041EC100B51EC100B9FED090B53EC102BE3
:1013500002F014FB80B9FFE75499886AB1F8541081
:101360000122FFF70FFA0FE000000000000000402C
:1013700000000000000000005499886AB1F8541081
:101380000022FFF7FFF9FFE75B9801385B905C985C
:1013900031905B98013001F04CFF41EC110B1FEDD7
:1013A0000E0B8DED320B00F073FD51EC100B01F0C4
:1013B00011FF319A014692FBF1F000FB112001F080
:1013C00038FF41EC100B8DED340B5B9801F031FFD1
:1013D0009DED320B41EC110B00F05AFD9DED341BDD
:1013E00051EC110B53EC102B02F0BEF941EC100B39
:1013F00051EC100B1FED220B53EC102B02F0BEFA38
:1014000040B9FFE75499486AB1F852100122FFF73A
:10141000B9F907E05499486AB1F852100022FFF771
:10142000B1F9FFE75B9801385B905C982B905B9873
:10143000013001F0FEFE41EC110B1FED350B8DED7F
:101440002C0B00F025FD51EC100B01F0C3FE2B9A84
:10145000014692FBF1F000FB112001F0EAFE41ECA5
:10146000100B8DED2E0B5B9801F0E3FE9DED2C0B28
:1014700041EC110B00F00CFD9DED2E1B51EC110BFE
:1014800053EC102B02F070F941EC100B51EC100BE7
:101490001FED490B53EC102B02F070FA40B9FFE737
:1014A0005499086AB1F850100122FFF76BF907E070
:1014B0005499086AB1F850100022FFF763F9FFE76A
:1014C0005B9801385B905C9825905B98013001F047
:1014D000B0FE41EC110B1FED5C0B8DED260B00F007
:1014E000D7FC51EC100B01F075FE259A014692FBDA
:1014F000F1F000FB112001F09CFE41EC100B8DED92
:10150000280B5B9801F095FE9DED260B41EC110B2D
:1015100000F0BEFC9DED281B51EC110B53EC102B81
:1015200002F022F941EC100B51EC100B1FED700B87
:1015300053EC102B02F022FA40B9FFE75499C86926
:10154000B1F84E100122FFF71DF907E05499C86960
:10155000B1F84E100022FFF715F9FFE75B9801384C
:101560005B905C981F905B98013001F062FE41EC4B
:10157000110B1FED830B8DED200B00F089FC51EC5E
:10158000100B01F027FE1F9A014692FBF1F000FBC1
:10159000112001F04EFE41EC100B8DED220B5B98FB
:1015A00001F047FE9DED200B41EC110B00F070FCAB
:1015B0009DED221B51EC110B53EC102B02F0D4F8D3
:1015C00041EC100B51EC100B9FEDEB0B53EC102B7F
:1015D00002F0D4F940B9FFE754998869B1F84C108A
:1015E0000122FFF7CFF807E054998869B1F84C1051
:1015F0000022FFF7C7F8FFE75B9801385B905C9823
:1016000019905B98013001F014FE41EC110B9FED35
:10161000D80B8DED1A0B00F03BFC51EC100B01F0D8
:10162000D9FD199A014692FBF1F000FB112001F05F
:1016300000FE41EC100B8DED1C0B5B9801F0F9FDE9
:101640009DED1A0B41EC110B00F022FC9DED1C1BD3
:1016500051EC110B53EC102B02F086F841EC100BFF
:1016600051EC100B9FEDC40B53EC102B02F086F9DC
:1016700040B9FFE754994869B1F84A100122FFF7D1
:1016800081F807E054994869B1F84A100022FFF741
:1016900079F8FFE75B9801385B905C9813905B9852
:1016A000013001F0C6FD41EC110B9FEDB10B8DED4A
:1016B000140B00F0EDFB51EC100B01F08BFD139AB5
:1016C000014692FBF1F000FB112001F0B2FD41EC6C
:1016D000100B8DED160B5B9801F0ABFD9DED140B1F
:1016E00041EC110B00F0D4FB9DED161B51EC110BDE
:1016F00053EC102B02F038F841EC100B51EC100BAE
:101700009FED9D0B53EC102B02F038F940B9FFE729
:1017100054990869B1F848100122FFF733F807E03F
:1017200054990869B1F848100022FFF72BF8FFE739
:101730005B9801385B905C980D905B98013001F0EC
:1017400078FD41EC110B9FED8A0B8DED0E0B00F037
:101750009FFB51EC100B01F03DFD0D9A014692FBF1
:10176000F1F000FB112001F064FD41EC100B8DED58
:10177000100B5B9801F05DFD9DED0E0B41EC110B24
:1017800000F086FB9DED101B51EC110B53EC102B60
:1017900001F0EAFF41EC100B51EC100B9FED760BC2
:1017A00053EC102B02F0EAF840B9FFE75499C868EF
:1017B000B1F846100122FEF7E5FF07E05499C8682A
:1017C000B1F846100022FEF7DDFFFFE75B98013815
:1017D0005B905C9807905B98013001F02AFD41EC2A
:1017E000110B9FED630B8DED080B00F051FB51ECDD
:1017F000100B01F0EFFC079A014692FBF1F000FBA1
:10180000112001F016FD41EC100B8DED0A0B5B98D9
:1018100001F00FFD9DED080B41EC110B00F038FBC2
:101820009DED0A1B51EC110B53EC102B01F09CFFAA
:1018300041EC100B51EC100B9FED4F0B53EC102BA8
:1018400002F09CF840B9FFE754998868B1F8441059
:101850000122FEF797FF07E054998868B1F8441019
:101860000022FEF78FFFFFE75B9801385B905C98E2
:1018700001905B98013001F0DCFC41EC110B9FED15
:101880003C0B8DED020B00F003FB51EC100B01F053
:10189000A1FC019A014692FBF1F000FB112001F03E
:1018A000C8FC41EC100B8DED040B5B9801F0C1FC02
:1018B0009DED020B41EC110B00F0EAFA9DED041BCB
:1018C00051EC110B53EC102B01F04EFF41EC100BBF
:1018D00051EC100B9FED280B53EC102B02F04EF83F
:1018E00040B9FFE754994868B1F842100122FEF769
:1018F00049FF07E054994868B1F842100022FEF70A
:1019000041FFFFE75B9801385B905C9800905B9823
:10191000013001F08EFC41EC110B9FED150B00F036
:10192000B7FA51EC100B01F055FC009A014692FBFE
:10193000F1F000FB1120012808D1FFE75499086855
:10194000B1F840100122FEF71DFF07E05499086826
:10195000B1F840100022FEF715FFFFE75B98013851
:101960005B905DB0BDE8804003B0704700BF00BF32
:101970000000000000000040000000000000000027
:101980002DE9F04FEFB000206E90FFF7F3F9FEF76E
:1019900025FFFFE700206D9043F63000C4F20200FF
:1019A000016841F001010160006800F001006D90E4
:1019B0006D98FFE7FFE700206C9043F63000C4F21B
:1019C0000200016841F002010160006800F00200BD
:1019D0006C906C98FFE7FFE700206B9043F63000B7
:1019E000C4F20200016841F004010160006800F0E7
:1019F00004006B906B98FFE7FFF770F84FF0010958
:101A0000CDF89C910020319068904FF480502F9039
:101A1000669040F20040C4F20200279066A9269129
:101A2000FEF7FEFC269927984FF400522E926692FC
:101A3000FEF7F6FC269927984FF4804BCDF898B125
:101A4000FEF7EEFC269927984FF4004ACDF898A1AE
:101A5000FEF7E6FC2699CDF8989140F60000C4F216
:101A600002002D90FEF7DCFC26992D984FF002081D
:101A7000CDF89881FEF7D4FC26992D980427669717
:101A8000FEF7CEFC26992D9808266696FEF7C8FC30
:101A900026992D9810256695FEF7C2FC26992D985B
:101AA00020246694FEF7BCFC26992D9840222C92A7
:101AB0006692FEF7B5FC26992D984FF48072289215
:101AC0006692FEF7ADFC26992D984FF4007229928C
:101AD0006692FEF7A5FC26992D984FF480622A9213
:101AE0006692FEF79DFC26992D984FF400622B928A
:101AF0006692FEF795FC26992D982F9A6692FEF72E
:101B00008FFC2798DDF8A0C0299B2A9A2B99DDF835
:101B1000B0E04E904F90509051902D98529053902D
:101B20005490559056905790589059905A905B9079
:101B30005C905D902F98ADF878012E98ADF87A0101
:101B40002F98ADF87CB1ADF87EA1ADF88091ADF8DD
:101B50008281ADF88471ADF88661ADF88851ADF839
:101B60008A41ADF88CE1ADF88EC1ADF89031ADF899
:101B70009221ADF89411ADF896010021C4F2020152
:101B8000086840F020000860086840F080000860A5
:101B90002021C4F20201086840F4E060086008688F
:101BA00040F4E040086043F64001C4F202010868D6
:101BB00040F40030086044F20C41C4F200010868AF
:101BC00040F40050086044F20842C4F2000240F2BF
:101BD00083601060086840F008000860086840F002
:101BE000040008600DF58370329032213091FEF7C9
:101BF00060FB30992A208DF8060135A8FEF759FBC5
:101C00003199329A54208DF8D40045238DF8D5307F
:101C100053238DF8D6308DF8D70044F20040C4F23B
:101C200000003390036803F0020330338DF806316F
:101C3000036803F0040330338DF80731036803F0C1
:101C4000080330338DF80831036803F01003303394
:101C50008DF80931036803F0200330338DF80A3121
:101C6000006800F080008DF80B018DF80C1108461B
:101C7000FEF7C0FF3399086820F020000860FFE7F6
:101C800040F28800C2F20000006878B9FFE70DF565
:101C900083702590FEF7EEFA01462598FFF70CF9C0
:101CA000259A00210846FEF7A5FFE9E7FFE740F285
:101CB0008800C2F200000068012840F0C880FFE7F9
:101CC00000203490FFE7349820282BDCFFE734997C
:101CD00040F20400C2F2000050F8210000442190BC
:101CE0004EA800F10C0168465422229223912490C0
:101CF00024982399229A51F8043B40F8043B043A73
:101D0000229223912490F3D121984E994F9A509B7F
:101D1000FFF756F90A20FEF761FBFFE73498013020
:101D20003490D0E720203490FFE7349800282BD45B
:101D3000FFE7349940F20400C2F2000050F821009D
:101D400000441D904EA800F10C01684654221E92DA
:101D50001F91209020981F991E9A51F8043B40F83B
:101D6000043B043A1E921F912090F3D11D984E9986
:101D70004F9A509BFFF724F90A20FEF72FFBFFE74D
:101D8000349801383490D0E700203490FFE734983D
:101D900020282ADCFFE7349940F20400C2F2000058
:101DA00050F8210019904EA800F10C016846542209
:101DB0001A921B911C901C981B991A9A51F8043B7B
:101DC00040F8043B043A1A921B911C90F3D11998E5
:101DD0004E994F9A509BFFF7F3F80A20FEF7FEFA50
:101DE000FFE7349801303490D1E720203490FFE7AA
:101DF000349800282AD4FFE7349940F20400C2F254
:101E0000000050F8210015904EA800F10C01684622
:101E1000542216921791189018981799169A51F8FB
:101E2000043B40F8043B043A169217911890F3D102
:101E300015984E994F9A509BFFF7C2F80A20FEF76B
:101E4000CDFAFFE7349801383490D1E72FE742F21A
:101E50001070FEF7C3FA00206FB0BDE8F08F03B436
:101E600001984100009850EAC12018BF04204A0D93
:101E700018BF40F0010040F2FF72B2EB515F08BFA3
:101E800040F00200012808BF052002B070470000A2
:101E90002DE9F04D2DED040B2DED0E8B94B0DDE909
:101EA0002350259CDDF888A025F0004624F000484A
:101EB000BAF1000F14BF0121002101EB4502FC49DA
:101EC00053184A1093422AD3002814BF0123002339
:101ED00003EB44030B44F7498B4220D358EA00013B
:101EE0009FEDF5AB76D0DFF8D8B35D4503D1BAF1FD
:101EF000000F05D188E0BAF1000F08BF002100D023
:101F0000012101EB450111F5001F08D8002814BF7D
:101F10000121002101EB440111F5001F0BD99DEDBA
:101F2000241B9DED220B14B0BDEC0E8B04B0BDE85C
:101F3000F04D00F071BE0027002DBCBFE14988457F
:101F400021DAE1498845A8BF02271CDAC3451ADC1B
:101F5000DE4901EB2851142908DDC1F1340220FAD1
:101F600002F101FA02F282420DD108E058B9C1F142
:101F7000140228FA02F101FA02F2424503D101F0FB
:101F80000101C1F1020756EA0A0124D1002C22DA2C
:101F9000002D18BF022F01D0012F0AD00220FEF71A
:101FA000B2F914B0BDEC0E8B04B0BDE8F04D00F0FA
:101FB0001BBE0220FEF7A7F900F016FE51EC100B35
:101FC00000F0A9FE41EC100B14B0BDEC0E8B04B078
:101FD000BDE8F08D18E09FEDBE9B9FEDBF8B002804
:101FE00071D1B848804522D105F1804010F58010AC
:101FF00008BFBAF1000F07D0B3450ADC002CA8BF18
:102000009DED240BE0DA0DE0B0EE4A0AF0EE6A0A2C
:10201000DAE7002C06DA9DED240B51EC100B00F0F2
:102020007AFE6FE0AE48784490ED000BCCE7D845DF
:102030004DD1002C48DA2EB186423AD1BAF1000FC8
:1020400042D126E0BAF1000F13D00220FEF75BF96F
:1020500000F0FEFD8DED020B9DED220B8DED000BD2
:1020600010EE900A039961F31E0003909DED020BA0
:10207000AAE78DED029B9DED220B19EE901A10EE52
:10208000900A8DED000B61F31E0003909DED020B95
:102090009AE78DED028B9DED220B18EE901A10EE53
:1020A000900A8DED000B61F31E0003909DED020B75
:1020B0008AE709DA9DED220B51EC1A0B53EC102B39
:1020C00000F0F2FE1EE020E09DED220B7CE7864250
:1020D0001BDAB4F1804F0DD0A4F10050B0F1FF50E5
:1020E00013D1002D11DB9DED220B51EC100B00F0F4
:1020F000DBFD07E09DED220B53EC102B51EC100B98
:1021000000F0CABC41EC100B5EE79DED220B51ECD8
:10211000100B00F0BDFDBAF1000FCDE90A0142D16C
:102120009FED710B46B3A6F1E040B0F17F600CD09B
:102130005E4538D1002D00DAA7B3022F0CBF012075
:102140004FF0FF3001F075F8DCE7002D01DD002CC9
:102150000DDA002D01DD002C1FDB002D16DA002C1E
:1021600014DB012F08BF9FED620B3FF42DAFB0EEE3
:10217000490AF0EE690A27E7022F18BF002D0CD09C
:10218000012F0AD1002DFFF61FAF06E0002DB8BFCA
:10219000002C08DA012F3FF417AFB0EE480AF0EE3A
:1021A000680A11E71BE0012000EBE57050EA070127
:1021B00015D0791EB0EE4A8AF0EE6A8A084308BF4D
:1021C0009FED4D8B4E480025804570DD4D494E48B2
:1021D000884514DDB0420DDB002C19DB2FE0012017
:1021E000FEF791F814B0BDEC0E8B04B0BDE8F04DD5
:1021F00000F01EBDB34502DC002C09DC1FE0864266
:1022000002DA002C1BDA03E05E452BDD002C16DD24
:102210000220FEF778F800F01BFD8DED020B53EC69
:10222000192B51EC180B01F093F8CDE9000103993B
:10223000019861F31E0003909DED020BC4E602209D
:10224000FEF761F800F014FD10EE901A18EE900AF7
:102250008DED020B8DED008B61F31E0003909DED63
:10226000020BB1E69DED0A0B53EC1A2B51EC100B4F
:1022700001F07AFA9FED260BCDE90A0153EC102B01
:102280009DED0A0B51EC100B01F062F89FED221B43
:1022900053EC112B01F090F99DED0A1B53EC112B1F
:1022A00001F056F89FED1E1B53EC112B3CE08CE027
:1022B000FFFF1F00FFFF0F00000000000000F03FC5
:1022C0000000F03F0000F07F0000404301FCFFFFF2
:1022D000000000000000F07F00000000000000008F
:1022E000061B00000000000000000000000000804D
:1022F000000000000000F0FF000000000000F0BF40
:102300000000E0410000F043FFFFEF3F000000004D
:10231000000000000000D03F555555555555D53F9C
:10232000000000000000E03F01F046F99DED0A0BBF
:1023300041EC190B53EC102B51EC100B01F008F889
:1023400053EC192B01F004F89DED0A0B41EC1B0B2B
:1023500053EC102B9FEDFE0B51EC100B00F0F8FF2F
:1023600041EC190B9FEDFC0B51EC1B0B53EC102BAC
:1023700000F0EEFF41EC1B0B9FEDF90B53EC102B23
:102380009DED0A0B51EC100B00F0E2FF53EC1B2B00
:1023900001F0EAF941EC1B0B51EC190B53EC1B2B30
:1023A00000F0C6FC0490CDE904519DED040B53EC04
:1023B000192B51EC100B01F0D7F953EC1B2B01F04A
:1023C000FBF841EC100B00F0A9B90020B6F5801F16
:1023D0000EDA9FEDE50B53EC102B9DED0A0B51EC43
:1023E000100B00F0B5FFCDE90A016FF034000E4686
:1023F00000EB2650A0F2FF37C6F31300DC4940F093
:102400007F6646F040568842D8BF002408DDD9498F
:102410008142C8BF012403DC0024A6F580167F1C7E
:10242000D548784400EBC4080B9698ED000B53ECAC
:10243000102B9DED0A0B51EC100B01F095F998ED66
:10244000000B41EC1B0B53EC102B9DED0A0B51ECD8
:10245000100B00F06DFC41EC100B51EC1A0B53EC1F
:10246000102B00F021FD41EC1C0B51EC1B0B53EC2D
:102470001C2B00F06DFF41EC190BC0488DED0E9B3D
:1024800078440E9590ED000B4FF0005040EA660046
:1024900000EB84408DED120B00F50020139098EDB9
:1024A000000B53EC102B9DED120B51EC100B01F0B7
:1024B0005BF99DED0A1B53EC112B01F07DF841EC0B
:1024C000100B53EC102B9DED0E0B51EC100B00F08C
:1024D0003FFF9DED120B41EC1D0B53EC102B9DEDBE
:1024E0000E0B51EC100B00F033FF53EC1B2B01F0E3
:1024F00063F853EC1D2B01F037F953EC1C2B00F063
:1025000027FF41EC1C0B53EC192B51EC190B00F07D
:102510001FFF41EC1B0B9A480621B0EE4B0AF0EE70
:102520006B0A784400F0E4FAB0EE401AF0EE601A5C
:10253000B0EE41DAF0EE61DA53EC1B2B51EC1B0BE1
:1025400000F006FF53EC1D2B00F002FF9DED0E0B7B
:1025500041EC1B0B53EC192B51EC100B00F0E8FB7A
:1025600053EC1C2B00F0F4FE53EC1B2B00F0E0FBB3
:102570009DED0E0B41EC1B0B53EC102B51EC100B93
:1025800000F0E6FE41EC1D0B53EC1D2B9FED7EEBA6
:1025900051EC1E0B00F0CCFB53EC1B2B00F0C8FBE6
:1025A0001290CDE912519DED120B53EC1E2B51EC04
:1025B000100B01F0D9F853EC1D2B01F0D5F853ECBA
:1025C0001B2B00F0F9FF9DED120B41EC1D0B53ECA2
:1025D000102B9DED0E0B51EC100B00F0B9FE41ECF1
:1025E0001B0B53EC192B51EC1D0B00F0B1FE9DEDB4
:1025F000120B41EC190B53EC102B51EC1C0B00F09F
:10260000A7FE53EC192B00F093FB41EC190B51EC96
:102610001B0B53EC192B00F08BFB0490CDE90451FC
:102620009DED040B53EC1B2B51EC100B01F09CF8AF
:1026300053EC192B00F0C0FF9DED040B41EC190B7E
:1026400053EC102B9FED520B51EC100B00F080FE61
:1026500041EC1B0B9FED500B51EC190B53EC102B65
:1026600000F076FE9DED040B41EC190B53EC102BA2
:102670009FED4B0B51EC100B00F06AFE53EC192B45
:1026800000F056FB41EC100B4748784400EBC400C7
:1026900090ED001B51EC100B53EC112B00F048FB9C
:1026A00041EC190B384600F0C4FDCDE90A0153ECAA
:1026B000192B51EC1B0B00F03BFB41EC100B3B4882
:1026C000784400EBC40451EC100B94ED001B53EC68
:1026D000112B00F02DFB9DED0A1B53EC112B00F08C
:1026E00027FB0490CDE904519DED0A0B53EC102B10
:1026F0009DED040B51EC100B01F036F894ED001B2E
:1027000053EC112B01F030F853EC1B2B01F02CF89B
:1027100053EC192B00F050FF41EC100B9DED241BE6
:1027200053EC102B8DED001B00959DED240B51EC0F
:10273000100B00F00DFE9DED000B41EC190B53EC5E
:10274000102B9DED240B51EC100B01F00DF82FE038
:10275000000000604715F73FFE822B654715F73FE5
:1027600044DF5DF80BAE543E000000000000404323
:102770008E9803007AB60B0082160000AC1600009B
:10278000B21500000000000000000000000008403A
:10279000000000E009C7EE3FFD033ADC09C7EE3F49
:1027A000F5015B14E02F3EBE3A140000F413000064
:1027B0009DED041B53EC112B00F0CAFD53EC192BBB
:1027C00000F0B6FA9DED040B41EC190B53EC102B05
:1027D0009DED000B51EC100B00F0BAFDCDE90401AA
:1027E0009DED040B51EC190B53EC102B00F0A0FAEB
:1027F000CDE902010C46AA498C422FDB611A08433D
:1028000018D19DED040B53EC102B9DED020B51ECF8
:10281000100B00F0A9FF41EC1B0B9FEDA30B51EC3B
:10282000190B53EC102B00F083FA53EC1B2B00F028
:102830008DFE2DD20220FDF766FD00F009FA10EEA4
:10284000901A18EE900A8DED020B8DED008B61F35E
:102850001E0003909DED020BFFF7B6BB944A24F0D7
:102860000041914214D39349214408437FF4E7ACDB
:102870009DED040B53EC102B9DED020B51EC100B56
:1028800000F072FF53EC192B00F060FE7FF6D7AC1E
:1028900024F000408849894A002601EB20518242F9
:1028A0002BDA481C4FF4801121FA00F02044844AAE
:1028B000C0F30A517A44A1F2FF3192ED000B814A34
:1028C0008DED0A0BCA4020EA0202C0F3130040F467
:1028D0008010C1F1140120FA01F60B92002CB8BF50
:1028E00076429DED0A0B53EC102B9DED040B51EC41
:1028F000100B00F039FFCDE904019DED040B51EC04
:10290000190B53EC102B00F013FA9FED6F0B0A908C
:10291000CDE90A5153EC102B9DED0A0B51EC100B35
:1029200000F016FD41EC1B0B9FED690B53EC102BD7
:102930009DED0A0B51EC100B00F00AFD9DED040B10
:1029400041EC1C0B53EC102B9DED0A0B51EC100BC2
:1029500000F00AFF53EC192B00F02EFE9FED5E1BDA
:1029600053EC112B00F0F4FC53EC1C2B00F0E0F9BD
:1029700041EC190B51EC1B0B53EC192B00F0D8F95F
:10298000CDE902019DED020B53EC1B2B51EC100B1A
:1029900000F0EAFE53EC192B00F00EFE9DED020B49
:1029A00041EC190B53EC102B51EC100B00F0D0FC48
:1029B000CDE90A014A489DED0A0B0521784400F053
:1029C00097F89DED0A1B51EC100B53EC112B00F006
:1029D000BFFC9DED021B53EC112B00F0EDFDCDE98A
:1029E00004019DED020B53EC192B51EC100B00F080
:1029F000AFFC53EC192B00F09BF99FED3B0B41EC26
:102A0000190B53EC102B9DED040B51EC100B00F047
:102A1000ABFE9DED040B41EC1B0B53EC102B9DED1D
:102A2000020B51EC100B00F093FC53EC1B2B00F04D
:102A30003BFA53EC192B00F097FE9DED021B53EC73
:102A4000112B00F091FE53EC1A2B00F0B5FDCDE9EF
:102A5000020101EB065001150029C8BF039015DCE7
:102A60009DED020B324651EC100B00F0D4FFFFF746
:102A7000F6F9042808BF00F0FBF832469DED020B82
:102A800051EC100B00F0C7FFCDE902019DED020BE8
:102A900051EC180B53EC102B00F05AFCFFF732BB33
:102AA0000000904000000000FE822B654715973C17
:102AB00000CC904000346F3F01FCFFFF0000E03F7E
:102AC00078120000FFFF0F0000000000432EE63FD9
:102AD000396CA80C615C20BEEF39FAFE422EE63F4D
:102AE000481100000000000000000000000000404D
:102AF00070B504462DED028B4D1E00EBC500B0EE07
:102B0000408AF0EE608A90ED000B35F0060017D099
:102B100053EC182B51EC100B00F01AFC41EC100B8D
:102B20006D1E04EBC50090ED001B51EC100B53EC37
:102B3000112B00F0FDF841EC100B35F00600E7D149
:102B4000022D36D0042D1CD0062D1CBFBDEC028BEF
:102B500070BD53EC182B51EC100B00F0F9FB94ED09
:102B60000A1B53EC112B00F0E3F853EC182B00F088
:102B7000EFFB94ED081B53EC112B00F0D9F841EC5E
:102B8000100B53EC182B51EC100B00F0E1FB94ED03
:102B9000061B53EC112B00F0CBF853EC182B00F074
:102BA000D7FB94ED040B53EC102B00F0C1F841EC73
:102BB000100B53EC182B51EC100B00F0C9FB94EDEB
:102BC000021B53EC112B00F0B3F853EC182B00F060
:102BD000BFFB94ED001B53EC112B00F0A9F8BDECEA
:102BE000028B41EC100B70BD9FED070B10B553EC41
:102BF000102B9FED070B51EC100B00F055F941EC39
:102C0000100B10BD000000000000000000000000DC
:102C1000000000000000F03F10B553EC112B51EC08
:102C2000100B00F085F841EC100B10BD0000000007
:102C30009FED050B10B553EC102B51EC100B00F071
:102C400033F941EC100B10BD000000000000000043
:102C50009FED050B10B553EC102B51EC100B00F051
:102C600077FB41EC100B10BD00000000000000706D
:102C70009FED050B10B553EC102B51EC100B00F031
:102C800067FB41EC100B10BD0000000000000010BD
:102C900082B0CDE9000121F0004001909DED000BD4
:102CA00002B051EC100B704700B52DED048B83B0D2
:102CB00041EC190B00F08CFC41EC180B18EE100ADB
:102CC00018EE901A8DED008B002818BF01200843E4
:102CD00020F00040C0F17F6000F1E040C00F14D050
:102CE00019EE101A19EE900A8DED009B002918BFFD
:102CF0000121084320F00040C0F17F6000F1E04076
:102D0000C00F04BF0120FDF7FEFA51EC180B03B011
:102D1000BDEC048B00BD81F00041704780F00040A5
:102D2000704721F00041704720F0004070470000DC
:102D300010B591EA030F48BF83F0004300F11C85F2
:102D4000841A71EB030C05D2121943EB0C03001B20
:102D500061EB0C014FEA1154A4EB135CDFF81CE1AA
:102D60001EEA430F18BF9EEA445F00F0748021EA18
:102D7000045123EA0E0343F48013DCF1200E32D316
:102D800022FA0CFE10EB0E0023FA0CFE41EB0E01B2
:102D9000CCF1200E03FA0EFE10EB0E00CCF1200E4B
:102DA00051F10001B1F5801F32D201EB045112FA4A
:102DB0000EF2BDE8104058BF7047401C38BF5FEAB4
:102DC000420218BF7047002814BF20F0010041F1F3
:102DD00000014FEA410313F5001F38BF7047A1F10E
:102DE000C04100F0ADBB012A43EB0302ACF1200C63
:102DF000DCF11F0E32BF4FF0000E23FA0CF310EB84
:102E0000030041EB0451B4EB115FD0D0A1EB0451AE
:102E100001F58011490801EB04515FEA30000ED33F
:102E200050F1000038BF12FA0EFE08D1BDE8104084
:102E3000C9E7401C38BF5FEA4202CAD1C3E7BDE818
:102E400010404FEA410313F5001F38BF7047A1F14E
:102E5000C04100F075BB9EEA445F08D011EA5E0FE6
:102E6000BDE8104004BF01F0004100207047BDE8FC
:102E7000104070B500F016FB64FBBE3E0000E0FFA2
:102E800002494FF0000000F094BD00BF0000F87F41
:102E9000491058BFC1F140415B1058BFC3F14043D6
:102EA0008B42EFF3008070472DE9C04130B4DFF86A
:102EB000A4C23CEA111418BF3CEA131400F0ED80E0
:102EC0001CEA111481EA030544EAD57418BF1CEA10
:102ED000131500F0C880A4EB050404F17F7404F519
:102EE00000344FF0004545EAC12145EAC32341EAD9
:102EF000505143EA52534FEAC0204FEAC22299424E
:102F000008BF904200F09D804FEA13650FF244160F
:102F1000765D4FEA134506FB05F7C7F1807706FBA0
:102F200007F74FEAD737A7FB03687642A7FB06CE21
:102F3000C8F5803838BFA8F1010807FB08E6A6FBF2
:102F4000028C4FF0000EE6FB03CEDCF1000CCEF15C
:102F5000004E38BFAEF1010EA6FB0C584FF0000733
:102F6000E6FB0E87A1FB08C6A0FB07CE16EB0E06FC
:102F70004FF0000545F10005E1FB076515F1E04E56
:102F80007EBFA4F580345FEA46066D4116F18007E6
:102F900045F100054FEA172747EA05674FEA15256F
:102FA0004FEA0666A6F1DE46B6F1805F20D93846C4
:102FB00005EBC47124F0010C01EB0C11BCF1FE6FA8
:102FC00002D8F0BCBDE8008124425CBF01F5801E40
:102FD0009EEAC47F02D4F0BCBDE80081244200F127
:102FE0003980A1F1C041F0BCBDE8004100F0A8BAB1
:102FF0004FEAD02040EA41504FEAD1214FEAD22295
:1030000042EA43524FEAD323A7FB028607FB03663B
:1030100005FB02661EEA0E0F58BFA6EB0056B6EB84
:1030200000564FEA520E4EEAC37E18EB0E0E56EBD8
:10303000530EBCD518EB02085E417F1C55F100050C
:10304000B5E74FF480154FF000074FF000064FF042
:103050000008ACE701F1C04101F000414FF0000071
:10306000F0BCBDE800810CEA131511EA0C1F00D07A
:103070000CE013EA0C1F00F026804FF0000081EAFC
:10308000030101F00041F0BCBDE80081F0BCBDE8E7
:10309000004181EA030100F053BAF0BCBDE80041F1
:1030A00070B500F0FFF900BF097EFC3E00F007B8E4
:1030B0004FF0000081EA030101F00041704781EA0E
:1030C000030100F03DBAF0BCBDE8004122494FF0D9
:1030D00000007047FFFDFBF9F7F5F4F2F0EEEDEBC1
:1030E000E9E8E6E4E3E1E0DEDDDBDAD8D7D5D4D306
:1030F000D1D0CFCDCCCBCAC8C7C6C5C4C2C1C0BF52
:10310000BEBDBCBBBAB9B8B7B6B5B4B3B2B1B0AF57
:10311000AEADACABAAA9A8A8A7A6A5A4A3A3A2A13B
:10312000A09F9F9E9D9C9C9B9A99999897979695F6
:1031300095949393929191908F8F8E8E8D8C8C8B92
:103140008B8A89898888878786858584848383821A
:10315000828181800000FF070000F87F51EA030CA4
:1031600017D41CF5801F58BFBCF5801F00F10680E6
:10317000994218BF704708BF9042704707D711F5B2
:10318000801F58BF13F5801F19D499427047894298
:1031900070471CF5801F08D5BCF5801FF7D58B4202
:1031A00018BF704708BF824270474FF4001C1CEBE9
:1031B000410F38BF1CEB430F01D28B42704770B5F3
:1031C00000F070F9922449004FF000514FF0805305
:1031D000FFF75EBE4FEA41034FEA5353A3F5806306
:1031E000D3F11E03C8BFD3F1210C0CDD4FF0004218
:1031F00042EAC12242EA505232FA03FC8CEAE17CF4
:10320000ACEBE1707047102BC4BF0020704703F592
:10321000787CBCF1FF3F04D06FF0004282EA2100CD
:10322000704770B500F03EF9499224800020704745
:10323000F2E710F0004248BF4042B0FA80F310FAC3
:1032400003F10AD0C3F11D0303F5806302EB0352BF
:103250004FEA415002EBD12170474FF00000704718
:1032600051EA030C17D41CF5801F58BFBCF5801F12
:1032700000F10680994218BF704708BF904270471E
:1032800007D711F5801F58BF13F5801F19D4994235
:103290007047894270471CF5801F08D5BCF5801F18
:1032A000F7D58B4218BF704708BF824270474FF472
:1032B000001C1CEB410F38BF1CEB430F01D28B42AB
:1032C000704770B500F0EEF8922449004FF080513D
:1032D0004FF00053FFF7DCBD51EA030C17D41CF587
:1032E000801F58BFBCF5801F00F10680994218BFAF
:1032F000704708BF9042704707D711F5801F58BF2D
:1033000013F5801F19D499427047894270471CF504
:10331000801F08D5BCF5801FF7D58B4218BF7047BA
:1033200008BF824270474FF4001C1CEB410F38BFAE
:103330001CEB430F01D28B42704770B500F0B2F81E
:10334000922449004FF000514FF08053FFF7A0BD89
:1033500070B5DFF848C11CEA111E1EBF1CEA131528
:103360009EEA0C0F95EA0C0F00F06F8081EA0304CF
:103370004EEAD47EAE4421EA4C1123EA4C1341F4C8
:10338000801143F48013AEF17F7EA1FB024CA0FBC1
:103390000365361955EB0C05A1FB034C4CF10003FA
:1033A000A0FB021C16EB0C06654153F10003094219
:1033B00018BF46F0010613F4007F0BD14FEA03312A
:1033C0004FEA053041EA155140EA165034036FF0D8
:1033D00003020AE04FEAC3214FEAC52041EA5551F2
:1033E00040EA5650F4026FF0020202EB2E4201EB6B
:1033F000025585EACE710AD05FEA440C18BF24F06A
:10340000004450F1000041F1000120EAD47040F284
:10341000FE7C624500D270BDA84214BF4FF08044CC
:103420004FF04044002E08BF0024BEF1806FA8BFBB
:10343000A1F1C041BDE8704080F2828001F1C0413D
:1034400001F000414FF0000070470CEA13159EEAAE
:103450000C0F18BF95EA0C0F06D081EA030E4FF04F
:1034600000000EF0004170BD00F01CF88900013E24
:1034700000F007B800F009B84FEA430C5FEA5C5C63
:1034800008D081EA030100F05BB84FEA410C5FEA23
:103490005C5CF6D102494FF0000070470000FF0766
:1034A0000000F87F0EF1020E2EF0030E5EF8046BA2
:1034B000364205D4012A43EB030515F5001F12D847
:1034C000012841EB010C1CF5001F0CD80ED14FEA6E
:1034D000D17C0CEB4C0C0CF1020C15F5001F08BF55
:1034E0004CEBD37C04E04FF0080C01E04FEAD37CB6
:1034F0000CEB4C0526FA05F606F00706B6F1040CAF
:1035000006D20EEB860CBDE870404CF0010C604713
:10351000DFE80CF0090B02024FF00041A1F5002199
:103520004FF0000070BD19461046012851EB010410
:1035300018BFD4F5001484BF002001F0004170BD15
:103540000808A0F500114FEA3101704753EA010C59
:1035500017D41CF5801F58BFBCF5801F00F10680F2
:103560008B4218BF704708BF8242704707D713F5D8
:10357000801F58BF11F5801F19D48B4270479B42A2
:1035800070471CF5801F08D5BCF5801FF7D5994200
:1035900018BF704708BF904270474FF4001C1CEBE7
:1035A000430F38BF1CEB410F01D2994270470FB453
:1035B0000CBC03BCFFF7C1BE10B591EA030F81F04C
:1035C00000413FF5BDAB83F0004300F0D5B80000EB
:1035D0002DE9F04101F5801CBCF5001FC0F2A98067
:1035E0004FEA115C21EA0C5141F480110CF1FD0C01
:1035F0005FEA5C0C0CF5C07C01D3400049418902B4
:1036000041EA905187022EA48E0EA45D0A0C04FBA1
:1036100004F602FB06F6C6F14046A4FB0662F60D70
:1036200046EA422606FB06F4A4FB01235242C3F1FC
:10363000404338BF5B1EA6FB02420024E6FB032486
:10364000D20B42EA4446A6FB0623A1FB02E2A3FBFF
:1036500007E4E3FB61426442C2F1404E38BFAEF181
:10366000010EA6FB04234FF00002E6FB0E32A2FB84
:1036700003463400E2FB6264A1FB06E6A4FB07E814
:10368000E4FB61687642C8F1405838BFA8F10108F0
:10369000A2FB06E4A3FB08E5E2FB6854A1FB05E6F8
:1036A000A7FB04E8E1FB648618F1200556F100064B
:1036B000A80940EA8660B109A8F11B0808F03F0894
:1036C000B8F10A0F1CD901EB0C51BDE8F08100BF25
:1036D000FCF5EEE8E2DDD8D3CFCBC7C3C0BDB9B6A9
:1036E000B4B1AEACA9A7A5A3A19F9D9B9A989695AE
:1036F0009392908F8D8C8B89888786858483828135
:10370000A0FB006800FB01F208EB4208B8EB872839
:1037100007D5341858EB0104D5D5401C51F10001F0
:10372000D1E7341A78EB0104CDD4401E71F10001C9
:10373000C9E75FEA4C0C5FEA9C5C0DD105D301F050
:1037400000414FF00000BDE8F081BDE8F04170B5E8
:10375000FFF7A8FE6DDBFFBEBDE8F04101494FF069
:10376000000070470000F87F10B591EA030F48BFD2
:1037700083F000433FF5E4AA841A71EB030C07D2EF
:103780008CF0004C121943EB0C03001B61EB0C0195
:103790004FEA1154A4EB135CDFF8A4E11EEA430FD7
:1037A00018BF9EEA445F00F0B48021EA045123EA86
:1037B0006E035242C3EB6E0338BF5B1EDCF1200E7A
:1037C00025D322FA0CFE10EB0E0043FA0CFE41EB5F
:1037D0000E01CCF1200E03FA0EFE10EB0E00CCF120
:1037E000200E51F1000129D401EB045112FA0EF21E
:1037F000BDE8104058BF7047401C1CBFB2F1004FDD
:10380000704700280CBF491C20F00100704712EBE4
:10381000020E43EB030218BF4FF0010E4EEA4202C4
:10382000ACF1200CDCF11E0E56D943FA0CFE10EB65
:103830000E00CCF11E0E51F1FF31D5D50EF1010E67
:1038400012FA0EFE404141EB010101EB445C5FEADC
:103850005C5C10D901EB045110EBDE7038BFBEF197
:10386000004FBDE8104018BF704700280CBF491C2E
:1038700020F00100704734D24FEAD42C24F40064C5
:1038800011F500111BD0B1FA81F20B3AA41AA41E53
:10389000D2F12003914030FA03F31943904001EB39
:1038A000CC7101EB0451002CBDE81040A8BF70475B
:1038B00001F1C04101F000414FF000007047B0FA43
:1038C00080F310FA03F102D1BDE810407047E41A0A
:1038D000173C4805C90AE2E701EB0451BDE8104076
:1038E000704749104FEA300001EB0451BDE8104029
:1038F00002E04FF0000170474A0008BF0042F8D0D4
:10390000B2F5001F28BF704701F000414FF00000E2
:1039100070479EEA445F07D011EA5E0FBDE8104091
:1039200004BF002100207047BDE8104070B5FFF7CC
:10393000B9FD00BF40DFF63E104683F000417047FE
:103940000000E0FF10B5FFF709FC0CBF01200020CC
:1039500010BD10B5FFF702FC14BF0120002010BD00
:1039600010B5FFF77DFC8CBF0120002010BD10B505
:10397000FFF776FC2CBF0120002010BD10B5FFF72B
:10398000ABFC94BF0120002010BD10B5FFF7A4FCD4
:1039900034BF0120002010BDF1EE100A4FF6FF7178
:1039A000C0F2C03120EA010040F04070E1EE100AA0
:1039B00070470CF00F03092B08BF082000F0598056
:1039C0000A2B0BD0082B18BF704708BF1CF0400F04
:1039D0000AD04FF000004FF0000170471CF0400F7C
:1039E00018BF4FF0004070471CF0100F08D000F0D7
:1039F0007F4220F0704342EAD3014FEA43707047A0
:103A000000F0604021F07F4242EA000201F07F4076
:103A100040EA727070474FF0FF0C4CF4E06C1CEA07
:103A200011531CBF9CEA030C9445C2BFDA4201EB60
:103A300002517047002B0DD0BCF1000F0FD001F0E8
:103A40000041002AA4BF41F0E04141F07F614FF006
:103A50000000704701F000414FF00000704750EA4D
:103A600001334FF09B0C18BF4CF0806C7FF408AA18
:103A700070471CF4801F11D01CF4E02F03D06FEAB4
:103A8000CC31490070474FF04050EFF3008222F0F4
:103A9000704242EA000282F3008870474FF0000053
:103AA0007047000000000000000000000000F03F30
:103AB000000000000000F83F0000000000000000CF
:103AC0000000004003B8E23F0000000000000000DA
:103AD00006D0CF43EBFD4C3E033333333333E33F68
:103AE000FFAB6FDBB66DDB3F4D268F515555D53F94
:103AF00001411DA96074D13F65DBC9934A86CD3F62
:103B0000EF4E454A287ECA3F3E5555555555C53F4F
:103B100093BDBE166CC166BF2CDE25AF6A56113F41
:103B2000F16BD2C541BDBBBED0A4BE726937663E43
:103B30000000000000000000000000000000000085
:103B40000102030406070809683B00080000002082
:103B500098000000D0010008003C000898000020F8
:103B600070060000EC0100080024F40000000000D2
:103B7000470600008B0C0000C7120000F818000078
:103B8000191F0000272500001E2B0000FB3000003D
:103B9000B9360000563C0000CD4100001C47000033
:103BA0003F4C000033510000F4550000815A0000E2
:103BB000D65E0000F1620000CE6600006C6A000074
:103BC000C96D0000E1700000B57300004076000090
:103BD000837800007C7A0000297C0000897D000049
:103BE0009C7E0000617F0000D77F0000FF7F000007
:103BF00001000000010000001000000000000000B3
:040000050800019559
:00000001FF
